:020000040800F2
:10000000B0A60020C101000851660008853E000826
:10001000F9630008C9150008A19600080000000057
:10002000000000000000000000000000D3010008F4
:10003000F129000800000000D7010008D18600085F
:10004000DB010008DB010008DB010008DB01000820
:10005000DB010008DB010008DB010008DB01000810
:10006000DB010008DB010008DB010008DB01000800
:10007000DB010008DB010008DB010008DB010008F0
:10008000DB010008DB010008DB010008DB010008E0
:10009000DB010008DB010008DB010008D52D0008AA
:1000A000DB010008DB010008DB010008DB010008C0
:1000B000DD870008A5890008DB010008DB010008D6
:1000C000DB010008DB010008DB010008DB010008A0
:1000D0008D7A0008DB010008DB010008DB01000865
:1000E000DB010008DB010008DB010008DB01000880
:1000F000DB010008DB010008DB010008DB01000870
:10010000DB01000841750008458A0008DB01000892
:10011000DB010008DB010008DB010008DB0100084F
:10012000DB010008DB010008DB01000845290008AD
:10013000DB010008DB010008DB010008DB0100082F
:10014000DB010008DB010008DB010008DB0100081F
:10015000DB010008DB010008DB010008DB0100080F
:10016000DB010008DB010008DB010008DB010008FF
:10017000DB010008DB010008DB010008DB010008EF
:10018000DB010008DB010008DB010008DB010008DF
:10019000DB010008DB010008DB010008DB010008CF
:1001A0000000000000000000DB010008DFF80CD0B8
:1001B00000F0D6FB0048004775C30008B0A6002039
:1001C0000648804706480047FEE7FEE7FEE7FEE7F1
:1001D000FEE7FEE7FEE7FEE7FEE7FEE775870008BD
:1001E000AD01000810B5431A934209D2831888184C
:1001F00003E010F8011D03F8011D521EF9D210BDD5
:1002000040EA01039B0703D009E008C9121F08C098
:10021000042AFAD203E011F8013B00F8013B521E18
:10022000F9D210BDD2B201E000F8012B491EFBD279
:1002300070470022F6E710B513460A4604461946F1
:10024000FFF7F0FF204610BD421C10F8011B0029EB
:10025000FBD1801A704730B504460020034600E009
:100260005B1C934203D2E05CCD5C401BF8D030BDF8
:10027000034611F8012B00F8012B002AF9D118468A
:10028000704730B505460020034600E05B1C9342F2
:1002900005D2EC5CC85C201A01D1002CF6D130BD2F
:1002A0002DE9FE4F804681EA0300C00F0C46009006
:1002B00021F0004123F00045B8EB0200A94105D22E
:1002C0004046214690461C460B46024623F000401D
:1002D000104347D0270DC7F30A00C3F30A51029019
:1002E000401A019040286BDAC3F3130040F4801BDE
:1002F0000098924620B10023D2EB030A63EB0B0B6C
:1003000001985946C0F14002504600F013FA0646E3
:100310000D4650465946019A00F02BFA10EB0800A2
:100320006141002487EA115284EAE7731A4340D0FE
:10033000009A62B3019A012A4FEA075215DC001BAA
:1003400061EB02014FF0004202EA0752CDE90042A0
:10035000001C41F5801132462B4600F062FA03B0D2
:10036000BDE8F08F40462146F9E7001B61EB020132
:10037000001C41F5801300185B412018A2F50017FE
:1003800047EB030140EAD570B6196D4111E06D08E5
:100390004FEA360645EAC0754FEA0752001B61EB8B
:1003A0000201001C41F5801149084FEA3000001994
:1003B000514132462B4603B0BDE8F04F00F022BA5F
:1003C0000098012240000023D0EB020263EBE073AF
:1003D000009821464FEAE074B8EB000061EB04019D
:1003E000E9E783F000435BE781F0004158E72DE93E
:1003F000FE4F81EA030404F0004421F00041009420
:100400004FF0000B23F0004350EA01045ED052EAA3
:1004100003045BD0C3F30A54C1F30A552C44A4F27D
:10042000F3340194A0FB0254C1F3130141F4801191
:10043000C3F3130343F4801301FB024400FB034E98
:10044000840A970A44EA815447EA8357A4FB076861
:1004500002958D0A05FB07854FEA932C04FB0C548B
:100460002705029D4FEA065847EA1637B5EB0805FF
:100470006EEB070C870E920E47EA811742EA831251
:10048000A7FB0201B6EB0B0164EB00042B0D43EA62
:100490000C335E1844EB1C50DA465146E7FB020170
:1004A000C5F313044FEA0B3343EA14534FEA043203
:1004B000019C43EA0603A4F10C040294009CCDE9DC
:1004C00000B400F0AEF903B0BDE8F08F00200146A3
:1004D000F9E72DE9F04D81EA030404F0004B21F027
:1004E000004514464FF0000A23F0004150EA05028F
:1004F00020D054EA01021DD0C5F30A570246C5F3C5
:100500001303C1F31300C1F30A5640F4801543F4FA
:100510008013A7EB0608101BD64608F2FD3873EBD4
:10052000050002D308F1010801E092185B41B8F11F
:10053000000F03DA00200146BDE8F08D00204FF4E3
:100540008011064684460EE0171B73EB050705D3A2
:10055000121B63EB050306434CEA010C49084FEA02
:10056000300092185B4150EA0107EDD152EA0300D6
:1005700012D082EA040083EA0501084305D0101B6B
:10058000AB4106D20122002306E000224FF00043D7
:1005900002E06FF0010253101AEB06004CEB085119
:1005A00010EB0A0041EB0B01BDE8F04D00F02AB959
:1005B0000EB5C10F80EAE0700844CA07002140F27E
:1005C00033438DE80E000A460B4600F02AF903B0CB
:1005D00000BD0EB540F2334102910021CDE900117A
:1005E0000A460B4600F01DF903B000BD0EB540F2FF
:1005F000334202920022CDE90022134600F011F9A5
:1006000003B000BD70B5C1F30A5201F000450024EB
:10061000C1F3130140F2FF3341F480119A4201DA31
:10062000002070BD40F233439A42A2F2334203DC11
:10063000524200F08EF800E090402C43F1D040424E
:1006400070BDC1F30A5210B5C1F3130140F2FF337C
:1006500041F480119A4201DA002010BD40F2334388
:100660009A42A2F2334203DC524200F072F810BD0B
:10067000904010BD00F0004230F000400AD0C10DA3
:1006800001F56071C0F3160042EA0151C20840074B
:1006900011437047002001467047000030B5041E2A
:1006A00071F1000404DB4FF00044404264EB0101AF
:1006B000141E73F1000405DB1C464FF00043524248
:1006C00063EB04038B4208BF824230BD30B5041E89
:1006D00071F1000404DB4FF00044404264EB01017F
:1006E000141E73F1000405DB1C464FF00043524218
:1006F00063EB0403994208BF904230BD01F0004310
:1007000030B421F0004150EA010206D00A0DA2F5F2
:100710006072C1F31301002A02DC30BC0020704774
:10072000440F44EAC104C100E01830BC00EBC250E1
:1007300000F031B8202A04DB203A00FA02F1002050
:1007400070479140C2F1200320FA03F3194390400F
:100750007047202A04DB203A21FA02F0002170477A
:1007600021FA02F3D040C2F1200291400843194619
:100770007047202A06DBCB17203A41FA02F043EA01
:10078000E07306E041FA02F3D040C2F1200291404A
:100790000843194670470029A8BF7047401C49000C
:1007A00008BF20F00100704710B4B0FA80FC00FAD6
:1007B0000CF050EA010404BF10BC704749B1CCF101
:1007C000200421FA04F411FA0CF118BF012121438D
:1007D0000843A3EB0C01CB1D4FEA00614FEA102048
:1007E00042BF002010BC704700EBC35010440029EA
:1007F000A4BF10BC7047401C490008BF20F0010096
:1008000010BC704710B5141E73F1000408DA401CC8
:1008100041F1000192185B411A4301D120F001001F
:1008200010BD2DE9F04D92469B4611B1B1FA81F20F
:1008300002E0B0FA80F220329046FFF77BFF0446D8
:100840000F4640EA0A0041EA0B0153465A46084364
:1008500013D0114653EA010019D0C8F140025046A6
:10086000FFF777FF05460E46504659464246FFF7CA
:1008700061FF084305D0012004E020463946BDE869
:10088000F08D0020054346EAE0762C4337430A9872
:100890006305E40AA0EB08000022FD0A44EA47547D
:1008A0000A3002D500200146E9E701051019694127
:1008B000DDE9084500196941BDE8F04DA2E72DE9E1
:1008C000F04D00231A461B1A8A4103DB0020014623
:1008D000BDE8F08DC1F30A52C1F3130141F4801554
:1008E0004FF0000BD10702D100186D41521E0027B6
:1008F000044640F2FF11384601EB620A3E4680464C
:10090000024600204FF48011FFF723FFC219714106
:10091000BB1846EB0100B4EB030C75EB000C04D3E1
:10092000E41A65EB000517460E46241908F101008C
:100930006D4180463428E3DDF91946EB0600091BBA
:10094000A84103D24FF0FF32134601E000221346C4
:100950001BEB070046EB0A51BDE8F04DFFF752BF15
:10096000064C074D06E0E06840F0010394E80700FC
:1009700098471034AC42F6D3FFF71CFCB0880F0840
:10098000D0880F0870B58D1810F8014B14F00302D1
:1009900001D110F8012B231106D110F8013B03E01F
:1009A00010F8016B01F8016B521EF9D1ABB110F8D0
:1009B000012B04F00C048A1A0C2C03D0A2EB841235
:1009C0009B1C08E010F8014BA2EB0422F8E712F898
:1009D000014B01F8014B5B1EF9D5A942D4D300208D
:1009E00070BD21B1826842F00102826003E082683A
:1009F00022F00102826070470021084A1168084A0B
:100A00001140D0E900231A4383681A43C3681A438C
:100A10001143044AC2F80413704700000423014044
:100A2000E030FCFF0020014021B1826842F4807276
:100A3000826003E0826822F480728260704721B194
:100A4000826842F40072826003E0826822F40072DD
:100A50008260704730B50246002000235068104C79
:100A600020400D790C6844EA0524204350609068CA
:100A70000C4C2040D1E903542C438D682C434D7914
:100A800044EA450420439060D06A20F470000C7D55
:100A9000641EE4B2234340EA0350D06230BD00003C
:100AA000FFFEFFFCFDF7FFC0F0B504460D46002039
:100AB0000021092D11DDE068A5F10A0606EB4607C5
:100AC000072606FA07F18843A5F10A0606EB460653
:100AD00003FA06F10843E0600CE0206905EB4507E6
:100AE000072606FA07F1884305EB450603FA06F1E7
:100AF00008432061072A0FDA606B561E06EB860753
:100B00001F2606FA07F18843561E06EB860605FAED
:100B100006F10843606322E00D2A0FDA206BD61F2E
:100B200006EB86071F2606FA07F18843D61F06EB59
:100B3000860605FA06F10843206310E0E06AA2F198
:100B40000D0606EB86071F2606FA07F18843A2F179
:100B50000D0606EB860605FA06F10843E062F0BDD5
:100B6000816841F0804181607047000000B587B026
:100B70000121880306F066FC02208DF818008DF82C
:100B8000190000208DF81A008DF81B004FF430403A
:100B9000059005A9704802F087FA4020059005A944
:100BA0006E4802F081FA05220C216B4802F0C4FA6B
:100BB00005220D21684802F0BFFA05220F21664880
:100BC00002F0BAFA05220621644802F0B5FA4FF4A1
:100BD0008040059001208DF8180000208DF81A0043
:100BE0008DF81B0002208DF8190005A95A4802F063
:100BF0005BFA4FF48040059001208DF8180000202A
:100C00008DF81A008DF81B0002208DF8190005A937
:100C1000534802F049FA4FF48070059001208DF896
:100C2000180000208DF81A008DF81B0002208DF8A6
:100C3000190005A94B4802F037FA802005900120E1
:100C40008DF8180000208DF81A0003208DF8190087
:100C500005A9424802F028FA4FF4005005900120FF
:100C60008DF8180000208DF81A0003208DF8190067
:100C700005A93B4802F018FA002006F043FC0120C9
:100C800006F046FC00BF3B2006F01CFC0028FAD012
:100C90000121880306F0D6FB334806F077FF4FF4B6
:100CA0004070ADF804000020ADF806000520ADF856
:100CB00008004FF40070ADF80A004FF4965003900E
:100CC0000020ADF8100001A9274803F013F9012115
:100CD000254803F003F94FF400511F4802F058FA79
:100CE0004FF480411E4802F055FA4FF480711D48C0
:100CF00002F04EFA4FF48041174802F049FA802181
:100D0000164802F045FA4FF40051154802F040FA37
:100D100005200AF051FC4FF480410F4802F03AFAE6
:100D200001226021104806F0ACFF00BF0F480068A8
:100D3000B0F5E15FFAD30E480068B0F5E15FF5D396
:100D400000200A4908600A4908600022602106481C
:100D500006F097FF07B000BD000402400008024003
:100D6000001C0240001802400038004040120020E1
:100D7000441200202DE9F0412DED048B00BF00BF8F
:100D8000002059490860594908606021584806F018
:100D9000F3FE01226021564806F073FF00BF52485F
:100DA0000068B0F5E15FFAD350480068B0F5E15F44
:100DB000F5D3002260214E4806F063FF00252E4641
:100DC0000027B846002453E060004A4931F810007B
:100DD00000B2002804DD600031F8100000B205E028
:100DE0006000444931F8100000B240426100414ABD
:100DF00032F8111009B2002904DD610032F8111037
:100E000009B205E061003B4A32F8111009B24942CB
:100E10004843451946EBE0764FEA4400364931F83D
:100E2000100000B2002804DD600031F8100000B2AC
:100E300005E06000304931F8100000B24042610026
:100E40002D4A32F8111009B2002904DD610032F890
:100E5000111009B205E06100274A32F8111009B2F9
:100E600049424843C71948EBE07804F1010084B2D5
:100E7000B4F5616FA8DBA80940EA8665B609B80930
:100E800040EA88674FEA981828463146FFF7AEFBDC
:100E900041EC190BB0EE490AF0EE690A0AF0E4F9E8
:100EA000B0EE408AF0EE608A51EC180BFFF7C9FBF8
:100EB0001249086038464146FFF798FB41EC190B90
:100EC000B0EE490AF0EE690A0AF0CEF9B0EE408AB7
:100ED000F0EE608A51EC180BFFF7B3FB084908608D
:100EE000BDEC048BBDE8F0814012002044120020CC
:100EF00000380040802B0020C063002060120020DA
:100F00006412002010B58CB0AB2008F0CBFBB520EC
:100F100008F0C8FBA020962151220023CDE907321A
:100F2000CDE90910142005211E22CDE90302CDE9E7
:100F3000051008204121CDE9002102901A4640F613
:100F4000AC51184605F0C6FAAA2097215022C823B2
:100F5000CDE90732CDE90910142005211E22CDE983
:100F60000302CDE90510082041210023CDE900212D
:100F70000290012240F6AC51184605F0ABFA00246D
:100F800039E0AB20962151220023CDE90732CDE98B
:100F90000910142005211E22CDE90302CDE9051018
:100FA00008204121CDE9002102901A4640F6AC51BB
:100FB000184605F08FFAAA2097215022C823CDE9C0
:100FC0000732CDE90910142005211E22CDE90302C4
:100FD000CDE90510082041210023CDE90021029030
:100FE000012240F6AC51184605F074FA04200AF0CC
:100FF000E3FA601CC4B2022CC3DBAB209621512261
:101000000023CDE90732CDE90910142005211E2265
:10101000CDE90302CDE9051008204121CDE90021E9
:1010200002901A4640F6AC51184605F053FA40F2C9
:1010300002200AF0C1FAAA2008F034FBB42008F01C
:1010400031FBAA2097215022C823CDE90732CDE9F0
:101050000910142000211E220123CDE90332CDE91D
:10106000051008461B2100911A46CDE9011040F6F3
:10107000AC51002005F02EFAC8200AF09DFA962007
:1010800008F010FB17200AF097FA0CB010BD00B55D
:101090008BB0AB2008F006FBB52008F003FBA020C6
:1010A000962151220023CDE90732CDE90910142001
:1010B00002211E22CDE90302CDE9051008203C21C2
:1010C000CDE9002102901A4640F2DC51184605F0A5
:1010D00001FAAA2097215022C823CDE90732CDE991
:1010E0000910142002211E22CDE90302CDE90510CA
:1010F00008203C210023CDE900210290012240F28A
:10110000DC51184605F0E6F904200AF055FA96205D
:1011100008F0C8FAAB2000215122CDE90712CDE931
:101120000910142002211E22CDE90302CDE9051089
:1011300008203C210023CDE9002102901A4640F608
:10114000B831184605F0C6F94FF4DE700AF034FAEB
:10115000502008F0A7FA972008F0A4FAAA2008F077
:10116000A1FAB42008F09EFA34200AF025FA0020F3
:101170000790089009901E220A90CDE9030205907D
:101180001B210091069001231A46CDE9011040F67B
:10119000B83105F09FF94B200AF00EFA0BB000BDF4
:1011A0002DE9FE4F0020ADF8000044480088B0F55E
:1011B000F07F06D142484349098800EBC100C0884E
:1011C00005E041483F49098800EBC100C088ADF8FF
:1011D000020049F69910ADF804000120ADF80600B0
:1011E00036480088B42190FBF1F0C5B2374800883A
:1011F0002838AA2190FBF1F0C7B215FB07F034495B
:10120000087015FB07F0052191FBF0F0401C3149F7
:101210000870691EC1EB011101EB4101274A1288D8
:10122000A2EB8101A1F1800000EBD071C1F34F0A64
:101230004FF0460B2848007810FB05F0784384B245
:101240005646D8464FF0000932E0564609EB0910E1
:1012500000EB80000BEB40001FFA80F800200290AA
:101260001BE01E4800EB441046801C4800EB441075
:10127000A0F80480194901EB44100022694604F0EB
:101280000CF9601C84B2062C00DB09E006F1B40006
:1012900086B20298401CC0B202900298A842E0DBDD
:1012A00000BF062C00DB05E009F1010000F0FF099A
:1012B000B945CADB00BFBDE8FE8F0000D012002098
:1012C000F4D10008F60000202CD20008CE12002035
:1012D000EE000020ED000020EC0000202C0000209B
:1012E00010B504462146512006F07AF810BD2DE9CC
:1012F000F04105460C4616461F46DDF81880E9B257
:10130000582006F06DF82912592006F069F8E1B26C
:101310005A2006F065F8B8F1000F04D121125B20C5
:1013200006F05EF805E0802040EA24215B2006F00C
:1013300057F8F9B25C2006F053F839125D2006F038
:101340004FF8F1B25E2006F04BF831125F2006F044
:1013500047F8BDE8F081000010B50120044908708D
:10136000502005F0D1FF802005F0EEFF10BD0000F9
:101370005C13002010B500BF05F03CFE00F04000FB
:101380004028F9D000200149087010BD5C130020EE
:101390002DE9F0412DED048B8CB004460D4600265E
:1013A0000027072C17D2DFE804F01604070A0D10F7
:1013B00013000B260A270FE01F261E270CE03326FA
:1013C000322709E04726462706E06F266E2703E00E
:1013D0008326822700E000BF00BFAB2008F062F93F
:1013E000B52008F05FF9A02096210022CDE907265C
:1013F000CDE90910142006211E22CDE90302CDE912
:10140000051008203C210023CDE9002102901A4656
:101410004FF4E161184605F05DF8384608F042F9EE
:10142000AA2008F03FF916200AF0C6F8972008F025
:1014300039F902200AF0C0F80020C823CDE90730AE
:1014400009900A90142006211E22CDE90302CDE95D
:10145000051008203C210023CDE900210290012243
:101460004FF4E161184605F035F8AB2008F01AF9A1
:10147000304608F017F902200AF09EF8962008F08E
:1014800011F91B200AF098F84E4890ED0E1BB0EEB3
:10149000410AF0EE610A51EC100BFFF7D2F81FFA87
:1014A00080F800200790089009900A9014200621E7
:1014B0001E22CDE90302CDE9051008203C210023BE
:1014C000CDE9002102901A464146184605F002F87F
:1014D00040F2FC500AF070F8384608F0E3F81920A2
:1014E0000AF06AF8AA2008F0DDF8972008F0DAF888
:1014F00002200AF061F800200790089009901E224F
:101500000A90CDE903020590009206900023CDE9F0
:10151000012001222946184604F0DCFF4FF48060C8
:101520000AF04AF8A12008F0BDF836200AF044F885
:101530002846FFF74EF841EC190B224890ED0E1BA0
:10154000B0EE410AF0EE610A53EC102B51EC190B8E
:10155000FEF74AFF41EC180BFFF773F81FFA80F80B
:101560000020C823CDE9073009900A9032200521D8
:1015700014220392CDE90421069001201E210023AC
:10158000CDE9002102900246414604F0A3FF4FF44A
:10159000F0700AF011F8962008F084F840F25250EA
:1015A0000AF00AF8FFF7E6FB972008F07BF8A02086
:1015B00008F078F82B2009F0FFFF0CB0BDEC048B8D
:1015C000BDE8F081382B002000BFFEE770B504466F
:1015D000049D581A2E1B7043161B90FBF6F008440E
:1015E00070BD000001B596B00A21169890FBF1F28B
:1015F00001FB1200C0B21490169890FBF1F0C0B23B
:10160000169014980A287DD2DFE800F07C0510FBC4
:10161000F9F8F7F6F5F4FFF73AFDFE480068FE49E1
:101620000860FE480168FC484160FDE3FC48008812
:1016300080B2014613901698FFF7AAFEF948007889
:10164000012800D1F1E7F3480068F3498860F348C6
:101650000068C860084690ED020AF8EE400A90ED76
:10166000000AB8EE401A80EE810A8DED0F0A0F983D
:10167000FFF700F8CDE910019DED100B09F05CFDBE
:101680008DED120B9DED120B51EC100B81F0004112
:10169000E54A03C2E54890ED0A0B8DED000BE248E8
:1016A00090ED000B53EC102B9DED000B51EC100B4B
:1016B000FEF79DFECDE90201DC4890ED080B8DEDB3
:1016C000000B9DED000B53EC102B9DED020B51EC2C
:1016D000100BFEF7E5FDCDE90401D34890ED000BBA
:1016E00053EC102B9DED040B51EC100BFEF77FFE1D
:1016F000CDE90601CD4890ED060B8DED040B9DED77
:10170000040B00E0FCE353EC102B9DED060B51ECB9
:10171000100BFEF7C5FDCDE90801C34890ED000BA5
:1017200053EC102B9DED080B51EC100BFEF75FFEF8
:10173000CDE90A01BD4890ED040B8DED080B9DED40
:10174000080B53EC102B9DED0A0B51EC100BFEF720
:10175000A7FDCDE90C01B44890ED000B53EC102B24
:101760009DED0C0B51EC100BFEF741FECDE90E0187
:10177000AE4890ED020B8DED0C0B9DED0C0B53EC78
:10178000102B9DED0E0B51EC100BFEF789FDCDE9F2
:101790001001A54890ED000B53EC102B9DED100BA4
:1017A00051EC100BFEF723FECDE912019F4890ED9E
:1017B000000B8DED100B9DED100B53EC102B9DEDE0
:1017C000120B51EC100BFEF76BFD994A03C29948BE
:1017D000007870B99FED980B53EC102B944890ED66
:1017E000000B51EC100BFEF759FF02D202208D497D
:1017F000087019E3F4E3F4E3F4E3F4E3EEE00AE061
:10180000FFE7FFF744FC8348006883490861834889
:101810000068486108E38248008880B2014613905E
:10182000169806F067FD7F480078012800D1FBE29A
:10183000784800687849886178480068C861084637
:1018400090ED060AF8EE400A90ED040AB8EE401A50
:1018500080EE810A8DED0F0A0F98FEF70BFFCDE9A0
:1018600010019DED100B09F067FC8DED120B9DED45
:10187000120B51EC100B81F00041714A03C26B480E
:1018800090ED0A0B8DED000B6D4890ED000B53ECC5
:10189000102B9DED000B51EC100BFEF7A8FDCDE9D0
:1018A0000201624890ED080B8DED000B9DED000BE1
:1018B00053EC102B9DED020B51EC100BFEF7F0FCDE
:1018C000CDE904015E4890ED000B53EC102B9DED2B
:1018D000040B51EC100BFEF78AFDCDE906015348CD
:1018E00090ED060B8DED040B9DED040B53EC102BCE
:1018F0009DED060B51EC100BFEF7D2FCCDE9080173
:101900004F4890ED000B53EC102B9DED080B51EC64
:10191000100BFEF76CFDCDE90A01444890ED040B75
:101920008DED080B9DED080B53EC102B9DED0A0B74
:1019300051EC100BFEF7B4FCCDE90C01404890EDE2
:10194000000B53EC102B9DED0C0B51EC100BFEF724
:101950004EFDCDE90E01354890ED020B8DED0C0BDF
:101960009DED0C0B53EC102B9DED0E0B51EC100B61
:10197000FEF796FCCDE91001314890ED000B53ECD9
:10198000102B9DED100B51EC100BFEF730FDCDE947
:101990001201264890ED000B8DED100B9DED100B04
:1019A00053EC102B9DED120B51EC100BFEF778FC55
:1019B000244A03C21F48007878B99FED1F0B53ECEF
:1019C000102B204890ED000B51EC100BFEF766FE3B
:1019D00003D2032013490870AFE3AEE3FFF792FA96
:1019E0000C4800680C4908620C48006848620846C8
:1019F00000680590FEF7EDFD9FED0F0B53EC102BEB
:101A0000CDE906019DED060B51EC100BFEF7EFFC46
:101A10001AE000006012002040150020641200202F
:101A2000F80000205C12002060010020000100206E
:101A300070010020FC000020000000000000E03FDA
:101A40006801002078010020CDE90A01FB48006907
:101A50000590FEF7BEFD1FED080B53EC102BCDE9F2
:101A600006019DED060B51EC100BFEF7C0FCCDE915
:101A700008019DED0A0B53EC102B9DED080B51EC6A
:101A8000100BFEF70DFCCDE90C019DED0C0B51EC9C
:101A9000100BFEF733FE00EE100AE848D0ED020A04
:101AA000B8EE601AC1EE000ACDED0F0A0F98FEF7EE
:101AB000E1FDCDE910019DED100B09F03DFB8DED31
:101AC000120B9DED120B51EC100B81F00041DC4A22
:101AD00003C2DC4890ED0A0B8DED000BD84890ED69
:101AE000000B53EC102B9DED000B51EC100BFEF78F
:101AF0007EFCCDE90201D34890ED080B8DED000B83
:101B00009DED000B53EC102B9DED020B51EC100BD7
:101B1000FEF7C6FBCDE90401C94890ED000B53EC7C
:101B2000102B9DED040B51EC100BFEF760FCCDE982
:101B30000601C44890ED060B8DED040B9DED040BE2
:101B400053EC102B9DED060B51EC100BFEF7A8FB90
:101B5000CDE90801BA4890ED000B53EC102B9DED38
:101B6000080B51EC100BFEF742FCCDE90A01B54819
:101B700090ED040B8DED080B9DED080B53EC102B35
:101B80009DED0A0B51EC100BFEF78AFBCDE90C0121
:101B9000AB4890ED000B53EC102B9DED0C0B51EC72
:101BA000100BFEF724FCCDE90E01A64890ED020BC8
:101BB0008DED0C0B9DED0C0B53EC102B9DED0E0BD6
:101BC00051EC100BFEF76CFBCDE910019C4890ED39
:101BD000000B53EC102B9DED100B51EC100BFEF78E
:101BE00006FCCDE91201974890ED000B8DED100B2E
:101BF0009DED100B53EC102B9DED120B51EC100BC7
:101C0000FEF74EFB904A03C28C48006A0590FEF72F
:101C1000E0FC9FED8E0B53EC102BCDE906019DED02
:101C2000060B51EC100BFEF7E2FBCDE90A018348ED
:101C300000690590FEF7CDFC9FED860B53EC102B51
:101C4000CDE906019DED060B51EC100BFEF7CFFB25
:101C5000CDE908019DED0A0B53EC102B9DED080B0F
:101C600051EC100BFEF71CFBCDE90C019DED0C0BAC
:101C700051EC100BFEF742FD00EE100A6F48D0ED5C
:101C8000060AB8EE601AC1EE000ACDED0F0A0F98F1
:101C9000FEF7F0FCCDE910019DED100B09F04CFAB8
:101CA0008DED120B9DED120B51EC100B81F00041EC
:101CB0006A4A03C2634890ED0A0B8DED000B67483A
:101CC00090ED000B53EC102B9DED000B51EC100B25
:101CD000FEF78DFBCDE902015A4890ED080B8DED22
:101CE000000B9DED000B53EC102B9DED020B51EC06
:101CF000100BFEF7D5FACDE90401584890ED000B22
:101D000053EC102B9DED040B51EC100BFEF76FFB09
:101D1000CDE906014B4890ED060B8DED040B9DEDD2
:101D2000040B53EC102B9DED060B51EC100BFEF742
:101D3000B7FACDE90801494890ED000B53EC102BA0
:101D40009DED080B51EC100BFEF751FBCDE90A019C
:101D50003C4890ED040B8DED080B9DED080B53EC0A
:101D6000102B9DED0A0B51EC100BFEF799FACDE903
:101D70000C013A4890ED000B53EC102B9DED0C0B31
:101D800051EC100BFEF733FBCDE90E012D4890ED21
:101D9000020B8DED0C0B9DED0C0B53EC102B9DED00
:101DA0000E0B51EC100BFEF77BFACDE910012B481E
:101DB00090ED000B53EC102B9DED100B51EC100B24
:101DC000FEF715FBCDE912011E4890ED000B8DEDDD
:101DD000100B9DED100B53EC102B9DED120B51ECE5
:101DE000100BFEF75DFA1E4A03C21D4890ED000B72
:101DF00053EC102B144890ED000B51EC100BFEF738
:101E0000F0FA9FED180B53EC102BCDE910019DED6E
:101E1000100B51EC100BFEF759FC27D2104890ED37
:101E2000000B53EC102B00E087E1074890ED000B0E
:101E300051EC100BFEF7D5FA2CE000004015002005
:101E40006001002000010020700100203333333393
:101E50003333D33F666666666666E63F68010020F8
:101E6000780100200000000000000000FE4890ED16
:101E7000000B53EC102BFD4890ED000B51EC100BB8
:101E8000FEF7AFFACDE910019DED100B51EC100BF0
:101E900081F000419FEDF60B53EC102BCDE91201C0
:101EA0009DED120B51EC100BFEF710FC78D2F248AE
:101EB0000078012803D0F0480078042870D1012070
:101EC000EE4908709FEDEE0B53EC102BE74890EDB8
:101ED000000B51EC100BFEF7E1FB0BD39FEDE80B71
:101EE00053EC102BE04890ED000B51EC100BFEF77B
:101EF000D5FB06D29FEDE40BE54880ED000B23E017
:101F00001AE19FEDE40B53EC102BD84890ED000B39
:101F100051EC100BFEF7DAFB11D29FEDDE0B53EC08
:101F2000102BD14890ED000B51EC100BFEF7CEFBBF
:101F300005D29FEDDA0BD64880ED000B04E09FED53
:101F4000D90BD34880ED000BC74890ED000B53EC44
:101F5000102BC64890ED000B51EC100BFEF7B6FBB2
:101F60001FD2C24890ED000B53EC102BBE4890EDF1
:101F7000000B51EC100BFEF7ACFACDE91201C4488E
:101F800090ED000B53EC102B9DED120B51EC100B50
:101F9000FEF72DFAC54A03C20120C549087026E0A4
:101FA00022E0B14890ED000B53EC102BAF4890EDC0
:101FB000000B51EC100BFEF78CFACDE91201B4487E
:101FC00090ED000B53EC102B9DED120B51EC100B10
:101FD000FEF70DFAB54A03C20020B549087006E0C5
:101FE00092E050E045E003E00020A4490870A4E03E
:101FF000A2480078012824D1AD48007880B1AD48CE
:10200000008880B2139016980A30C0B20122129054
:10201000A64890ED000BDDE9120105F0A1FE20E0DD
:10202000A448008880B2139016980A30C0B20122EA
:102030001290974890ED000BDDE9120105F090FE3B
:102040000FE09C48008880B2139016980A30C0B206
:10205000012212908E4890ED000BDDE9120105F08F
:102060007FFE954800689549886295480068C86277
:1020700063E0FEF747FF9048006890490863904886
:102080000068486359E07D480078012824D18848D9
:10209000007880B18748008880B213901698143079
:1020A000C0B2012212907A4890ED000BDDE91201D6
:1020B00005F056FE20E07F48008880B21390169805
:1020C0001430C0B201221290784890ED000BDDE987
:1020D000120105F045FE0FE07648008880B21390AB
:1020E00016981430C0B201221290694890ED000B8E
:1020F000DDE9120105F034FE6F4800686F4988631E
:102100006F480068C86318E0FEF7FCFEA12007F0E6
:10211000C9FA962007F0C6FA67480068674908645C
:1021200067480068486401229102664801F034F86B
:10213000012006F095FA00E000BF00BF6248007879
:1021400000287CD114980928FBD15C4890ED080A3E
:10215000F8EE400A90ED0C0AB8EE400A70EE800AE4
:10216000806A400000EE100AB8EE401A81EE200AA4
:102170008DED0F0A0F98FEF77DFACDE910019DED68
:10218000100B08F0D9FF8DED120B9DED120B51ECE9
:10219000100B81F000414D4A03C2484890ED0C0AF3
:1021A000F8EE400A90ED100AB8EE400A70EE800A90
:1021B000806B400000EE100AB8EE401A81EE200A53
:1021C0008DED0F0A0F98FEF755FACDE910019DED40
:1021D000100B08F0B1FF8DED120B9DED120B51ECC1
:1021E000100B81F000413A4A03C2344890ED090ACD
:1021F000F8EE400A90ED0D0AB8EE400A70EE800A43
:10220000C06A400000EE100AB8EE401A81EE200AC3
:102210008DED0F0A0F98FEF72DFACDE910019DED17
:10222000100B08F089FF8DED120B9DED120B51EC98
:10223000100B81F00041274A03C2204800E05EE312
:1022400090ED0D0AF8EE400A90ED110AB8EE400A42
:1022500070EE800AC06B400000EE100AB8EE401A23
:1022600081EE200A38E00000780100207001002093
:102270009A9999999999A93FF6010020F7010020B0
:102280009A99999999990140CDCCCCCCCCCCEC3F82
:102290008801002000000000000010400000000045
:1022A0000000E83F9A9999999999E93F80010020A7
:1022B000F4010020F80000206012002040150020EA
:1022C00064120020001C02405C12002090010020DB
:1022D000A0010020980100208DED0F0A0F98FEF755
:1022E000C9F9CDE910019DED100B08F025FF8DED2A
:1022F000120B9DED120B51EC100B81F00041FE4AC8
:1023000003C2FE4890ED0A0B8DED000BFC4890EDEA
:10231000000B53EC102B9DED000B51EC100BFEF756
:1023200066F8CDE90201F54890ED080B8DED000B44
:102330009DED000B53EC102B9DED020B51EC100B9F
:10234000FDF7AEFFCDE90401ED4890ED000B53EC35
:10235000102B9DED040B51EC100BFEF748F8CDE966
:102360000601E64890ED060B8DED040B9DED040B88
:1023700053EC102B9DED060B51EC100BFDF790FF6D
:10238000CDE90801DE4890ED000B53EC102B9DEDDC
:10239000080B51EC100BFEF72AF8CDE90A01D748DB
:1023A00090ED040B8DED080B9DED080B53EC102BFD
:1023B0009DED0A0B51EC100BFDF772FFCDE90C01FE
:1023C000CF4890ED000B53EC102B9DED0C0B51EC16
:1023D000100BFEF70CF8CDE90E01C84890ED020B8A
:1023E0008DED0C0B9DED0C0B53EC102B9DED0E0B9E
:1023F00051EC100BFDF754FFCDE91001C04890EDF2
:10240000000B53EC102B9DED100B51EC100BFDF756
:10241000EEFFCDE91201B94890ED000B8DED100BE8
:102420009DED100B53EC102B9DED120B51EC100B8E
:10243000FDF736FFB34A03C2B04890ED0A0B8DEDAD
:10244000000BB14890ED000B53EC102B9DED000BF1
:1024500051EC100BFDF7CBFFCDE90201A74890ED41
:10246000080B8DED000B9DED000B53EC102B9DED3B
:10247000020B51EC100BFDF713FFCDE90401A2484C
:1024800090ED000B53EC102B9DED040B51EC100B59
:10249000FDF7ADFFCDE90601984890ED060B8DEDF7
:1024A000040B9DED040B53EC102B9DED060B51EC32
:1024B000100BFDF7F5FECDE90801934890ED000BF8
:1024C00053EC102B9DED080B51EC100BFDF78FFF1B
:1024D000CDE90A01894890ED040B8DED080B9DEDC7
:1024E000080B53EC102B9DED0A0B51EC100BFDF774
:1024F000D7FECDE90C01844890ED000B53EC102B76
:102500009DED0C0B51EC100BFDF771FFCDE90E01A9
:102510007A4890ED020B8DED0C0B9DED0C0B53ECFE
:10252000102B9DED0E0B51EC100BFDF7B9FECDE914
:102530001001754890ED000B53EC102B9DED100B26
:1025400051EC100BFDF753FFCDE912016B4890EDF4
:10255000000B8DED100B9DED100B53EC102B9DED32
:10256000120B51EC100BFDF79BFE684A03C2684842
:1025700090ED0A0B8DED000B664890ED000B53ECCF
:10258000102B9DED000B51EC100BFDF730FFCDE94A
:1025900002015F4890ED080B8DED000B9DED000BE7
:1025A00053EC102B9DED020B51EC100BFDF778FE58
:1025B000CDE90401574890ED000B53EC102B9DED35
:1025C000040B51EC100BFDF712FFCDE9060150484A
:1025D00090ED060B8DED040B9DED040B53EC102BD1
:1025E0009DED060B51EC100BFDF75AFECDE90801ED
:1025F000484890ED000B53EC102B9DED080B51EC6F
:10260000100BFDF7F4FECDE90A01414890ED040BF3
:102610008DED080B9DED080B53EC102B9DED0A0B77
:1026200051EC100BFDF73CFECDE90C01394890ED63
:10263000000B53EC102B9DED0C0B51EC100BFDF728
:10264000D6FECDE90E01324890ED020B8DED0C0B5C
:102650009DED0C0B53EC102B9DED0E0B51EC100B64
:10266000FDF71EFECDE910012A4890ED000B53EC5A
:10267000102B9DED100B51EC100BFDF7B8FECDE9C2
:102680001201234890ED000B8DED100B9DED100B0A
:1026900053EC102B9DED120B51EC100BFDF700FECF
:1026A0001D4A03C21A4890ED0A0B8DED000B12482B
:1026B00090ED000B53EC102B9DED000B51EC100B2B
:1026C000FDF795FECDE90201114890ED080B8DED67
:1026D000000B9DED000B53EC102B9DED020B51EC0C
:1026E000100BFDF7DDFDCDE90401034890ED000B73
:1026F00053EC102B12E00000A80100200001002084
:1027000090010020C0010020A0010020D001002085
:102710003001002098010020C80100209DED040B2D
:1027200051EC100BFDF763FECDE90601754890ED05
:10273000060B8DED040B9DED040B53EC102B9DED62
:10274000060B51EC100BFDF7ABFDCDE908016E480F
:1027500090ED000B53EC102B9DED080B51EC100B82
:10276000FDF745FECDE90A01664890ED040B8DEDBD
:10277000080B9DED080B53EC102B9DED0A0B51EC53
:10278000100BFDF78DFDCDE90C015F4890ED000BBE
:1027900053EC102B9DED0C0B51EC100BFDF727FEAD
:1027A000CDE90E01574890ED020B8DED0C0B9DED20
:1027B0000C0B53EC102B9DED0E0B51EC100BFDF799
:1027C0006FFDCDE91001504890ED000B53EC102B3C
:1027D0009DED100B51EC100BFDF709FECDE9120138
:1027E000484890ED000B8DED100B9DED100B53EC58
:1027F000102B9DED120B51EC100BFDF751FD434AD0
:1028000003C29FED430B53EC102B434890ED000B9C
:1028100051EC100BFDF7EBFDCDE910013F4890EDB9
:10282000000B53EC102B9DED100B51EC100BFDF732
:1028300050FE9FED3B0B53EC102BCDE912019DEDAB
:10284000120B51EC100BFDF7D2FD374A03C29FED7E
:10285000300B53EC102B2D4890ED000B51EC100B6E
:10286000FDF7C5FDCDE91001304890ED000B53ECAC
:10287000102B9DED100B51EC100BFDF72AFE9FED78
:10288000280B53EC102BCDE912019DED120B51ECEE
:10289000100BFDF7ACFD264A03C2234890ED000B58
:1028A00053EC102B224890ED000B51EC100BFDF770
:1028B00098FD9FED170B53EC102BCDE90E019DED0C
:1028C0000E0B51EC100BFDF792FD9FED1A0B53EC24
:1028D000102BCDE910019DED100B51EC100BFDF705
:1028E000F8FDCDE912019DED120B51EC100BFDF737
:1028F00089FE00B21149088000201149087017B004
:1029000000BD000030010020A8010020D8010020F7
:102910000000000000005940C8010020C001002054
:102920000000000000002440E0010020D001002051
:10293000E801002026C79DD2C1FAF13FF001002036
:10294000FE01002010B504F00FFE10BD0246094B39
:102950009A4201D2084801E00648103801F00053BD
:102960001BB1064B0B40C36002E0044B0B4083607D
:102970007047000010640240006002407D0F7D0F30
:1029800021B1026842F00102026003E0026822F015
:10299000010202607047000010B500220268134B6C
:1029A0001A40CC680B6823434C6923438C6923434A
:1029B000CC6923430C6A23434C6A23438C6A234328
:1029C0004C6B23438C6B23431A430260426922F011
:1029D0000702D1E90B3423431A4342610B69436078
:1029E0004B6883608B68C36010BD00003F801CF0A3
:1029F0007047000038B500F0B9F900F075F900F043
:102A0000D9F858485849C8603220488078208880D2
:102A10001E20C880088101200875544854A10988E7
:102A2000018051490861084602F038FC4D4851497F
:102A3000C86032204880F02088801E20C88008812D
:102A40000120087549484CA109880180494908615D
:102A5000084602F023FC00204FF4E173462278215F
:102A600000904FF4967002F0FFFD00204FF4E173E8
:102A70004622F02100904FF4967002F0F5FD002000
:102A800082231E2278210090084602F0EDFD0020EE
:102A900082231E22F0210090782002F0E5FD002420
:102AA0001AE00020162204FB02F1009001F132002E
:102AB00017231422AA2102F0D7FD0020162204FBBE
:102AC00002F1009001F13200172314224FF49171AA
:102AD00002F0CAFD601CC4B2092CE2DB214B27A224
:102AE0003C21322002F03EF91E4B26A23C21A020C0
:102AF00002F038F91B4B25A23C2140F2DB1002F01A
:102B000031F925482549C860322048804FF4B47017
:102B100088802D20C8805A2008810020087520A1B7
:102B20001248FDF7A5FB11481C490861084602F050
:102B3000B5FB19481C49C860A02048804FF4B47008
:102B400088802D20C8805A2008810020087517A190
:102B50000648FDF78DFB054813490861084602F059
:102B60009DFB38BD08020020801A0020C81A0020F2
:102B700031000000A41A002032000000CDA8B5C02A
:102B8000BAC50000D0D5C3FB00000000BCECB2E227
:102B9000BDE1B9FB0000000000020020381A00204F
:102BA000B2E2C1BF000000005C1A0020B7B5BBD87C
:102BB0000000000008B547480088B0F5F07F2DD12F
:102BC00045480088B0F5887F28D1444844490988A1
:102BD00050F8310088B941484149098800EBC100EB
:102BE000808800903C480088283882B239480388A1
:102BF0001421002002F0CCFD6BE0384838490988E8
:102C000050F83100009034480088283882B23148AA
:102C100003881421002002F011FA5AE02D480088A0
:102C2000B0F5F07F2DD12C480088B0F5A07F28D1D9
:102C30002A482B49098850F8310088B92948284981
:102C4000098800EBC100808800902348008828385C
:102C500082B2204803881421002002F099FD38E058
:102C600020481F49098850F8310000901A48008810
:102C7000283882B2174803881421002002F0DEF9B8
:102C800027E018481649098850F8310088B91548D6
:102C90001349098800EBC100808800900E48008825
:102CA000283882B20B4803881421002002F070FDFE
:102CB0000FE00C480A49098850F831000090064896
:102CC0000088283882B2034803881421002002F0CB
:102CD000B5F908BDD0120020CE120020F4D10008B2
:102CE000F60000202CD200080EB50020ADF804003C
:102CF0004FF6FF70ADF8060040F24D20ADF8080029
:102D00000020ADF80A0040F24D20009009480088EC
:102D1000143881B2084803881422002002F038FDDC
:102D200004480088123881B201AB04A2052002F0E9
:102D300019F80EBDCE120020D0120020CEC2B6C8A7
:102D40003A20202054613D20202020203B54623D29
:102D500020202020203B5461623D20202020203B69
:102D60005463643D20202020203B00000EB500204D
:102D7000ADF804004FF6FF70ADF8060040F24D20AC
:102D8000ADF808000020ADF80A0040F24D20009098
:102D90000648038814220021084602F0F9FC01AB22
:102DA00003A20221052001F0DDFF0EBDD01200209C
:102DB000B0B2BBD5D1F8BACDD2BDC1C6C6F7D0B579
:102DC000C9E8B1B8D3D0CFDEB9ABCBBE20285631DD
:102DD0002E30290010B5802000F062F810B31248A0
:102DE000007801281BD1114800881149098808443E
:102DF00000F5FA700F49088000220121880705F0CC
:102E000098FE00214FF0804005F05EFE0A48006801
:102E100020F08000084908600120084908708020DF
:102E200000F00EF810BD00005B1200204A120020D6
:102E3000581200204C120020003C01406912002072
:102E40000149086070470000143C01401FB5012192
:102E5000880304F017FB8020029000208DF80C00FE
:102E60008DF80E008DF80F0002208DF80D0002A9DC
:102E70000A4800F019F90721032004F051FF8020CF
:102E8000009000208DF8040008208DF80500012036
:102E90008DF80600684600F00FF81FBD000C0240D8
:102EA00001460020034A12680A400AB1012000E0EE
:102EB00000207047143C0140002123498279002AF8
:102EC0003AD00A46126803689A430B461A600A1DF4
:102ED000126803689A430B1D1A60027911440A684C
:102EE00003681A430A60184A0832126803689A4352
:102EF000154B08331A601A1D126803689A43124B67
:102F00000C331A604279102A0ED11A1F1268036816
:102F10001A430D4B08331A601A1D126803681A43CE
:102F2000094B0C331A600DE00749427911440A68D5
:102F300003681A430A6005E0027911440A680368CD
:102F40009A430A6070470000003C014051B1820082
:102F5000A2F1C042126842F001038200A2F1C04215
:102F6000136009E08200A2F1C0421268034B1A40CC
:102F70008300A3F1C0431A6070470000FEFF0F00FA
:102F80000021D0E901231A43C3681A4303691A4395
:102F900043691A4383691A43C3691A43036A1A438C
:102FA000436A1A43836A1A43C36A1A43036B1A4378
:102FB000436B1A4303689B00A3F1C0431A60826805
:102FC000082A0BD102689200A2F1C042126842F0B6
:102FD000400302689200A2F1C0421360426BB2F556
:102FE000801F19D10268BAB14FF02042526822F412
:102FF00070014FF020421268436B1A434FF0204398
:103000001A601A46126842F480721A60826B128A41
:10301000521E41EA02525A60826B1268836B5B68EF
:1030200042EA0312836B9B6842EA0322836B9B890B
:1030300042EA0342836B1B8A42EA0352836B1B7D85
:1030400042EA0362836B9B691A4303685B1C9B0023
:10305000A3F1C0431A60826AB2F5804F1BD1C26BE4
:103060001268C36B5B6842EA0312C36B9B6842EA57
:103070000322C36B1B8A42EA0352C36B1B7D42EAE5
:103080000362C36B9B691A4303689B00A3F1C043AF
:10309000C3F8042107E06FF0704302689200A2F1C8
:1030A000C042C2F804317047F0B50A46002100233F
:1030B000002400BF3DE0012505FA01F3156805EA8B
:1030C00003049C4234D105684F000326BE40B5433B
:1030D000056015794E00B5400668354305601579E1
:1030E000012D02D01579022D16D185684F000326D7
:1030F000BE40B543856055794E00B540866835437E
:103100008560456801268E40B543456045689679DF
:103110008E40B6B235434560C5684F000326BE40B9
:10312000B543C560D5794E00B540C6683543C56026
:10313000491C1029BFD3F0BDF0B5002300244D0772
:10314000ED0E02FA05F3CE1000F1200555F82650D9
:103150004E07F70E0F26BE40B543CF1000F12006F4
:1031600046F82750CE1000F1200555F8265045EAC4
:103170000304CE1000F1200545F82640F0BD0246BC
:10318000002013690B400BB1012000E000207047C4
:1031900041837047018370470AB1018300E0418396
:1031A0007047000010B500200749487000F042F851
:1031B00004466A22054940F2A26000F00FF901209E
:1031C0000149087010BD00004CA00020E41200204E
:1031D0002DE9F04105460E46174609F00FF8BA20D2
:1031E00008F0E4FF09F034F8281208F0DFFF09F0D6
:1031F0002FF8E8B208F0DAFF09F02AF808F0FEFF2D
:10320000BB2008F0D3FF09F023F8002406E008F003
:10321000ABFF305508F058FF601CC4B2781EA042C6
:10322000F5DC08F0A1FF305508F08AFF08F0FEFF3A
:10323000BDE8F08108B50222694640F21770FFF739
:10324000C7FF9DF801009DF8001000EB012080B23F
:1032500008BD000030B58DB05848007808B90DB0F1
:1032600030BD56484078142800DAF8E7002053496A
:103270004870012201A940F22170FFF7A9FF9DF8D3
:10328000040000F0010070B94D480078012809D110
:1032900000204B4908704B4802884B4801880320A6
:1032A00005F02EFFDBE721220DF1050140F222702F
:1032B000FFF78EFF9DF80400404988709DF80500D7
:1032C000C8709DF807009DF8061000EB01203B49EF
:1032D00088809DF809009DF8081000EB012037490F
:1032E000C8809DF80A0008729DF80C009DF80B102C
:1032F00000EB0120314948819DF80E009DF80D102A
:1033000000EB01202D4988819DF80F0088739DF8FE
:1033100011009DF8101000EB0120284908829DF84B
:1033200013009DF8121000EB0120244948829DF8FB
:10333000140008759DF81C009DF8151000EB012085
:103340001E49C8829DF81E009DF81D1000EB01204B
:103350001A4908839DF81F0088769DF821009DF882
:10336000201000EB0120154988839DF823009DF86B
:10337000221000EB01201149C8839DF8240081F838
:1033800020000846C488808840F2DF11081A85B200
:103390000B48007838B90120094908702A462146AF
:1033A00005F0AEFE04E02A462146022005F0A8FE04
:1033B000054804800348058000BF50E74CA000206A
:1033C0004E13002052130020501300200248407872
:1033D000401C0149487070474CA000202DE9F04185
:1033E00004460E46174608F009FFBA2008F0DEFE34
:1033F00008F02EFF201208F0D9FE08F029FFE0B2F5
:1034000008F0D4FE08F024FF002506E0705D08F007
:10341000CDFE08F01DFF681CC5B2BD42F6DB08F00A
:1034200005FFBDE8F08100002DE9F04FDFF828B17D
:1034300091B04FF0FF35DBF80030B3F92210069160
:10344000DE69B3F92490F469A189814206D8E28942
:10345000824203D3471AD4F8008012E0D4E90181F4
:1034600000296FD00A8882426CD84D88854269D382
:10347000801A82B2486800EB8200B0F90070B0F99F
:103480000250781C5ED0307EA17C10FB01FA217CBA
:10349000CDE90801B3F92A60304602F0DFFAC0B284
:1034A0000E90DBF8000007FB0A81A37C826B0127EA
:1034B000CDE90412CDE90273C069DDE90832C17EAD
:1034C000807ECDE900014946069801F0E3FD681CC5
:1034D00018D046F0020002F0C1FADBF80000A37C2D
:1034E00005FB0A81826BCDE90273CDE90412C06944
:1034F000DDE90832C17E807ECDE9000149460698AB
:1035000001F0C8FDDBF800005D46C069417E007E29
:10351000814214D9022E12D086F0040002F09EFAE5
:103520002868C069027EC37E12FB0391437E857EBC
:10353000099A06984B4402FB050202F0FDF80E982A
:1035400002F08CFADBF80000627C418C114441846B
:1035500011B0BDE8F08F0000F013002004480068AF
:10356000C069C06909B1027C0A60407C70470000F4
:10357000F0130020022008807047C06982898A42C7
:1035800002D8C2898A4210D2806880B102888A42F9
:103590000DD843888B420AD3406800EB8100A0EB32
:1035A0008200B0F90000002801DB012070470020F4
:1035B0007047002801D006F0F7BD704710B500280D
:1035C00014D004460A48006B10F8341000290DD0BE
:1035D00002290BD2042101EBC4014158486806F0CE
:1035E000A7FD2046BDE8104007F050B810BD000010
:1035F00078A00020002805D0034A916B016001B13A
:10360000486090637047000078A0002010B5002447
:1036100006F070FF0C490F2001EBC002126C1AB1CA
:1036200001EBC000006C08E0401EF5D508E04168E1
:10363000A14200D90C46806810B180680028F6D1FC
:10364000A4F10C0010BD000078A0002005498A6993
:10365000521C8A61096B01EBC0010A78521C0A7086
:1036600000F01AB878A000200A4902680B6B52F8E3
:10367000082C03EBC2021378022B03D38B690BB126
:103680005B1E8B611178491E117000210160084694
:103690007047000078A00020002806D003490422CB
:1036A00002EBC000096B08580830704778A0002072
:1036B00070B506460D461446104600F0D7F80300D4
:1036C000164804EB84010AD050F821004168806854
:1036D000711A2A1ABDE87040184600F0B1B900EB23
:1036E0008104A268B24201D0012200E00022E36816
:1036F000AB4201D0012300E000231A430CD0236920
:1037000043B150F82100816840686A1A311A18469E
:1037100000F088F9C4E9026570BD000070A20020C5
:10372000FFF768BF70B590B38269022A30DA1C4C8B
:1037300054F8221019B944F822002FE019464B68BA
:10374000002BFBD106E0CB68C5681B682D68AB4237
:1037500003DD09680029F6D11AE0C1B1CB68C6685B
:103760001B683668B3420CD1838A012B05D008E070
:103770001946DB681B68AB4203DB0B68002BF7D1F3
:1037800029B14B6833B118604A68426004E0FFE732
:10379000012070BD44F8220048600160002070BD27
:1037A0000814002007F0C2BA022801DB002070478D
:1037B000054951F8200004E0C16809680029F6D0E5
:1037C00000680028F8D170470814002008B50B469F
:1037D000002805D0009281888268C08800F001F836
:1037E00008BD10B50828029C30D008DC04FB01F4A9
:1037F00001280AD0022813D0042804D11CE0102884
:1038000028D020282CD0002010BD04EBD30003F0DA
:103810000701105CC1F10701C84000F0010010BDB4
:1038200004EB93000621105C01EA4301C1F106019B
:10383000C84000F0030010BD04EB5300D907105C32
:1038400002D000F00F0010BD000910BD04FB0130D4
:10385000105C10BD481004FB003032F8100010BDA1
:10386000881004FB003052F8200010BD002102280F
:1038700002D2024951F8201008467047CC140020AB
:1038800070B514460D4601F0DBFF002802D0002081
:103890002860206070BD000038B5040018D00D48C5
:1038A0000068006EA04201D100F0C1F82046FFF789
:1038B000CDFE0090406908B100F0C8F9009800689A
:1038C000FFF72EFF6846FFF7CFFE2046FFF776FE94
:1038D00038BD0000F0130020F8B5134E0500306825
:1038E000046E0CD00CB100F0A2F805F0D1FF284610
:1038F000FFF7ACFE009031680A6E1AB106E000F0E6
:1039000096F80EE0D1E90223C1E919230D6600689B
:10391000FFF708FF6846FFF7A7FE02F0D1F802F0B4
:103920006FF82046F8BD0000F013002010B5002805
:1039300021D009B30AB3B1F90040B2F900309C427A
:1039400000DA23460380B1F90240B2F902309C420A
:1039500000DA23464380B1F90440B2F904309C42B6
:1039600000DD23468380B1F90610B2F906209142AA
:1039700000DC1146C18010BD11460A68026049682A
:10398000416010BD00280BD003880B44038083885E
:1039900019448180418811444180C1881144C1800B
:1039A0007047000070B5104D0446D5E9000188420B
:1039B0000ED10E49884203D1D0E90F12406C03E0CA
:1039C0000C38D0E9001280682160C4E9012006E0CB
:1039D00090E80E0084E80E0006F082FD2860207A50
:1039E000002800D0012070BDC4140020E0A10020F8
:1039F0000448D0E90010814201D101207047002025
:103A000070470000C4140020054A10B50349116036
:103A100007F0D2F8BDE8104000F014B81D99000876
:103A200010140020002801D006F04ABF704710B5DE
:103A300001F0A4FF02F044F8BDE8104005F020BFFB
:103A400002F012B802480068002800D00047704712
:103A5000D41400202DE9F047524D534E0024E8695C
:103A600078B96868346000F00501746010F0060FE2
:103A700001D000F00500B460F46006F007FF0120FB
:103A8000E8612878C8B100F0D3F8A846286100F0B2
:103A9000CDF82969286A81420BDBD8F824204046FA
:103AA000914206DC836A42699A4202DBC36A9A4207
:103AB0000DDD4FF0FF3001466FE000F0C1F86861A6
:103AC00000F0B5F82878401C2870BDE8F08732680F
:103AD00098F81800354F8D1A400700283868407C48
:103AE00002DB01F0C3FE01E001F0C3FE401E4543CE
:103AF000D6E90020B146801A95FBF0F6D8F81420DC
:103B0000D9F8081098F81800551A400700283868A6
:103B1000407C02DB01F0ADFE01E001F0A7FE401E9B
:103B20004543D9E90201081A95FBF0F598F8180009
:103B3000400700283868407C18DB01F097FE81467A
:103B40003868407C01F095FED8F818200146D0076F
:103B500004D0A9EB0600A0F1010000E03046920776
:103B600002D5491B491E18E0294616E001F081FEE6
:103B700081463868407C01F079FED8F81820D107DA
:103B800004D0A9EB0601A1F1010100E03146920742
:103B900002D5401B401E00E0284607F039F888F89F
:103BA000004092E71C140020B8A10020F013002070
:103BB000074A002806DB002904DB01231372C2E94F
:103BC000000101E000201072014800F003B800007D
:103BD000C8A1002010B504460C220749FCF73BFBA6
:103BE000002808D0044894E80E000EC02046BDE826
:103BF0001040FFF709BF10BDD4A1002030B40A4C1B
:103C00002268831A01D5C3F1000362688A1A00D5BD
:103C100052421A44022A04DDC4E9000130BCFFF715
:103C2000C7BF30BC704700004C140020704770477D
:103C300010B505F07BFB0148808C10BDD49F00209F
:103C40000148C08C70470000D49F002038B505465D
:103C5000FFF7FCFC00908189491E0CB28481684604
:103C6000FFF702FD002C02D12846FFF7A7FC38BD64
:103C7000704710B5082A0EDC0346012A1AD0022A22
:103C800058D0042A78D010F8042B03F8012B491ED1
:103C9000F9D1012010BD102A0ADC0222022AF8D133
:103CA000024630F8043B22F8023B491EF9D1F0E706
:103CB000002010BD10F8042BD207120E491E34D07C
:103CC00010F8044B491E04F0010442EA84122CD07F
:103CD00010F8044B491E04F0010442EA441224D0B7
:103CE00010F8044B491E04F0010442EA04121CD0EF
:103CF00010F8044B491E04F0010442EAC40214D037
:103D000010F8044B491E04F0010442EA84020CD06E
:103D100010F8044B491E04F0010442EA440204D0A6
:103D200010F8044B04F00104224303F8012B00298E
:103D3000C0D1AEE710F8042B9207120E491E15D021
:103D400010F8044B491E04F0030442EA04120DD09B
:103D500010F8044B491E04F0030442EA840205D023
:103D600010F8044B04F003042243491E03F8012B0E
:103D70000029DFD18DE7FFE710F8042B1207120EA0
:103D8000491E05D010F8044B04F00F042243491ECD
:103D900003F8012B0029EFD17BE7B0F90030B1F92E
:103DA0000020934200DA0280B0F90230B1F902201B
:103DB000934200DA4280B0F90430B1F90420934212
:103DC00000DD8280B0F90620B1F906108A4200DDDC
:103DD000C180704770B5B1F90040B2F900309C4223
:103DE00000DD23460380B1F90250B2F90240A5423A
:103DF00000DD2C464480B1F90460B2F90450AE42B3
:103E000000DA35468580B1F90610B2F906209142F4
:103E100000DB1146C1809D4201DBA14201DA002096
:103E200070BD012070BD000002494A6942604861CE
:103E300070470000E413002010B502E000F8011BF9
:103E4000521E0AB18307F9D1930818D001EB01443F
:103E500002F0030204EB042405E004604460846083
:103E6000C46010301B1F042BF7DA01E010C05B1E8A
:103E7000002BFBD103E000BF00F8011B521E002AFB
:103E8000FAD110BD09A100200BE00A5C124B9A8008
:103E900000BF114A128802F04002002AF9D0421CE9
:103EA000D0B22A28F1D300BFFEE700000D0A456E0C
:103EB00074657220486172644661756C745F486114
:103EC0006E646C65722C2053797374656D20486143
:103ED0006C742E0D0A0000000010014021B1828B8D
:103EE00042F48062828304E0828B4FF6FF331A40F3
:103EF000828370472DE9F04F00250223002401271B
:103F000000220026944690469146B0F81CA04FF23D
:103F1000400B0AEA0B0AA0F81CA04FF0020AA0F816
:103F200020A0858BD1F808A0BAF1020F01D100BF03
:103F30006CE0B1F804A0BAF1000F01D1012700E054
:103F40000227DFF810A1DAF800A00AF4000ABAF19B
:103F5000000F09D0DFF8FCA0DAF800A02AF4000A6C
:103F6000DFF8F0B0CBF800A0DFF8E8A00AF17C0A97
:103F7000DAF800A0CAF38818DFF8D8A00AF17C0AA2
:103F8000DAF800A0CAF30279DFF8C8A0AAF1040A9F
:103F9000DAF800A00AF03F0CDFF8BCA0BAFBFCFA8C
:103FA0000AFB08FABAFBF9F6B1F806A0BAF5007FE9
:103FB0000ED14FEA162A0AEB8A0A4FEA4A0AD1F8CA
:103FC00008B0BAFBFBFA0AF1050A1FFA8AF20FE001
:103FD0004FEA471AB6FBFAFA0AEB8A0A4FEA4A0A8C
:103FE000D1F808B0BAFBFBFA0AF1050A1FFA8AF207
:103FF0004FF00A0AB2FBFAF202F00104A2EB040A43
:10400000CAF34F034FF6FF7A0AEA0424022B01DBBE
:10401000FF2B01DD02230024B1F806A04AEA040ABE
:104020004AEA030AA0F820A0B1F804A0B1F80CB045
:104030004AEA0B0AB1F802B04AEA0B0AB1F800B03A
:104040004AEA0B0A4AF4006A4AEA05058583BDE894
:10405000F08F00000838024040787D0170B50446BA
:1040600012480388124802880021084600F010FA1E
:104070002C204FF0D84108800D4909880B4A12883E
:1040800001FB02F0C11700EB5171CE10002509E0D1
:104090000848048004800480048004800480048034
:1040A00004806D1CB542F3D370BD0000D012002017
:1040B000CE1200200000086C2DE9F04780468946AA
:1040C00014461D46DDF820A000262B462246494610
:1040D000404600F0DDF9574600BF06E037F8022BF6
:1040E0004946404600F02CF9761C04FB05F0B0422E
:1040F000F4D800F037F9BDE8F0872DE9F04F87B02C
:1041000004460D4616461F4629462046109A00F0E2
:1041100017F9B44204D1BD4202D107B0BDE8F08F17
:1041200000200290A64202DBA6EB040801E0A4EB0B
:104130000608AF4202DBA7EB050901E0A5EB070982
:10414000C8450CDA0121029120462C46054630462E
:104150003E4607461FFA88F0C846814600BFA64281
:1041600001DD012001E04FF0FF300690AF4201DD9C
:10417000012001E04FF0FF300590A24601954FEA83
:1041800049000490A9EB0800400003900498A0EBBC
:10419000080B1EE0BBF1000F02DA0498834405E02F
:1041A000059901980844019003988344029838B116
:1041B0001FFA8AF1019A90B2109A00F0C1F806E055
:1041C000019A91B21FFA8AF0109A00F0B9F8069895
:1041D0008244B245DED100BF9FE72DE9F843044693
:1041E0000D4616461F46DDF82080E019401E82B2BB
:1041F0002B4629462046CDF80080FFF77EFFA81900
:10420000401E83B2E019401E82B2A819401E81B23E
:104210002046CDF80080FFF770FFA819401E83B23A
:10422000224629462046CDF80080FFF766FFA919EF
:104230008BB2E119491E8AB2E119491E88B229469A
:10424000CDF80080FFF759FFBDE8F8832DE9F0476E
:104250000746884614461D46DDF820902B46224628
:104260004146384600F014F92C204FF0D841088020
:10427000002603E00448A0F80090761C04FB05F03B
:10428000B042F7D8BDE8F0870000086C2DE9F04196
:1042900004460D460026B04600272946204600F079
:1042A00095F82E204FF0D8410880084806880688E7
:1042B0000788B0F80080F012C0024FEAA82140EA57
:1042C000411040EAE720BDE8F08100000000086CE2
:1042D00010B500F055F804461648844228D100F085
:1042E0006FFB00201449087012220121084600F0DB
:1042F00027F801210846FFF7C9FF1049088034223A
:104300000121084600F01CF801210846FFF7BEFF16
:104310000A49088056220121084600F011F80121BF
:104320000846FFF7B3FF0549088049F28840088036
:1043300010BD00006680540055130020CC120020F0
:1043400070B505460E4614463146284600F03EF844
:104350002C204FF0D84108800148048070BD000037
:104360000000086C10B50448038804480288002146
:10437000084600F08DF810BDD0120020CE120020AB
:1043800008B504204FF0D84108800F480088C0B21B
:104390008DF800000C480088C0B28DF801000A4872
:1043A0000088C0B28DF8020007480088C0B28DF8BE
:1043B00003009DF8010000049DF8021000EB0120AD
:1043C0009DF80310084408BD0000086C70B5044651
:1043D0000D462A2000F08CF8201200F08DF8E0B293
:1043E00000F08AF8201200F087F8E0B200F084F8BC
:1043F0002B2000F07DF8281200F07EF8E8B200F0E3
:104400007BF8281200F078F8E8B200F075F870BD7B
:1044100010B50446362000F06BF85CB9A82000F017
:104420006BF84FF4A070184908804FF4F0701749EA
:10443000088028E0012C0BD1682000F05DF84FF4D3
:10444000A070114908804FF4F070104908801AE0FC
:10445000022C0BD1C82000F04FF84FF4F0700A493D
:1044600008804FF4A070094908800CE0032C0AD1A1
:10447000082000F041F84FF4F070034908804FF431
:10448000A0700249088010BDCE120020D01200207A
:104490002DE9F04104460D4616461F462A2000F03D
:1044A00027F8201200F028F8E0B200F025F8E11912
:1044B000491EC1F3072000F01FF8E119491EC8B2D8
:1044C00000F01AF82B2000F013F8281200F014F86E
:1044D000E8B200F011F8A919491EC1F3072000F055
:1044E0000BF8A919491EC8B200F006F8BDE8F08122
:1044F0004FF0D8410880704701490880704700009C
:104500000000086C10B50021084603F0B3FA4FF420
:104510008071012003F0AEFA4FF48071022003F0A5
:10452000A9FA41F21801032003F0A4FA40F60801A9
:10453000082003F09FFA0121092003F09BFA1021C3
:104540000B2003F097FA00210C2003F093FA0021CE
:104550000F2003F08FFA0121072003F08BFA1321BB
:10456000102003F087FA40F20151112003F082FA83
:104570004FF44071122003F07DFA40F21E212020FA
:1045800003F078FA40F20221212003F073FA4FF48D
:104590000041902003F06EFA41F2B0714FF4807048
:1045A00003F068FA40F2471140F2011003F062FA9A
:1045B00040F235114FF4817003F05CFA4FF4E06182
:1045C00040F2031003F056FA002140F2071003F006
:1045D00051FA01214FF4887003F04CFA00214FF496
:1045E000047003F047FAEF2140F2112003F042FA81
:1045F000002140F2122003F03DFA40F28F1140F208
:10460000132003F037FA00214FF4207003F032FA40
:10461000042140F2812003F02DFA002140F2822093
:1046200003F028FA40F201114FF4407003F022FA2F
:1046300040F62C3140F2013003F01CFA41F2300117
:1046400040F2023003F016FA43F2100140F2033058
:1046500003F010FA42F60B414FF4417003F00AFAEE
:1046600040F2011140F2053003F004FA40F6070170
:1046700040F2063003F0FEF94FF4E16140F20730FA
:1046800003F0F8F940F207114FF4427003F0F2F929
:1046900040F2051140F2093003F0ECF940F60471E4
:1046A00040F20A3003F0E6F94FF4706140F20B304B
:1046B00003F0E0F90F214FF4437003F0DBF940F20F
:1046C0000F4140F20D3003F0D5F94FF4407140F244
:1046D0000E3003F0CFF940F2017140F20F3003F0D9
:1046E000C9F94FF454514FF4806003F0C3F901212C
:1046F00040F2014003F0BEF9002140F2044003F013
:10470000B9F900214FF4A06003F0B4F9002140F2A0
:10471000015003F0AFF9002140F2025003F0AAF972
:10472000002140F2035003F0A5F9002140F20450AB
:1047300003F0A0F9002140F2055003F09BF900219D
:104740004FF4C06003F096F9002140F2066003F0D8
:1047500091F900214FF4DE6003F08CF945F220411D
:104760004FF4FE6003F086F9002140F2DE7003F0A2
:1047700081F9DF2140F2F27003F07CF94FF401611E
:1047800040F2F37003F076F9772140F2F47003F011
:1047900071F9212140F2F57003F06CF900214FF41A
:1047A000FE6003F067F940F27311072003F062F92D
:1047B00000214FF4047003F05DF9EF2140F2112065
:1047C00003F058F9002140F2122003F053F940F2AF
:1047D0008F1140F2132003F04DF910BD10B50021E8
:1047E000084603F047F90021084603F043F9002189
:1047F000084603F03FF90021084603F03BF902F0B8
:1048000049FF40F60801082003F034F9102108465A
:1048100003F030F94FF4C4414FF4806003F02AF9FB
:1048200040F606414FF4407003F024F949F60F5169
:1048300040F2013003F01EF940F6053140F202303B
:1048400003F018F941F2172140F2033003F012F996
:1048500043F233314FF4417003F00CF941F212711D
:1048600040F2053003F006F949F20B5140F20630F0
:1048700003F000F940F60D7140F2073003F0FAF84A
:1048800040F20C614FF4427003F0F4F8002140F262
:10489000093003F0EFF840F20221112003F0EAF8AA
:1048A00040F20111122003F0E5F80121132003F07A
:1048B000E1F80121072003F0DDF84FF4E6614FF441
:1048C000807003F0D7F840F2372140F2011003F076
:1048D000D1F84FF42C5140F2031003F0CBF84FF411
:1048E00080414FF4207003F0C5F848F2B0114FF446
:1048F000817003F0BFF802F0CDFE4FF4807101200B
:1049000003F0B8F84FF48071022003F0B3F841F2DD
:104910001801032003F0AEF80121092003F0AAF8E2
:1049200000210C2003F0A6F84FF40041902003F082
:10493000A1F800210F2003F09DF800214FF404702E
:1049400003F098F8EF2140F2112003F093F80021D2
:1049500040F2122003F08EF840F28F1140F2132043
:1049600003F088F800214FF4A06003F083F80021E1
:1049700040F2015003F07EF85F2140F2025003F054
:1049800079F8012140F2014003F074F8002140F26F
:10499000044003F06FF802F07DFE4FF480710720B1
:1049A00003F068F802F076FE00214FF4007003F087
:1049B00061F8002140F2012003F05CF810BD000016
:1049C00010B5F720FFF794FDA920FFF795FD5120C2
:1049D000FFF792FD2C20FFF78FFD8220FFF78CFD63
:1049E000C020FFF785FD1120FFF786FD0920FFF7A6
:1049F00083FDC120FFF77CFD4120FFF77DFDC52031
:104A0000FFF776FD0020FFF777FD0A20FFF774FD22
:104A10008020FFF771FDB120FFF76AFDB020FFF79E
:104A20006BFD1120FFF768FDB420FFF761FD022048
:104A3000FFF762FDB620FFF75BFD0220FFF75CFD8C
:104A40002220FFF759FDB720FFF752FDC620FFF7E0
:104A500053FDBE20FFF74CFD0020FFF74DFD042065
:104A6000FFF74AFDE920FFF743FD0020FFF744FD73
:104A70000020FFF7CDFC3A20FFF73AFD5520FFF765
:104A80003BFDE020FFF734FD0020FFF735FD072058
:104A9000FFF732FD1020FFF72FFD0920FFF72CFD57
:104AA0001720FFF729FD0B20FFF726FD4120FFF718
:104AB00023FD8920FFF720FD4B20FFF71DFD0A2075
:104AC000FFF71AFD0C20FFF717FD0E20FFF714FD6E
:104AD0001820FFF711FD1B20FFF70EFD0F20FFF739
:104AE0000BFDE120FFF704FD0020FFF705FD172077
:104AF000FFF702FD1A20FFF7FFFC0420FFF7FCFC84
:104B00000E20FFF7F9FC0620FFF7F6FC2F20FFF739
:104B1000F3FC4520FFF7F0FC4320FFF7EDFC0220FB
:104B2000FFF7EAFC0A20FFF7E7FC0920FFF7E4FCA7
:104B30003220FFF7E1FC3620FFF7DEFC0F20FFF705
:104B4000DBFC1120FFF7D4FC782006F035FD29208E
:104B5000FFF7CEFC04480388044802880021084679
:104B6000FFF796FC10BD0000D0120020CE120020EE
:104B700010B580210148FEF702FB10BD000C024079
:104B800070B5034643EA0340084E00EA060441EAD2
:104B9000014000EA0605281B504304EB501000EAD0
:104BA000060545EA154080B270BD00001FF8E00719
:104BB00010B504460A480088752803D1204601F044
:104BC00033FE0CE00648008849F28841884203D150
:104BD0002046FFF743FA02E0204602F03DFD10BDFB
:104BE000CC1200200449054A0968497C52F821107A
:104BF0000969096808470000F01300200814002024
:104C00001CB50121084602F00DFC0121582002F0DC
:104C1000F9FB0C2200215048FEF78EFA0C220121EC
:104C20004D48FEF789FA0C2204214B48FEF784FA1E
:104C30000C2205214848FEF77FFA0C22082146483D
:104C4000FEF77AFA0C2209214348FEF775FA0C2286
:104C50000A214148FEF770FA0C220E213E48FEF769
:104C60006BFA0C220F213C48FEF766FA4CF23370C7
:104C7000009002208DF8040003208DF8050000202C
:104C80008DF806008DF8070069463348FEF70CFAE8
:104C90000C2207213148FEF74FFA0C2208212F4839
:104CA000FEF74AFA0C2209212C48FEF745FA0C229D
:104CB0000A212A48FEF740FA0C220B212748FEF76A
:104CC0003BFA0C2211462548FEF736FA0C220D213C
:104CD0002248FEF731FA0C220E212048FEF72CFA6A
:104CE0000C220F211D48FEF727FA4FF68070009026
:104CF00069461A48FEF7D8F90C220D211648FEF72E
:104D00001BFA4FF40050009002208DF8040003209D
:104D10008DF8050000208DF806008DF80700694623
:104D20000D48FEF7C1F90C2211460D48FEF704FAB2
:104D30004FF48050009002208DF8040003208DF87D
:104D4000050000208DF806008DF80700694604482C
:104D5000FEF7AAF91CBD0000000C02400010024042
:104D6000001802402DE9FF4FADF29C4D93461D46C1
:104D70000027288801280CD10C20A2490870A249DC
:104D800008701820A1490880A14E4FF00208A14CDC
:104D90004DE0288802280CD118209A4908709A49B9
:104DA00008704820994908809B4E4FF003089B4C9F
:104DB0003DE0288803280DD130209249087092499F
:104DC00008704FF4907091490880954E4FF0060896
:104DD000944C2CE0288804280CD140208949087084
:104DE00089490870C000894908808D4E4FF0080835
:104DF0008D4C1CE0288805280DD160208149087061
:104E0000814908704FF4906080490880844E4FF0CB
:104E10000C08864C0BE010207A4908707A4908701B
:104E200020207A490880824E4FF00208814CDEE053
:104E30009BF80090B9F1800F42DA74480088482846
:104E40000DD1A9F1200000EB400006EB001130224B
:104E500005A8FBF7C7F91020774908706BE06B488D
:104E60000088B0F5007F0FD1A9F1200000EBC00051
:104E700006EB0011902205A8FBF7B4F918206E4943
:104E800008704FF0060856E06048008802905F48BE
:104E90000088019000EBD0704310A9F1200000FBC6
:104EA0000361029800EBD070421005A8FBF79AF955
:104EB0005549087800EBD07149105F4A11703AE00B
:104EC0000BF1010083460078CDF89404DDF89404DA
:104ED00000B991E04FF0000A27E04C480088801CA0
:104EE0000AFB00F70AF101001FFA80FAE05D48456D
:104EF0000DD1781C215CDDF89404814207D1BF1CE0
:104F0000E1194248028805A8FBF76CF90EE0E05D64
:104F1000FF280AD1781C205CFF2806D1FF223B48DD
:104F2000018805A8FBF77EF900E0D6E700BF364808
:104F3000007841490870DDF8A00403904FF0000AA2
:104F400045E0DDF89C0404900020CDF8980430E0A2
:104F50003948007808FB00F02B49097890FBF1F004
:104F600000FB0AF0DDF8981400EBD10005A9085CFD
:104F7000DDF8981401F0070280211141084028B1A2
:104F80006A88DDE9031000F0D7FC09E0A88849F63B
:104F90009911884204D0AA88DDE9031000F0CCFC06
:104FA0000498401C80B20490DDF89804401CCDF8B1
:104FB000980421490978DDF898048842C8D30398F9
:104FC000401C80B203900AF101001FFA80FA0D48DC
:104FD00000788245B5DBE888174909780144DDF897
:104FE0009C04084480B2CDF89C040BF1010B9BF8A3
:104FF000000000287FF41CAF00BF0DF2AC4DBDE8EF
:10500000F08F0000D5120020D4120020D81200200A
:10501000B4DF0008A8F30008104D0108105F010874
:105020001017010838FE0008720309080605010878
:10503000A8E500083CF80008D61200202DE9F84346
:1050400005460E4617469846089C11480088752864
:1050500007D143463A4631462846009401F04EFCBB
:1050600014E00B48008849F28841884207D1434642
:105070003A46314628460094FFF71EF806E04346BC
:105080003A4631462846009402F00DFBBDE8F8830D
:10509000CC1200202DE9F04F05468DB07C48DDF89C
:1050A00060901A9C00681E4617464FF0000A78B1BF
:1050B0001B9B199ACDF808900593CDE90324DDE9EF
:1050C0001623CDE90023046833463A46284682E099
:1050D000DDE9160201EB060805EB070C1043A8F109
:1050E0000108ACF1010C012806D0C9F108000590B7
:1050F000002002910890C8E066480268B2F90A30C0
:10510000581A002806DD361A002E65DD1946199B4F
:1051100000FB0344B2F90E00A8EB0000002802DDFA
:10512000361A002E58DDB2F90C00ACEB0000002856
:1051300000DD3F1AB2F908300020AB4237DD581BC2
:105140003F1A4B46B9F1080F28D007DC012B0DD0D0
:10515000022B13D0B9F1040F29D117E0102B1FD067
:10516000182B20D0B9F1200F21D11CE020F007032B
:1051700004EBE0041D4400F0070018E020F00303F6
:1051800004EBA0041D4400F0030010E020F0010334
:1051900004EB60041D4400F0010008E0044404E056
:1051A00004EB400401E004EB800405440020002FE0
:1051B00012DD1B9BDDF864C0CDE90403CDE902C418
:1051C000CDE90069527C34483B4650F82200C26861
:1051D00054680A462946A0470DB0BDE8F08F1799DC
:1051E0000298084409902B49401E00900A68B2F9C1
:1051F0000A30834241DCB2F90E10029881423CDB56
:105200004FF0000BD84603950B9434E0BBF1000F30
:1052100005D10B984FF0080B10F801AB0B900599D6
:10522000ABEB090B3AFA01F00AFA09F101F0FF0AB7
:1052300004D118490968097C890716D415490968F9
:10524000C96B0A680C921B9A0AB152F820000860D8
:1052500016990398009B4218521E029900F06CFAAE
:105260000C490C980968C96B08600399169808F1F5
:10527000010808440390B845C8DB0898401C089012
:1052800009980290199804440898B042A7DBA3E754
:1052900014140020F0130020081400202DE9F84316
:1052A0000446207D01285FD1102000902389E288E8
:1052B000A188608800F0D8F94FF6FF700090B4F82C
:1052C00008C0ACF1020C1FFA8CF3B4F806C0ACF1C4
:1052D000020C1FFA8CF2B4F804C00CF1010C1FFA96
:1052E0008CF1B4F802C00CF1010C1FFA8CF000F044
:1052F000BBF949F2B2400090B4F808C0ACF1040C1C
:105300001FFA8CF3B4F806C0ACF1040C1FFA8CF24F
:10531000B4F804C00CF1020C1FFA8CF1B4F802C00E
:105320000CF1020C1FFA8CF000F09EF947F6FF70AA
:105330000090B4F808C0ACF1060C1FFA8CF3B4F876
:1053400006C0ACF1060C1FFA8CF2B4F804C00CF1E4
:10535000030C1FFA8CF1B4F802C00CF1030C1FFA15
:105360008CF000F015FA5EE0102000902389E288AE
:10537000A188608800F078F94FF6FF700090B4F8CB
:1053800008C0ACF1020C1FFA8CF3B4F806C0ACF103
:10539000020C1FFA8CF2B4F804C00CF1010C1FFAD5
:1053A0008CF1B4F802C00CF1010C1FFA8CF000F083
:1053B0005BF949F2B2400090B4F808C0ACF1040CBB
:1053C0001FFA8CF3B4F806C0ACF1040C1FFA8CF28F
:1053D000B4F804C00CF1020C1FFA8CF1B4F802C04E
:1053E0000CF1020C1FFA8CF000F03EF94CF65960FB
:1053F0000090B4F808C0ACF1060C1FFA8CF3B4F8B6
:1054000006C0ACF1060C1FFA8CF2B4F804C00CF123
:10541000030C1FFA8CF1B4F802C00CF1030C1FFA54
:105420008CF000F0B5F92069FAF70EFF86B2E0685B
:10543000008808B9082512E0E0680088012801D139
:1054400006250CE0E0680088022801D10C2506E062
:10545000E0680088032801D1182500E0082521898B
:1054600001EBD172638803EB620306FB05F000EBEE
:10547000D072A3EB620297B2E08800EBD071A288F1
:1054800002EB6101491B1FFA81F841463846D4E915
:105490000332FFF767FCBDE8F8832DE9F74F88B0CA
:1054A00004468946E5683635E088401E0FFA80F8E4
:1054B00099E000278FE015F8010B049015F8010B17
:1054C000059015F8010B069015F8016B002E1FD002
:1054D000FF2E1ED10698C010C1020598801041EA27
:1054E0004011049841EAE00007900A98012806D18B
:1054F0000A224FF6E0710798FFF742FB0790A28857
:10550000424491B262883A4490B2079A00F014FA89
:105510005FE0A288424491B262883A4490B200F0BF
:105520006DF98246F82101EA2A200390FC2101EA64
:10553000EA000290F82101EACA000190069870433F
:10554000FF2190FBF1F2C6F1FF0103984143FF20D8
:1055500091FBF0F01044C0B2069005987043FF2113
:1055600090FBF1F2C6F1FF0102984143FF2091FB4D
:10557000F0F01044C0B2059004987043FF2190FBF6
:10558000F1F2C6F1FF0101984143FF2091FBF0F0D9
:105590001044C0B204900698C010C1020598801053
:1055A00041EA4011049841EAE00007900A98012876
:1055B00006D10A224FF6E0710798FFF7E1FA07904B
:1055C000A288424491B262883A4490B2079A00F0AD
:1055D000B3F9781C07B22089B8423FF76CAFA8F145
:1055E00001000FFA80F8B8F1000FBFF662AF04F1C6
:1055F0001000FAF729FE80B20090009810B90BB0A5
:10560000BDE8F08FB9F80000012809D1B9F80610FB
:105610000098084400EB400040044FEA104B06E0BD
:10562000B9F8061000980844C0044FEA104B2089CE
:1056300000EBD072638803EB620259460BEBD17327
:10564000A2EB630217B2A088E1880844801C0FFA1D
:1056500080F81FFA88F1B8B24B4604F11002FFF748
:1056600081FB00BFCBE700002DE9F84306460F465B
:1056700015469846089C11480088752807D143466E
:105680002A4639463046009401F062F914E00B488E
:10569000008849F28841884207D143462A46394664
:1056A00030460094FEF799FD06E0EAB243463946DB
:1056B0003046009402F0AEF8BDE8F883CC1200202A
:1056C00000B59FB0042008900020099006200A90A1
:1056D00001200B9000200C900D900E900420019062
:1056E00000200290082003900120049000200590E3
:1056F0000690079006200F90002010901190102027
:105700001290002013901A901490159016904FF458
:10571000805017900020189019901B9001A81D90A0
:1057200008A81E900FA8FDF72BFC01210620FDF70D
:105730000DFC1FB000BD000038B5134C2468B4F94F
:105740000850854200DD2846B4F90C50954200DA35
:105750002A46824217DBB4F90A508D4200DD294601
:10576000B4F90E509D4200DA2B468B420BDB0093BE
:10577000647C064B53F82440E3681D6913460A46CF
:1057800001462046A84738BDF01300200814002029
:105790002DE9F84306460F4690469946089C164860
:1057A0000088752807D14B4642463946304600945A
:1057B00001F022F91DE01048008849F28841884232
:1057C00007D14B464246394630460094FEF73EFD2F
:1057D0000FE000250AE006EB0900401E82B27819AE
:1057E00081B22346304601F07FFF6D1C4545F2D360
:1057F00000BFBDE8F8830000CC12002070B505465C
:105800000E460E480088752805D13146284601F01D
:105810004BF9044610E00948008849F28841884263
:1058200005D131462846FEF731FD044604E03146F5
:10583000284602F029F80446204670BDCC1200200C
:10584000F8B515460E460124FDF7AEFF009058B19D
:10585000C0680421426A68469047030004D02A4683
:1058600031460098984700242046F8BD012104F0F5
:1058700019BE022104F016BEAFF300802DE9F041FD
:10588000002809D0876837B10D4E716819B10468D6
:10589000B4F5807F02DD0020BDE8F08130688442ED
:1058A00000DD0446002507E057F82500FFF79AF9C8
:1058B000716841F825006D1CA542F5DB7068EBE7C7
:1058C0005814002010B5FFF79BF9FFF7F9FE1420DC
:1058D00005F072FEFEF754FD04461548844206D1D9
:1058E00049F2884013490880FEF7F2FC16E002F006
:1058F00073F8044645F22040844207D04BF2095029
:10590000844203D045F22050844202D101F0D8FFF6
:1059100004E075200749088001F016F9002000F026
:1059200089F80020FFF744F9FF2000F049F810BD86
:1059300066805400CC12002070B504460D46164611
:105940000D480088752805D132462946204601F0C9
:1059500071FA10E00848008849F28841884205D170
:10596000324629462046FEF7EBFC04E03246294643
:10597000204602F011F870BDCC12002010B50E4C7C
:105980000E492068407C51F8200050B1C168096878
:10599000042903D000680028F8D102E008B1FDF71F
:1059A00001FF20680021016600F108014161BDE8A6
:1059B000104000F025B80000F0130020081400206B
:1059C00010B504460648047006480088752803D1BF
:1059D000204601F033FB02E0204600F05BF810BDEA
:1059E000D2120020CC120020044909680A7C520718
:1059F00001D5C96B00E0896B08607047F013002087
:105A00000448016804484A7C083150F82200C26802
:105A1000126B1047F0130020081400200449096895
:105A20000A7C520701D5896B00E0C96B086070479A
:105A3000F013002010B5044606480470064800889C
:105A4000752803D1204601F03DFB02E02046FEF719
:105A5000DFFC10BDD3120020CC12002001490968E0
:105A60008968084754140020F8B515460E460124ED
:105A7000FDF79AFE009058B1C0680321426A68465B
:105A80009047030004D02A463146009898470024E6
:105A90002046F8BD7CB5044642F210706043FF21F9
:105AA00090FBF1F564200123034A4021CDE9000574
:105AB000024806F025F97CBD004401400014024074
:105AC00010B5074C2068006BFFF78CF8FFF7A6FFB6
:105AD0002068406BFFF786F8BDE81040FFF784BFF1
