:020000040800F2
:10000000B89B0020C101000819590008812F000881
:1000100045550008D5180008FF8D000800000000B5
:10002000000000000000000000000000D3010008F4
:10003000051C000800000000D701000871730008CB
:10004000DB010008DB010008DB010008DB01000820
:10005000DB010008DB010008DB010008DB01000810
:10006000DB010008DB010008DB010008DB01000800
:10007000DB010008DB010008DB010008DB010008F0
:10008000DB010008DB010008DB010008DB010008E0
:10009000DB010008DB010008DB010008DB010008D0
:1000A000DB01000899740008DB010008DB0100088F
:1000B000FD740008DB010008DB010008DB0100081B
:1000C000DB010008DB010008DB010008DB010008A0
:1000D00055700008DB010008DB010008DB010008A7
:1000E000291E0008DB010008DB010008DB01000815
:1000F000DB010008DB010008DB010008DB01000870
:10010000DB010008596A0008C5760008DB01000819
:10011000DB010008DB010008DB010008DB0100084F
:10012000DB010008DB010008DB010008C91B000837
:10013000DB010008DB010008DB010008DB0100082F
:10014000DB010008DB010008DB010008DB0100081F
:10015000DB010008DB010008DB010008DB0100080F
:10016000DB010008DB010008DB010008DB010008FF
:10017000DB010008DB010008DB010008DB010008EF
:10018000DB010008DB010008DB010008DB010008DF
:10019000DB010008DB010008DB010008DB010008CF
:1001A0000000000000000000DB010008DFF80CD0B8
:1001B00000F0E8FE0048004755BC0008B89B00204E
:1001C0000648804706480047FEE7FEE7FEE7FEE7F1
:1001D000FEE7FEE7FEE7FEE7FEE7FEE73574000810
:1001E000AD0100082DE9F04F4FF0000C4FF0000377
:1001F00001EB1C6EBEF90250BEF900400EF5807E88
:10020000BEF90290BEF900800EF5807EBEF9027044
:10021000BEF900600EF5807EBEF902B0BEF900A006
:100220000EF5807ED044D944A8EB4A0AA9EB4B0BCB
:100230004FEAA4044FEAA50504EBA60405EBA705C5
:10024000A4EB6606A5EB670704EBA80405EBA9057C
:10025000A4EB6808A5EB690906EBAB06A7EBAA07B8
:10026000A6EB6B0B07EB6A0A458020F8044B47802E
:1002700020F8046BA0F8029020F8048BA0F802A0EC
:1002800020F804BB03F1010393FAA3FC402BAFD188
:10029000A0EB82014FF0100312090FF2361000F1AB
:1002A000000006B403EB430C6144A2F5803202EB7C
:1002B0008332B1F90250B1F90040A1EB0301B0F96A
:1002C00002B0B0F900A000F10400A5EB040E0EFB93
:1002D0000BFC0AEB4B0E05FB0ACB04FB0ECAB1F973
:1002E0000250B1F90040A1EB0301B0F90290B0F95E
:1002F000008000F10400A5EB040E0EFB09FC08EBE6
:10030000490E05FB08C904FB0EC8B1F90250B1F94A
:100310000040A1EB0301B0F90270B0F9006000F1F8
:100320000400A5EB040E0EFB07FC06EB470E05FBD5
:1003300006C704FB0EC6B1F90250B1F9004001F145
:100340000001D044D944A8EB4A0AA9EB4B0B4FEA71
:10035000A4044FEAA50504EB264405EB2745A4EBCE
:10036000E636A5EBE73704EB284405EB2945A4EB7B
:10037000E838A5EBE93906EB2B46A7EB2A47A6EBB5
:10038000EB3B07EBEA3A4D800C8019444F800E801E
:100390001944A1F80290A1F800801944A1F802A024
:1003A00021F804BBB2F5803283DA03EB430C6144DD
:1003B000A2F101025FEA024E18BFA0EB0C007FF42D
:1003C00076AF06BC4FEA830392087FF46AAFBDE8BC
:1003D000F08F0040000000400000004000005DDDA4
:1003E000213BA3227E180000412D7EA5412D000057
:1003F000412D00C000405DDD82E75DDD213B7EA533
:10040000412D004000000040000000400000AA2AEA
:1004100094126B39460649327C0CA8118E2349325E
:100420007C0CA3227E1821F77931AA2A9412A811F4
:100430008E235DDD213BA3227E180000412D95C651
:10044000B13F461A2B1E58EE3735BEB4C53EA81133
:100450008E235DDD213B63A97138DF089A28B7CD73
:10046000C53E7EA5412D0000412D00C0004063A97E
:100470002B1E21F77931BEB4C53EBEB47C0C58EEBC
:10048000373561AC213B95C6BAF9BAE571383BA75F
:1004900037355DDD82E75DDD213B7EA5412D21F70E
:1004A00066D756D53F3D3BA78E23A811C9CAB7CD05
:1004B000C53E61AC7E18AA2AC1C295C6B13FBEB482
:1004C0007C0C0040000000400000004000001E3B8B
:1004D000B504693E9201C83C2403EB356409C83C6D
:1004E00024036B3946066C30060E1E3BB504EB3513
:1004F0006409AA2A94126B39460649327C0CAE2450
:100500000917AF37D607882E8D0F7E1E5D1BEB3582
:100510006409AA2A941224188C1F1E34F10AB326E7
:100520009015A8118E2349327C0CA3227E18140B3F
:1005300060276C30060E7E1E5D1B7104FB2A882E20
:100540008D0F461A2B1EC7FD5A2E9D2C1211FE151B
:10055000E72021F77931AA2A9412A8118E2387F077
:100560005334B2281314480D202602EAE536B32688
:100570009015DF089A289CE32B39AE2409177104E3
:10058000FB2A5DDD213BA3227E180000412D4ED7C2
:10059000C53C9320EF198FFB6C2F78D1153E7E1E42
:1005A0005D1B21F77931E2CB0F3F641CC61CB8F20A
:1005B000683395C6B13F461A2B1E58EE373597C1A2
:1005C000FB3F24188C1F02EAE536F0BCEC3FFE1519
:1005D000E720BAE57138A6B8853FD5133D2282E100
:1005E000DB39BEB4C53EA8118E235DDD213B40B191
:1005F000AF3D790FDA244DD9423C2EAE423C480D36
:10060000202656D53F3D8EAB823A140B602778D119
:10061000153E63A97138DF089A28B7CDC53EB1A74A
:100620001236A906CE2915CA4F3F78A66833710441
:10063000FB2A95C6B13FBCA576303902212C38C3C0
:10064000EC3F7EA5412D0000412D00C00040BCA51F
:10065000CE29C7FD5A2EF0BCEC3F78A620268FFB92
:100660006C2F09BAB13FB1A73D2257F976304DB78B
:100670004F3F63A92B1E21F77931BEB4C53E8EAB27
:10068000EF19ECF474325EB2153E2EAE9015B8F24E
:1006900068332DB03F3D40B1121187F053342EAE78
:1006A000423CBEB47C0C58EE373561AC213BA6B859
:1006B000D6072BEC1236C8AADB39F0BC240302EAB9
:1006C000E53663A9713897C16EFEDCE7B03734A810
:1006D000E53695C6BAF9BAE571383BA73735E2CBAE
:1006E0000FF59CE32B3978A6683378D173F082E15B
:1006F000DB39EDA579314ED7EDEB6DDF823A99A567
:100700006C2F5DDD82E75DDD213B7EA5412D9CE305
:100710003AE352DBB63B99A5FB2A02EA19DF4DD931
:10072000423CEDA59A2887F026DB4ED7C53C78A63B
:10073000202621F766D756D53F3D3BA78E23C7FD20
:10074000DFD363D3AF3D34A8E720710494D078D1D0
:10075000153E63A92B1E140B8CCD94CF723EC8AAF4
:100760005D1BA811C9CAB7CDC53E61AC7E1824185F
:1007700050C8E2CB0F3F2EAE90157E1E25C615CA7F
:100780004F3F2DB09412AE244AC451C8853F5EB28B
:100790008D0FAA2AC1C295C6B13FBEB47C0C6C3085
:1007A0008EC1E2C4D43F4DB76409EB35B1C038C344
:1007B000EC3F09BA46061E3B2CC097C1FB3FF0BC7C
:1007C000240310B5431A934209D28318881803E012
:1007D00010F8011D03F8011D521EF9D210BD40EAA8
:1007E00001039B0703D009E008C9121F08C0042AAF
:1007F000FAD203E011F8013B00F8013B521EF9D296
:1008000010BDD2B201E000F8012B491EFBD27047A7
:100810000022F6E710B513460A4604461946FFF7CC
:10082000F0FF204610BD421C10F8011B0029FBD12F
:10083000801A704730B504460020034600E05B1C78
:10084000934203D2E05CCD5C401BF8D030BD034640
:1008500011F8012B00F8012B002AF9D11846704736
:100860002DE9FE4F804681EA0300C00F0C46009040
:1008700021F0004123F00045B8EB0200A94105D268
:100880004046214690461C460B46024623F0004057
:10089000104347D0270DC7F30A00C3F30A51029053
:1008A000401A019040286BDAC3F3130040F4801B18
:1008B0000098924620B10023D2EB030A63EB0B0BA6
:1008C00001985946C0F14002504600F044FA0646ED
:1008D0000D4650465946019A00F05CFA10EB0800AC
:1008E0006141002487EA115284EAE7731A4340D039
:1008F000009A62B3019A012A4FEA075215DC001BE5
:1009000061EB02014FF0004202EA0752CDE90042DA
:10091000001C41F5801132462B4600F093FA03B0DB
:10092000BDE8F08F40462146F9E7001B61EB02016C
:10093000001C41F5801300185B412018A2F5001738
:1009400047EB030140EAD570B6196D4111E06D081F
:100950004FEA360645EAC0754FEA0752001B61EBC5
:100960000201001C41F5801149084FEA30000019CE
:10097000514132462B4603B0BDE8F04F00F053BA68
:100980000098012240000023D0EB020263EBE073E9
:10099000009821464FEAE074B8EB000061EB0401D7
:1009A000E9E783F000435BE781F0004158E72DE978
:1009B000FE4F81EA030404F0004421F0004100945A
:1009C0004FF0000B23F0004350EA01045ED052EADE
:1009D00003045BD0C3F30A54C1F30A552C44A4F2B8
:1009E000F3340194A0FB0254C1F3130141F48011CC
:1009F000C3F3130343F4801301FB024400FB034ED3
:100A0000840A970A44EA815447EA8357A4FB07689B
:100A100002958D0A05FB07854FEA932C04FB0C54C5
:100A20002705029D4FEA065847EA1637B5EB080539
:100A30006EEB070C870E920E47EA811742EA83128B
:100A4000A7FB0201B6EB0B0164EB00042B0D43EA9C
:100A50000C335E1844EB1C50DA465146E7FB0201AA
:100A6000C5F313044FEA0B3343EA14534FEA04323D
:100A7000019C43EA0603A4F10C040294009CCDE916
:100A800000B400F0DFF903B0BDE8F08F00200146AC
:100A9000F9E72DE9F04D81EA030404F0004B21F061
:100AA000004514464FF0000A23F0004150EA0502C9
:100AB00020D054EA01021DD0C5F30A570246C5F3FF
:100AC0001303C1F31300C1F30A5640F4801543F435
:100AD0008013A7EB0608101BD64608F2FD3873EB0F
:100AE000050002D308F1010801E092185B41B8F15A
:100AF000000F03DA00200146BDE8F08D00204FF41E
:100B00008011064684460EE0171B73EB050705D3DC
:100B1000121B63EB050306434CEA010C49084FEA3C
:100B2000300092185B4150EA0107EDD152EA030010
:100B300012D082EA040083EA0501084305D0101BA5
:100B4000AB4106D20122002306E000224FF0004311
:100B500002E06FF0010253101AEB06004CEB085153
:100B600010EB0A0041EB0B01BDE8F04D00F05BB962
:100B70000EB5C10F80EAE0700844CA07002140F2B8
:100B800033438DE80E000A460B4600F05BF903B0D4
:100B900000BD0EB540F2334102910021CDE90011B4
:100BA0000A460B4600F04EF903B000BD0EB540F208
:100BB000334202920022CDE90022134600F042F9AE
:100BC00003B000BD70B5C1F30A5201F00045002426
:100BD000C1F3130140F2FF3341F480119A4201DA6C
:100BE000002070BD40F233439A42A2F2334203DC4C
:100BF000524200F0BFF800E090402C43F1D0404258
:100C000070BDC1F30A5210B5C1F3130140F2FF33B6
:100C100041F480119A4201DA002010BD40F23343C2
:100C20009A42A2F2334203DC524200F0A3F810BD14
:100C3000904010BD00F0004230F000400AD0C10DDD
:100C400001F56071C0F3160042EA0151C208400785
:100C500011437047002001467047000030B5041E64
:100C600071F1000404DB4FF00044404264EB0101E9
:100C7000141E73F1000405DB1C464FF00043524282
:100C800063EB04038B4208BF824230BD30B5041EC3
:100C900071F1000404DB4FF00044404264EB0101B9
:100CA000141E73F1000405DB1C464FF00043524252
:100CB00063EB0403994208BF904230BD01F000434A
:100CC00030B421F0004150EA010206D00A0DA2F52D
:100CD0006072C1F31301002A02DC30BC00207047AF
:100CE000440F44EAC104C100E01830BC00EBC2501C
:100CF00000F062B82DE9F05F0546002092469B4661
:100D000088460646814640241BE028464146474621
:100D1000224600F02FF853465A46C01A914110D38C
:100D200011461846224600F016F82D1A67EB010806
:100D30004F4622460120002100F00DF817EB000974
:100D40004E41201EA4F10104DFDC484631462A460C
:100D50004346BDE8F09F202A04DB203A00FA02F166
:100D6000002070479140C2F1200320FA03F3194399
:100D700090407047202A04DB203A21FA02F000213B
:100D8000704721FA02F3D040C2F12002914008439B
:100D900019467047202A06DBCB17203A41FA02F0A9
:100DA00043EAE07306E041FA02F3D040C2F12002C8
:100DB00091400843194670470029A8BF7047401C5E
:100DC000490008BF20F00100704710B4B0FA80FC61
:100DD00000FA0CF050EA010404BF10BC704749B19E
:100DE000CCF1200421FA04F411FA0CF118BF01210E
:100DF00021430843A3EB0C01CB1D4FEA00614FEAEE
:100E0000102042BF002010BC704700EBC3501044BC
:100E10000029A4BF10BC7047401C490008BF20F047
:100E2000010010BC704710B5141E73F1000408DAFD
:100E3000401C41F1000192185B411A4301D120F09E
:100E4000010010BD2DE9F04D92469B4611B1B1FA5B
:100E500081F202E0B0FA80F220329046FFF77BFF89
:100E600004460F4640EA0A0041EA0B0153465A463F
:100E7000084313D0114653EA010019D0C8F14002CB
:100E80005046FFF777FF05460E4650465946424604
:100E9000FFF761FF084305D0012004E020463946F2
:100EA000BDE8F08D0020054346EAE0762C43374349
:100EB0000A986305E40AA0EB08000022FD0A44EA50
:100EC00047540A3002D500200146E9E70105101910
:100ED0006941DDE9084500196941BDE8F04DA2E727
:100EE0002DE9F04D00231A461B1A8A4103DB00202E
:100EF0000146BDE8F08DC1F30A52C1F3130141F47C
:100F000080154FF0000BD10702D100186D41521E21
:100F10000027044640F2FF11384601EB620A3E46C4
:100F20008046024600204FF48011FFF723FFC219CC
:100F30007141BB1846EB0100B4EB030C75EB000CE0
:100F400004D3E41A65EB000517460E46241908F190
:100F500001006D4180463428E3DDF91946EB0600B7
:100F6000091BA84103D24FF0FF32134601E00022D3
:100F700013461BEB070046EB0A51BDE8F04DFFF7A7
:100F800052BF0000064C074D06E0E06840F0010348
:100F900094E8070098471034AC42F6D3FFF70AF9FB
:100FA000200907084009070870B58D1810F8014B93
:100FB00014F0030201D110F8012B231106D110F80F
:100FC000013B03E010F8016B01F8016B521EF9D1EF
:100FD000ABB110F8012B04F00C048A1A0C2C03D0CE
:100FE000A2EB84129B1C08E010F8014BA2EB042238
:100FF000F8E712F8014B01F8014B5B1EF9D5A94245
:10100000D4D3002070BD000070B58EB00546002618
:101010000024072301222946124800F033F9012158
:10102000104800F021F80F4800F088F900BF0EE0EA
:1010300000BF02210B4800F0E2F80028F9D009486F
:1010400000F0D9F801A921F81400601CC4B2192CD1
:10105000EEDB052101A80AF09DFF064630460EB0E2
:1010600070BD00000020014021B1826842F0010201
:10107000826003E0826822F0010282607047000013
:101080000021084A1168084A1140D0E900231A4398
:1010900083681A43C3681A431143044AC2F804130D
:1010A0007047000004230140E030FCFF00200140B5
:1010B00000B58DB00121454805F030FC0121080242
:1010C00005F06CFC0220019003208DF80800002040
:1010D0008DF80B0001A93E4801F010F801200190A5
:1010E00003208DF8080000208DF80B0001A9394875
:1010F00001F004F80220019003208DF80800002080
:101100008DF80B0001A9334800F0F8FF1020019082
:1011100003208DF8080000208DF80B0001A92E484F
:1011200000F0ECFF2020019003208DF80800002043
:101130008DF80B0001A9284800F0E0FF00F050F8FE
:101140000020039004900590069003A8FFF798FFF5
:101150000020079001208DF820008DF8210000204C
:1011600009900B9001208DF8300007A91B4800F072
:101170005FF8012240F20521184800F049F80723E2
:1011800005220121154800F07DF8072301220821DE
:10119000124800F077F80723022209210F4800F0D7
:1011A00071F8072303220E210C4800F06BF8072387
:1011B00004220F21094800F065F801210748FFF7D4
:1011C00053FF064800F0BAF80DB000BD060040001D
:1011D00000000240000402400008024000200140DC
:1011E00010B50121080205F0E9FB00214FF48070E1
:1011F00005F0E4FB10BD0146C86C80B270470246A2
:10120000002013680B400BB1012000E00020704764
:1012100010B50B460021D9B2012404FA01F11AB12C
:1012200044680C43446002E044688C43446010BD51
:1012300030B50246002000235068104C20400D7944
:101240000C6844EA05242043506090680C4C204010
:10125000D1E903542C438D682C434D7944EA45046D
:1012600020439060D06A20F470000C7D641EE4B2CC
:10127000234340EA0350D06230BD0000FFFEFFFC74
:10128000FDF7FFC0F0B504460D4600200021092DF2
:1012900011DDE068A5F10A0606EB4607072606FA07
:1012A00007F18843A5F10A0606EB460603FA06F1A4
:1012B0000843E0600CE0206905EB4507072606FAC5
:1012C00007F1884305EB450603FA06F10843206160
:1012D000072A0FDA606B561E06EB86071F2606FAF2
:1012E00007F18843561E06EB860605FA06F1084309
:1012F000606322E00D2A0FDA206BD61F06EB86070B
:101300001F2606FA07F18843D61F06EB860605FA64
:1013100006F10843206310E0E06AA2F10D0606EB37
:1013200086071F2606FA07F18843A2F10D0606EB91
:10133000860605FA06F10843E062F0BD816841F0D7
:10134000804181607047000000B587B001218803AB
:1013500005F004FB02208DF818008DF8190000201C
:101360008DF81A008DF81B004FF43040059005A948
:10137000664800F0C3FE4020059005A9644800F0CF
:10138000BDFE05220C21614800F000FF05220D2161
:101390005E4800F0FBFE05220F215C4800F0F6FEDF
:1013A000052206215A4800F0F1FE4FF480400590D6
:1013B00001208DF8180000208DF81A008DF81B0010
:1013C00002208DF8190005A9504800F097FE4FF44F
:1013D0008040059001208DF8180000208DF81A003B
:1013E0008DF81B0002208DF8190005A9494800F06E
:1013F00085FE4FF48070059001208DF818000020C4
:101400008DF81A008DF81B0002208DF8190005A92F
:10141000414800F073FE002005F000FB012005F0BC
:1014200003FB00BF3B2005F0D9FA0028FAD00121C8
:10143000880305F093FA394805F08CFE4FF44070AC
:10144000ADF804000020ADF806000520ADF8080056
:101450004FF40070ADF80A004FF49650039000204E
:10146000ADF8100001A92D4801F0C2FD01212B4863
:1014700001F0B2FD4FF40051244800F0B3FE4FF4E8
:101480008051224800F0AEFE4FF48041214800F028
:10149000ABFE4FF48071204800F0A6FE4FF480416F
:1014A0001A4800F09FFE8021194800F09BFE4FF47F
:1014B0000051184800F096FE052009F0D1FB4FF4CA
:1014C0008041124800F090FE4FF480510F4800F028
:1014D0008BFE01226021114805F0B7FE00BF1048C5
:1014E0000068B0F5E15FFAD30E480068B0F5E15F3F
:1014F000F5D300200A4908600A49086000226021EB
:10150000064805F0A2FE07B000BD0000000402403E
:1015100000080240001C0240001802400038004051
:10152000081100200C1100202DE9F0412DED048B55
:1015300000BF00BF00206449086064490860602162
:10154000634805F0FDFD01226021614805F07DFE44
:1015500000BF5D480068B0F5E15FFAD35B48006802
:10156000B0F5E15FF5D300226021594805F06DFE2A
:1015700000252E460027B846002453E06000554958
:1015800031F8100000B2002804DD600031F81000CE
:1015900000B205E060004F4931F8100000B240424F
:1015A00061004C4A32F8111009B2002904DD6100D3
:1015B00032F8111009B205E06100464A32F8111004
:1015C00009B249424843451946EBE0764FEA4400E8
:1015D000414931F8100000B2002804DD600031F804
:1015E000100000B205E060003B4931F8100000B285
:1015F00040426100384A32F8111009B2002904DD76
:10160000610032F8111009B205E06100324A32F887
:10161000111009B249424843C71948EBE07804F178
:10162000010084B2B4F5616FA8DBA80940EA8665C1
:10163000B609B80940EA88674FEA98182846314643
:10164000FFF7B4FA41EC190BB0EE490AF0EE690A63
:1016500008F0DCFFB0EE408AF0EE608A51EC180B27
:10166000FFF7CFFA1D49086038464146FFF79EFA5A
:1016700041EC190BB0EE490AF0EE690A08F0C6FF1A
:10168000B0EE408AF0EE608A51EC180BFFF7B9FA21
:1016900013490860300C0F4908804E80280C40EA3E
:1016A00006408880CD804FEA184008814FF6FF70D1
:1016B00008EA00004881380C40EA08408881CF8160
:1016C000BDEC048BBDE8F081081100200C11002056
:1016D0000038004030240020705C002028110020D9
:1016E0002C1100202DE9FE4F0020ADF800004448E9
:1016F0000088B0F5F07F06D142484349098800EBE5
:10170000C100C08805E041483F49098800EBC1009D
:10171000C088ADF8020049F69910ADF80400012028
:10172000ADF8060036480088B42190FBF1F0C5B250
:10173000374800882838AA2190FBF1F0C7B215FB82
:1017400007F03449087015FB07F0052191FBF0F014
:10175000401C31490870691EC1EB011101EB4101C8
:10176000274A1288A2EB8101A1F1800000EBD07121
:10177000C1F34F0A4FF0460B2848007810FB05F0E4
:10178000784384B25646D8464FF0000932E05646B8
:1017900009EB091000EB80000BEB40001FFA80F80A
:1017A000002002901BE01E4800EB441046801C48BD
:1017B00000EB4410A0F80480194901EB441000220A
:1017C000694602F02FFF601C84B2062C00DB09E0A2
:1017D00006F1B40086B20298401CC0B20290029892
:1017E000A842E0DB00BF062C00DB05E009F10100A8
:1017F00000F0FF09B945CADB00BFBDE8FE8F00005D
:101800007C1100200CC00008E600002044C0000845
:101810007A110020DE000020DD000020DC00002026
:101820001C00002010B504462146512005F064F844
:1018300010BD2DE9F04105460C4616461F46DDF861
:101840001880E9B2582005F057F82912592005F000
:1018500053F8E1B25A2005F04FF8B8F1000F04D167
:1018600021125B2005F048F805E0802040EA2421A1
:101870005B2005F041F8F9B25C2005F03DF8391223
:101880005D2005F039F8F1B25E2005F035F831122F
:101890005F2005F031F8BDE8F081000010B50120AF
:1018A00004490870502004F08BFF802004F0C2FF30
:1018B00010BD00000812002010B500BF04F0F6FDB6
:1018C00000F040004028F9D000200149087010BD08
:1018D0000812002000BFFEE770B50446049D581AA8
:1018E0002E1B7043161B90FBF6F0084470BD0000E1
:1018F0002DE9F0412DED048B8CB005460026002724
:10190000082D02D0092D0CD108E0AB2007F07AFA9F
:10191000B52007F077FA5126502703E05B265A27B7
:1019200000E000BF00BF002435E0282096210022FF
:10193000CDE90726CDE90910142006210390CDE951
:101940000401069008203C211E220023CDE900213D
:1019500002901A4640F6B241012003F01FFF2820F2
:101960009721C822CDE90727CDE9091014200621C7
:101970000390CDE90401069008203C211E2200239B
:10198000CDE900210290012240F6B241104603F059
:1019900005FF601CC4B2022CC7DB4C4890ED0E1B47
:1019A000B0EE410AF0EE610A51EC100BFFF729F995
:1019B0001FFA80F8282096210022CDE90726CDE9DC
:1019C0000910142006210390CDE904010690082097
:1019D00032211E220023CDE9002102901A46414601
:1019E000012003F0DBFE40F2DC5009F039F9AA20B7
:1019F00007F008FAB42007F005FA28209721002202
:101A0000CDE90727CDE90910104611461E22002313
:101A1000CDE903320092CDE90123CDE905102C4830
:101A2000008881B20122104603F0B8FE4FF47A70AC
:101A300009F016F92648B0F90000FFF799F841ECD3
:101A4000190B224890ED0E1BB0EE410AF0EE610A30
:101A500053EC102B51EC190BFEF7A6FF41EC180BC1
:101A6000FFF7CFF81FFA80F829200021C823CDE91D
:101A70000731CDE909103220052114220392CDE966
:101A80000421069001201E210023CDE900210290AF
:101A90000246414603F082FE962007F0B3F941F278
:101AA000883009F0DDF8FFF73FFD972007F0AAF92D
:101AB000282007F0A7F9642009F0D2F8962007F053
:101AC000A1F90CB0BDEC048BBDE8F081E823002047
:101AD000DE10002010B5044607480078012800D128
:101AE00010BD204600F00AF80348007808B900BF8E
:101AF000FEE700BFF4E70000F41000202DE9F041FC
:101B000006460127002549E0012003F001F941F2D2
:101B1000883009F0A5F8FFF707FD00240CE04FF42A
:101B2000966000EB4400224931F81000000421497E
:101B300041F82400601C84B2FF2CF0DD4FF4807269
:101B40001C491D48FEF74EFB1CA14FF480700AF0A3
:101B5000F5F800240FE01B4850F82410A81DC0EB36
:101B600000108000814203DD0127681CC5B204E03B
:101B70000027601C84B2202CEDDB00BF1148D0F898
:101B80008000B0F5A06F02DA0127681CC5B2042DF1
:101B900004DD002003F0BCF8BDE8F081002FB3D1D4
:101BA000012E02D0002003F0B3F800BFF4E70000DC
:101BB0003024002080130020801700203153494436
:101BC00045440000801B002010B504F059FF10BDF3
:101BD0000246094B9A4201D2084801E006481038F3
:101BE00001F000531BB1064B0B40C36002E0044BF5
:101BF0000B408360704700001064024000600240A8
:101C00007D0F7D0F7047000008B547480088B0F58C
:101C1000F07F2DD145480088B0F5887F28D1444811
:101C20004449098850F8310088B941484149098838
:101C300000EBC100808800903C480088283882B2C0
:101C4000394803881421002002F066FE6BE0384812
:101C50003849098850F83100009034480088283805
:101C600082B2314803881421002002F083FA5AE03E
:101C70002D480088B0F5F07F2DD12C480088B0F5B4
:101C8000A07F28D12A482B49098850F8310088B90B
:101C900029482849098800EBC10080880090234822
:101CA0000088283882B2204803881421002002F0DE
:101CB00033FE38E020481F49098850F83100009071
:101CC0001A480088283882B2174803881421002057
:101CD00002F050FA27E018481649098850F83100F8
:101CE00088B915481349098800EBC1008088009025
:101CF0000E480088283882B20B480388142100203F
:101D000002F00AFE0FE00C480A49098850F8310039
:101D1000009006480088283882B2034803881421BE
:101D2000002002F027FA08BD7C1100207A11002063
:101D30000CC00008E600002044C000080EB50020DA
:101D4000ADF804004FF6FF70ADF8060040F24D20EC
:101D5000ADF808000020ADF80A0040F24D200090D8
:101D600009480088143881B20848038814220020EA
:101D700002F0D2FD04480088123881B201AB04A2FF
:101D8000052002F0CFF80EBD7A1100207C11002052
:101D9000CEC2B6C83A20202054613D202020202009
:101DA0003B54623D20202020203B5461623D202096
:101DB0002020203B5463643D20202020203B000055
:101DC0000EB50020ADF804004FF6FF70ADF8060028
:101DD00040F24D20ADF808000020ADF80A0040F2B6
:101DE0004D2000900648038814220021084602F086
:101DF00093FD01AB03A20221052002F093F80EBD72
:101E00007C110020B0B2BBD5D1F8BACDD2BDC1C6CD
:101E1000C6F7D0B5C9E8B1B8D3D0CFDEB9ABCBBE29
:101E2000202856312E30290010B5802000F062F8AD
:101E300010B31248007801281BD1114800881149BD
:101E40000988084400F5FA700F4908800022012132
:101E5000880705F0CEFC00214FF0804005F094FC8F
:101E60000A48006820F40050084908600120084929
:101E70000870802000F00EF810BD00002311002033
:101E8000121100202011002014110020003C0140FC
:101E9000311100200149086070470000143C0140E6
:101EA0001FB50121880304F079FD802002900020F5
:101EB0008DF80C008DF80E008DF80F0002208DF8C3
:101EC0000D0002A90A4800F019F90C21052005F0BF
:101ED0000BFA8020009000208DF8040008208DF877
:101EE000050001208DF80600684600F00FF81FBDC0
:101EF000000C024001460020034A12680A400AB161
:101F0000012000E000207047143C014000212349DB
:101F10008279002A3AD00A46126803689A430B462F
:101F20001A600A1D126803689A430B1D1A60027931
:101F300011440A6803681A430A60184A0832126892
:101F400003689A43154B08331A601A1D1268036818
:101F50009A43124B0C331A604279102A0ED11A1F81
:101F6000126803681A430D4B08331A601A1D126871
:101F700003681A43094B0C331A600DE00749427994
:101F800011440A6803681A430A6005E002791144A3
:101F90000A6803689A430A6070470000003C0140E9
:101FA00051B18200A2F1C042126842F001038200E6
:101FB000A2F1C042136009E08200A2F1C04212689F
:101FC000034B1A408300A3F1C0431A60704700001E
:101FD000FEFF0F000021D0E901231A43C3681A4312
:101FE00003691A4343691A4383691A43C3691A434D
:101FF000036A1A43436A1A43836A1A43C36A1A4339
:10200000036B1A43436B1A4303689B00A3F1C0435D
:102010001A608268082A0BD102689200A2F1C042BD
:10202000126842F0400302689200A2F1C0421360BD
:10203000426BB2F5801F19D10268BAB14FF020424D
:10204000526822F470014FF020421268436B1A4329
:102050004FF020431A601A46126842F480721A60E8
:10206000826B128A521E41EA02525A60826B1268D7
:10207000836B5B6842EA0312836B9B6842EA03222C
:10208000836B9B8942EA0342836B1B8A42EA0352B9
:10209000836B1B7D42EA0362836B9B691A4303686F
:1020A0005B1C9B00A3F1C0431A60826AB2F5804FAB
:1020B0001BD1C26B1268C36B5B6842EA0312C36B2D
:1020C0009B6842EA0322C36B1B8A42EA0352C36B3A
:1020D0001B7D42EA0362C36B9B691A4303689B0042
:1020E000A3F1C043C3F8042107E06FF07043026816
:1020F0009200A2F1C042C2F804317047F0B50A461E
:1021000000210023002400BF3DE0012505FA01F372
:10211000156805EA03049C4234D105684F00032684
:10212000BE40B543056015794E00B540066835439D
:1021300005601579012D02D01579022D16D185681B
:102140004F000326BE40B543856055794E00B5402B
:10215000866835438560456801268E40B5434560F5
:10216000456896798E40B6B235434560C5684F00E4
:102170000326BE40B543C560D5794E00B540C6685C
:102180003543C560491C1029BFD3F0BDF0B500230D
:1021900000244D07ED0E02FA05F3CE1000F12005E4
:1021A00055F826504E07F70E0F26BE40B543CF1008
:1021B00000F1200646F82750CE1000F1200555F812
:1021C000265045EA0304CE1000F1200545F82640CC
:1021D000F0BD0246002013690B400BB1012000E066
:1021E0000020704741837047018370470AB1018323
:1021F00000E041837047000010B500200949487095
:1022000000F052F80446214607A008F0EFF96A22D0
:102210000B4940F2A26000F05FF90120014908700B
:1022200010BD0000589500204754383131205665C4
:102230007273696F6E203A20253034580D0A000001
:10224000901100202DE9F04105460E46174609F091
:10225000B9FCBA2009F08EFC09F0DEFC281209F066
:1022600089FC09F0D9FCE8B209F084FC09F0D4FC3F
:1022700009F0A8FCBB2009F07DFC09F0CDFC00248E
:1022800006E009F055FC305509F002FC601CC4B2B0
:10229000781EA042F5DC09F04BFC305509F034FC07
:1022A00009F0A8FCBDE8F08108B50222694640F2B9
:1022B0001770FFF7C7FF9DF801009DF8001000EBB5
:1022C000012080B208BD000070B58CB07348007862
:1022D00008B90CB070BD71484078142800DAF8E7EE
:1022E00000206E4948700122694640F22170FFF7D4
:1022F000A9FF9DF8000000F0010070B9684800785F
:10230000012809D10020664908706648028866489D
:102310000188032005F098FEDBE721220DF1010181
:1023200040F22270FFF78EFF9DF800005B49887035
:102330009DF80100C8709DF803009DF8021000EBA5
:102340000120564988809DF805009DF8041000EB97
:1023500001205249C8809DF8060008729DF80800C7
:102360009DF8071000EB01204C4948819DF80A00B8
:102370009DF8091000EB0120484988819DF80B0069
:1023800088739DF80D009DF80C1000EB0120434967
:1023900008829DF80F009DF80E1000EB01203F49C8
:1023A00048829DF8100008759DF818009DF81110DE
:1023B00000EB01203949C8829DF81A009DF81910D8
:1023C00000EB0120354908839DF81B0088769DF8B5
:1023D0001D009DF81C1000EB0120304988839DF8FA
:1023E0001F009DF81E1000EB01202C49C8839DF8AA
:1023F000200081F820000846C588808840F2DF115F
:10240000081A86B22648007838B901202449087095
:102410003246294605F018FE04E0324629460220DD
:1024200005F012FE204805801E480680002406E0C4
:102430001DF804101DA008F0D9F8601CC4B2222CAD
:10244000F6DB1CA008F0D2F81448037AC288818811
:1024500019A008F0CBF81148837B8289418916A026
:1024600008F0C4F80D48037D428A018A12A008F0E2
:10247000BDF80A48837E028BC18A0FA008F0B6F827
:10248000064890F82030324629460BA008F0AEF8F6
:1024900008A008F0ABF800BF1BE70000589500202B
:1024A000FA110020FE110020FC11002025303258C6
:1024B000200000000D0A0000282535642C25356415
:1024C0002C2533642920000002484078401C014933
:1024D00048707047589500202DE9F04104460E469B
:1024E000174609F06FFBBA2009F044FB09F094FB92
:1024F000201209F03FFB09F08FFBE0B209F03AFB34
:1025000009F08AFB002506E0705D09F033FB09F055
:1025100083FB681CC5B2BD42F6DB09F06BFBBDE86E
:10252000F08100002DE9F04FDFF828B191B04FF0B5
:10253000FF35DBF80030B3F922100691DE69B3F9FC
:102540002490F469A189814206D8E289824203D3AA
:10255000471AD4F8008012E0D4E9018100296FD035
:102560000A8882426CD84D88854269D3801A82B22B
:10257000486800EB8200B0F90070B0F90250781C96
:102580005ED0307EA17C10FB01FA217CCDE90801F0
:10259000B3F92A60304602F031FBC0B20E90DBF88E
:1025A000000007FB0A81A37C826B0127CDE904129E
:1025B000CDE90273C069DDE90832C17E807ECDE9D4
:1025C00000014946069801F001FE681C18D046F04B
:1025D000020002F013FBDBF80000A37C05FB0A817C
:1025E000826BCDE90273CDE90412C069DDE90832DE
:1025F000C17E807ECDE900014946069801F0E6FDE6
:10260000DBF800005D46C069417E007E814214D93E
:10261000022E12D086F0040002F0F0FA2868C06999
:10262000027EC37E12FB0391437E857E099A069843
:102630004B4402FB050202F043F90E9802F0DEFA69
:10264000DBF80000627C418C1144418411B0BDE88C
:10265000F08F00003012002004480068C069C06993
:1026600009B1027C0A60407C7047000030120020F3
:10267000022008807047C06982898A4202D8C289D4
:102680008A4210D2806880B102888A420DD843887D
:102690008B420AD3406800EB8100A0EB8200B0F9C6
:1026A0000000002801DB012070470020704700284F
:1026B00001D007F0B9B9704710B5002814D004460E
:1026C0000A48006B10F8341000290DD002290BD2F3
:1026D000042101EBC4014158486807F069F920461C
:1026E000BDE8104007F012BC10BD00007C95002032
:1026F000002805D0034A916B016001B148609063E6
:10270000704700007C95002010B5002407F032FBD4
:102710000C490F2001EBC002126C1AB101EBC00092
:10272000006C08E0401EF5D508E04168A14200D9E0
:102730000C46806810B180680028F6D1A4F10C0026
:1027400010BD00007C95002005498A69521C8A61F1
:10275000096B01EBC0010A78521C0A7000F01AB82C
:102760007C9500200A4902680B6B52F8082C03EB99
:10277000C2021378022B03D38B690BB15B1E8B61F2
:102780001178491E11700021016008467047000051
:102790007C950020002806D00349042202EBC000EB
:1027A000096B0858083070477C95002070B50646C4
:1027B0000D461446104600F0D7F80300164804EB07
:1027C00084010AD050F8210041688068711A2A1AE1
:1027D000BDE87040184600F0B1B900EB8104A26872
:1027E000B24201D0012200E00022E368AB4201D0F6
:1027F000012300E000231A430CD0236943B150F8B1
:102800002100816840686A1A311A184600F088F978
:10281000C4E9026570BD000074970020FFF768BF2F
:1028200070B590B38269022A30DA1C4C54F8221039
:1028300019B944F822002FE019464B68002BFBD150
:1028400006E0CB68C5681B682D68AB4203DD0968EC
:102850000029F6D11AE0C1B1CB68C6681B6836689A
:10286000B3420CD1838A012B05D008E01946DB68FE
:102870001B68AB4203DB0B68002BF7D129B14B6817
:1028800033B118604A68426004E0FFE7012070BD80
:1028900044F8220048600160002070BD481200200A
:1028A00007F084BE022801DB00207047054951F87B
:1028B000200004E0C16809680029F6D000680028FB
:1028C000F8D170474812002008B50B46002805D003
:1028D000009281888268C08800F001F808BD10B5B8
:1028E0000828029C30D008DC04FB01F401280AD03F
:1028F000022813D0042804D11CE0102828D0202856
:102900002CD0002010BD04EBD30003F00701105CB5
:10291000C1F10701C84000F0010010BD04EB9300B5
:102920000621105C01EA4301C1F10601C84000F034
:10293000030010BD04EB5300D907105C02D000F077
:102940000F0010BD000910BD04FB0130105C10BD6C
:10295000481004FB003032F8100010BD881004FB52
:10296000003052F8200010BD0021022802D2024996
:1029700051F82010084670470C13002070B514461B
:102980000D4602F027F8002802D0002028602060C1
:1029900070BD000038B5040018D00D480068006E06
:1029A000A04201D100F0C1F82046FFF7CDFE009013
:1029B000406908B100F0C8F900980068FFF72EFFE1
:1029C0006846FFF7CFFE2046FFF776FE38BD0000D1
:1029D00030120020F8B5134E05003068046E0CD09C
:1029E0000CB100F0A2F806F093FB2846FFF7ACFE0E
:1029F000009031680A6E1AB106E000F096F80EE019
:102A0000D1E90223C1E919230D660068FFF708FF29
:102A10006846FFF7A7FE02F023F902F0C1F820464E
:102A2000F8BD00003012002010B5002821D009B3F5
:102A30000AB3B1F90040B2F900309C4200DA2346F3
:102A40000380B1F90240B2F902309C4200DA234619
:102A50004380B1F90440B2F904309C4200DD2346C2
:102A60008380B1F90610B2F90620914200DC1146CC
:102A7000C18010BD11460A6802604968416010BDFE
:102A800000280BD003880B4403808388194481807D
:102A9000418811444180C1881144C18070470000C1
:102AA00070B5104D0446D5E9000188420ED10E499B
:102AB000884203D1D0E90F12406C03E00C38D0E912
:102AC000001280682160C4E9012006E090E80E0051
:102AD00084E80E0007F044F92860207A002800D02E
:102AE000012070BD04130020E49600200448D0E9C2
:102AF0000010814201D10120704700207047000082
:102B000004130020054A10B50349116007F094FC36
:102B1000BDE8104000F014B89D910008501200204C
:102B2000002801D007F00CBB704710B501F0F6FF8C
:102B300002F096F8BDE8104006F0E2BA02F064B880
:102B400002480068002800D0004770471413002096
:102B50002DE9F047524D534E0024E86978B9686872
:102B6000346000F00501746010F0060F01D000F031
:102B70000500B460F46007F0C9FA0120E861287824
:102B8000C8B100F0D3F8A846286100F0CDF8296953
:102B9000286A81420BDBD8F824204046914206DCAB
:102BA000836A42699A4202DBC36A9A420DDD4FF0A2
:102BB000FF3001466FE000F0C1F8686100F0B5F841
:102BC0002878401C2870BDE8F087326898F8180013
:102BD000354F8D1A400700283868407C02DB01F031
:102BE00015FF01E001F015FF401E4543D6E9002026
:102BF000B146801A95FBF0F6D8F81420D9F80810E1
:102C000098F81800551A400700283868407C02DB05
:102C100001F0FFFE01E001F0F9FE401E4543D9E955
:102C20000201081A95FBF0F598F8180040070028F3
:102C30003868407C18DB01F0E9FE81463868407C4A
:102C400001F0E7FED8F818200146D00704D0A9EB20
:102C50000600A0F1010000E03046920702D5491BB2
:102C6000491E18E0294616E001F0D3FE8146386877
:102C7000407C01F0CBFED8F81820D10704D0A9EB96
:102C80000601A1F1010100E03146920702D5401B87
:102C9000401E00E0284607F0FBFB88F8004092E762
:102CA0005C120020BC96002030120020074A002849
:102CB00006DB002904DB01231372C2E9000101E0F5
:102CC00000201072014800F003B80000CC960020EC
:102CD00010B504460C220749FDF7ACFD002808D0CA
:102CE000044894E80E000EC02046BDE81040FFF7EF
:102CF00009BF10BDD896002030B40A4C2268831A50
:102D000001D5C3F1000362688A1A00D552421A4401
:102D1000022A04DDC4E9000130BCFFF7C7BF30BCA4
:102D2000704700008C1200207047704710B505F006
:102D3000FFFA0148808C10BDE09400200148C08C4F
:102D400070470000E094002038B50546FFF7FCFC12
:102D500000908189491E0CB284816846FFF702FD0C
:102D6000002C02D12846FFF7A7FC38BD704710B5EC
:102D7000082A0EDC0346012A1AD0022A58D0042A57
:102D800078D010F8042B03F8012B491EF9D101204B
:102D900010BD102A0ADC0222022AF8D1024630F8BD
:102DA000043B22F8023B491EF9D1F0E7002010BD98
:102DB00010F8042BD207120E491E34D010F8044B21
:102DC000491E04F0010442EA84122CD010F8044B8E
:102DD000491E04F0010442EA441224D010F8044BC6
:102DE000491E04F0010442EA04121CD010F8044BFE
:102DF000491E04F0010442EAC40214D010F8044B46
:102E0000491E04F0010442EA84020CD010F8044B7D
:102E1000491E04F0010442EA440204D010F8044BB5
:102E200004F00104224303F8012B0029C0D1AEE7CE
:102E300010F8042B9207120E491E15D010F8044BFF
:102E4000491E04F0030442EA04120DD010F8044BAA
:102E5000491E04F0030442EA840205D010F8044B32
:102E600004F003042243491E03F8012B0029DFD19B
:102E70008DE7FFE710F8042B1207120E491E05D04C
:102E800010F8044B04F00F042243491E03F8012BF1
:102E90000029EFD17BE7B0F90030B1F9002093426F
:102EA00000DA0280B0F90230B1F90220934200DA70
:102EB0004280B0F90430B1F90420934200DD8280F1
:102EC000B0F90620B1F906108A4200DDC1807047D2
:102ED00070B5B1F90040B2F900309C4200DD2346E4
:102EE0000380B1F90250B2F90240A54200DD2C4640
:102EF0004480B1F90460B2F90450AE4200DA3546BC
:102F00008580B1F90610B2F90620914200DB114626
:102F1000C1809D4201DBA14201DA002070BD012089
:102F200070BD000002494A69426048617047000074
:102F30002412002010B502E000F8011B521E0AB155
:102F40008307F9D1930818D001EB014402F0030282
:102F500004EB042405E0046044608460C460103025
:102F60001B1F042BF7DA01E010C05B1E002BFBD106
:102F700003E000BF00F8011B521E002AFAD110BD69
:102F800009A100200BE00A5C124B9A8000BF114A95
:102F9000128802F04002002AF9D0421CD0B22A283E
:102FA000F1D300BFFEE700000D0A456E7465722084
:102FB000486172644661756C745F48616E646C65EB
:102FC000722C2053797374656D2048616C742E0DDA
:102FD0000A0000000010014021B1828B42F480629F
:102FE000828304E0828B4FF6FF331A40828370475E
:102FF0002DE9F04F0025022300240127002200269E
:10300000944690469146B0F81CA04FF2400B0AEA55
:103010000B0AA0F81CA04FF0020AA0F820A0858B94
:10302000D1F808A0BAF1020F01D100BF6CE0B1F8ED
:1030300004A0BAF1000F01D1012700E00227DFF858
:1030400010A1DAF800A00AF4000ABAF1000F09D0C2
:10305000DFF8FCA0DAF800A02AF4000ADFF8F0B0EC
:10306000CBF800A0DFF8E8A00AF17C0ADAF800A0AB
:10307000CAF38818DFF8D8A00AF17C0ADAF800A0B1
:10308000CAF30279DFF8C8A0AAF1040ADAF800A0AE
:103090000AF03F0CDFF8BCA0BAFBFCFA0AFB08FA06
:1030A000BAFBF9F6B1F806A0BAF5007F0ED14FEAE7
:1030B000162A0AEB8A0A4FEA4A0AD1F808B0BAFB84
:1030C000FBFA0AF1050A1FFA8AF20FE04FEA471AE3
:1030D000B6FBFAFA0AEB8A0A4FEA4A0AD1F808B0B4
:1030E000BAFBFBFA0AF1050A1FFA8AF24FF00A0A44
:1030F000B2FBFAF202F00104A2EB040ACAF34F0396
:103100004FF6FF7A0AEA0424022B01DBFF2B01DDD4
:1031100002230024B1F806A04AEA040A4AEA030A94
:10312000A0F820A0B1F804A0B1F80CB04AEA0B0A4C
:10313000B1F802B04AEA0B0AB1F800B04AEA0B0A49
:103140004AF4006A4AEA05058583BDE8F08F00006D
:103150000838024040787D0170B504461248038863
:10316000124802880021084600F068FA2C204FF02F
:10317000D84108800D4909880B4A128801FB02F0EA
:10318000C11700EB5171CE10002509E008480480FA
:1031900004800480048004800480048004806D1C0A
:1031A000B542F3D370BD00007C1100207A110020DD
:1031B0000000086C2DE9F0478046894614461D46FC
:1031C000DDF820A000262B4622464946404600F066
:1031D00035FA574600BF06E037F8022B494640460D
:1031E00000F084F9761C04FB05F0B042F4D800F03E
:1031F0008FF9BDE8F0872DE9F04706460F46904667
:103200009A460320A0EB48090024454646E07A1977
:1032100091B2321990B2524600F068F97A1B91B21D
:10322000321990B2524600F061F97A1991B2321B0C
:1032300090B2524600F05AF97A1B91B2321B90B20A
:10324000524600F053F93A1991B2721990B25246AF
:1032500000F04CF93A1B91B2721990B2524600F04C
:1032600045F93A1991B2721B90B2524600F03EF9FC
:103270003A1B91B2721B90B2524600F037F9B9F185
:10328000000F04DA062000EB8400814405E0601B97
:103290000A2101EB800081446D1E641CAC42B6D94A
:1032A000BDE8F0872DE9F04F87B004460D4616467D
:1032B0001F4629462046109A00F018F9B44204D15E
:1032C000BD4202D107B0BDE8F08F00200290A642B7
:1032D00002DBA6EB040801E0A4EB0608AF4202DB28
:1032E000A7EB050901E0A5EB0709C8450CDA0121A8
:1032F000029120462C46054630463E4607461FFAB8
:1033000088F0C846814600BFA64201DD012001E0E9
:103310004FF0FF300690AF4201DD012001E04FF099
:10332000FF300590A24601954FEA49000490A9EBB1
:103330000800400003900498A0EB080B1EE0BBF1CE
:10334000000F02DA0498834405E0059901980844C7
:10335000019003988344029838B11FFA8AF1019AC8
:1033600090B2109A00F0C2F806E0019A91B21FFAEA
:103370008AF0109A00F0BAF806988244B245DED17D
:1033800000BF9FE72DE9F84304460D4616461F4649
:10339000DDF82080E019401E82B22B4629462046E7
:1033A000CDF80080FFF77EFFA819401E83B2E01918
:1033B000401E82B2A819401E81B22046CDF800807E
:1033C000FFF770FFA819401E83B222462946204607
:1033D000CDF80080FFF766FFA9198BB2E119491EED
:1033E0008AB2E119491E88B22946CDF80080FFF75C
:1033F00059FFBDE8F88300002DE9F04707468846ED
:1034000014461D46DDF820902B462246414638469C
:1034100000F014F92C204FF0D8410880002603E07A
:103420000448A0F80090761C04FB05F0B042F7D8E1
:10343000BDE8F0870000086C2DE9F04104460D4618
:103440000026B04600272946204600F095F82E2099
:103450004FF0D84108800848068806880788B0F8E9
:103460000080F012C0024FEAA82140EA411040EA71
:10347000E720BDE8F08100000000086C10B500F006
:1034800055F804461648844228D100F06FFB00200E
:103490001449087012220121084600F027F8012182
:1034A0000846FFF7C9FF1049088034220121084669
:1034B00000F01CF801210846FFF7BEFF0A4908800A
:1034C00056220121084600F011F801210846FFF7B5
:1034D000B3FF0549088049F28840088010BD00000C
:1034E00066805400011200207811002070B5054656
:1034F0000E4614463146284600F03EF82C204FF088
:10350000D84108800148048070BD00000000086CAC
:1035100010B504480388044802880021084600F0DA
:103520008DF810BD7C1100207A11002008B5042010
:103530004FF0D84108800F480088C0B28DF80000D5
:103540000C480088C0B28DF801000A480088C0B25B
:103550008DF8020007480088C0B28DF803009DF87E
:10356000010000049DF8021000EB01209DF80310FB
:10357000084408BD0000086C70B504460D462A20BA
:1035800000F08CF8201200F08DF8E0B200F08AF81C
:10359000201200F087F8E0B200F084F82B2000F051
:1035A0007DF8281200F07EF8E8B200F07BF82812CF
:1035B00000F078F8E8B200F075F870BD10B5044678
:1035C000362000F06BF85CB9A82000F06BF84FF4DF
:1035D000A070184908804FF4F0701749088028E05F
:1035E000012C0BD1682000F05DF84FF4A070114958
:1035F00008804FF4F070104908801AE0022C0BD1BB
:10360000C82000F04FF84FF4F0700A4908804FF4DA
:10361000A070094908800CE0032C0AD1082000F0B2
:1036200041F84FF4F070034908804FF4A07002494C
:10363000088010BD7A1100207C1100202DE9F04196
:1036400004460D4616461F462A2000F027F8201291
:1036500000F028F8E0B200F025F8E119491EC1F3A6
:10366000072000F01FF8E119491EC8B200F01AF84F
:103670002B2000F013F8281200F014F8E8B200F044
:1036800011F8A919491EC1F3072000F00BF8A91978
:10369000491EC8B200F006F8BDE8F0814FF0D841ED
:1036A0000880704701490880704700000000086CDE
:1036B00010B50021084603F0C1FC4FF480710120D1
:1036C00003F0BCFC4FF48071022003F0B7FC41F220
:1036D0001801032003F0B2FC40F60801082003F0B3
:1036E000ADFC0121092003F0A9FC10210B2003F0FF
:1036F000A5FC00210C2003F0A1FC00210F2003F009
:103700009DFC0121072003F099FC1321102003F0F8
:1037100095FC40F20151112003F090FC4FF44071F0
:10372000122003F08BFC40F21E21202003F086FCC7
:1037300040F20221212003F081FC4FF4004190204F
:1037400003F07CFC41F2B0714FF4807003F076FC22
:1037500040F2471140F2011003F070FC40F23511C5
:103760004FF4817003F06AFC4FF4E06140F2031003
:1037700003F064FC002140F2071003F05FFC01211C
:103780004FF4887003F05AFC00214FF4047003F0EA
:1037900055FCEF2140F2112003F050FC002140F2D3
:1037A000122003F04BFC40F28F1140F2132003F083
:1037B00045FC00214FF4207003F040FC042140F24E
:1037C000812003F03BFC002140F2822003F036FC14
:1037D00040F201114FF4407003F030FC40F62C3100
:1037E00040F2013003F02AFC41F2300140F2023095
:1037F00003F024FC43F2100140F2033003F01EFCFE
:1038000042F60B414FF4417003F018FC40F20111F5
:1038100040F2053003F012FC40F6070140F206309A
:1038200003F00CFC4FF4E16140F2073003F006FCBA
:1038300040F207114FF4427003F000FC40F2051112
:1038400040F2093003F0FAFB40F6047140F20A300E
:1038500003F0F4FB4FF4706140F20B3003F0EEFB29
:103860000F214FF4437003F0E9FB40F20F4140F2A7
:103870000D3003F0E3FB4FF4407140F20E3003F0E3
:10388000DDFB40F2017140F20F3003F0D7FB4FF443
:1038900054514FF4806003F0D1FB012140F201400C
:1038A00003F0CCFB002140F2044003F0C7FB0021F1
:1038B0004FF4A06003F0C2FB002140F2015003F07E
:1038C000BDFB002140F2025003F0B8FB002140F2A2
:1038D000035003F0B3FB002140F2045003F0AEFBB1
:1038E000002140F2055003F0A9FB00214FF4C06015
:1038F00003F0A4FB002140F2066003F09FFB0021CF
:103900004FF4DE6003F09AFB45F220414FF4FE6075
:1039100003F094FB002140F2DE7003F08FFBDF2107
:1039200040F2F27003F08AFB4FF4016140F2F37051
:1039300003F084FB772140F2F47003F07FFB212138
:1039400040F2F57003F07AFB00214FF4FE6003F0C3
:1039500075FB40F27311072003F070FB00214FF458
:10396000047003F06BFBEF2140F2112003F066FBC3
:10397000002140F2122003F061FB40F28F1140F26F
:10398000132003F05BFB10BD10B50021084603F0C7
:1039900055FB0021084603F051FB0021084603F0C7
:1039A0004DFB0021084603F049FB03F0FFF840F609
:1039B0000801082003F042FB1021084603F03EFBFB
:1039C0004FF4C4414FF4806003F038FB40F60641E9
:1039D0004FF4407003F032FB49F60F5140F20130D2
:1039E00003F02CFB40F6053140F2023003F026FBD9
:1039F00041F2172140F2033003F020FB43F2333150
:103A00004FF4417003F01AFB41F2127140F205309D
:103A100003F014FB49F20B5140F2063003F00EFBA9
:103A200040F60D7140F2073003F008FB40F20C61E4
:103A30004FF4427003F002FB002140F2093003F022
:103A4000FDFA40F20221112003F0F8FA40F20111D0
:103A5000122003F0F3FA0121132003F0EFFA012101
:103A6000072003F0EBFA4FF4E6614FF4807003F0A7
:103A7000E5FA40F2372140F2011003F0DFFA4FF48B
:103A80002C5140F2031003F0D9FA4FF480414FF467
:103A9000207003F0D3FA48F2B0114FF4817003F0B4
:103AA000CDFA03F083F84FF48071012003F0C6FAD9
:103AB0004FF48071022003F0C1FA41F21801032093
:103AC00003F0BCFA0121092003F0B8FA00210C2010
:103AD00003F0B4FA4FF40041902003F0AFFA002154
:103AE0000F2003F0ABFA00214FF4047003F0A6FAA4
:103AF000EF2140F2112003F0A1FA002140F2122040
:103B000003F09CFA40F28F1140F2132003F096FA72
:103B100000214FF4A06003F091FA002140F201501F
:103B200003F08CFA5F2140F2025003F087FA012182
:103B300040F2014003F082FA002140F2044003F019
:103B40007DFA03F033F84FF48071072003F076FA22
:103B500003F02CF800214FF4007003F06FFA0021FD
:103B600040F2012003F06AFA10BD000010B5F72002
:103B7000FFF794FDA920FFF795FD5120FFF792FD77
:103B80002C20FFF78FFD8220FFF78CFDC020FFF770
:103B900085FD1120FFF786FD0920FFF783FDC12079
:103BA000FFF77CFD4120FFF77DFDC520FFF776FD87
:103BB0000020FFF777FD0A20FFF774FD8020FFF754
:103BC00071FDB120FFF76AFDB020FFF76BFD1120FA
:103BD000FFF768FDB420FFF761FD0220FFF762FDEB
:103BE000B620FFF75BFD0220FFF75CFD2220FFF708
:103BF00059FDB720FFF752FDC620FFF753FDBE2049
:103C0000FFF74CFD0020FFF74DFD0420FFF74AFDB4
:103C1000E920FFF743FD0020FFF744FD0020FFF7F8
:103C2000CDFC3A20FFF73AFD5520FFF73BFDE020A1
:103C3000FFF734FD0020FFF735FD0720FFF732FDC9
:103C40001020FFF72FFD0920FFF72CFD1720FFF7AD
:103C500029FD0B20FFF726FD4120FFF723FD8920DA
:103C6000FFF720FD4B20FFF71DFD0A20FFF71AFD8F
:103C70000C20FFF717FD0E20FFF714FD1820FFF7AB
:103C800011FD1B20FFF70EFD0F20FFF70BFDE120BC
:103C9000FFF704FD0020FFF705FD1720FFF702FDE9
:103CA0001A20FFF7FFFC0420FFF7FCFC0E20FFF7B3
:103CB000F9FC0620FFF7F6FC2F20FFF7F3FC452068
:103CC000FFF7F0FC4320FFF7EDFC0220FFF7EAFCD2
:103CD0000A20FFF7E7FC0920FFF7E4FC3220FFF79A
:103CE000E1FC3620FFF7DEFC0F20FFF7DBFC1120A4
:103CF000FFF7D4FC782006F0B3FF2920FFF7CEFCB5
:103D0000044803880448028800210846FFF796FC0F
:103D100010BD00007C1100207A11002010B5802118
:103D20000148FEF756FA10BD000C024070B503467C
:103D300043EA0340084E00EA060441EA014000EA73
:103D40000605281B504304EB501000EA060545EA1F
:103D5000154080B270BD00001FF8E00710B50446A2
:103D60000A480088752803D1204601F067FF0CE05F
:103D70000648008849F28841884203D12046FFF76F
:103D8000EBF902E0204602F0F3FE10BD78110020AE
:103D90000449054A0968497C52F8211009690968F3
:103DA0000847000030120020481200201CB50121F5
:103DB000084602F0C3FD0121D82002F0AFFD0C221D
:103DC00000215348FEF7E2F90C2201215048FEF78A
:103DD000DDF90C2204214E48FEF7D8F90C2205210A
:103DE0004B48FEF7D3F90C2208214948FEF7CEF9DB
:103DF0000C2209214648FEF7C9F90C220A21444841
:103E0000FEF7C4F90C220E214148FEF7BFF90C223F
:103E10000F213F48FEF7BAF94FF6FC7000900120E1
:103E20008DF8040003208DF8050000208DF80600B1
:103E30008DF8070069463748FEF760F90C22042127
:103E40003548FEF7A3F90C2205213348FEF79EF909
:103E50000C2207213048FEF799F90C2208212E4840
:103E6000FEF794F90C2209212B48FEF78FF90C225A
:103E70000A212948FEF78AF90C220B212648FEF771
:103E800085F90C2211462448FEF780F90C220D21F9
:103E90002148FEF77BF90C220E211F48FEF776F928
:103EA0000C220F211C48FEF771F94FF43D70009071
:103EB00069461748FEF722F9042000906946174822
:103EC000FEF71CF96120009069461348FEF716F9C9
:103ED000E020009069461248FEF710F90C220D21EF
:103EE0000B48FEF753F94FF400500090694608481C
:103EF000FEF704F90C2211460848FEF747F94FF483
:103F00008050009069460548FEF7F8F81CBD000097
:103F1000000C0240001C0240001002400018024049
:103F2000000002402DE9FF4FADF29C4D91461D4629
:103F30000026288801280CD10C2083490870834969
:103F40000870182082490880DFF808820227824C16
:103F50003DE0288802280CD118207B4908707B4955
:103F6000087048207A490880DFF8F08103277C4CEC
:103F70002DE0288803280DD130207349087073493B
:103F800008704FF4907072490880DFF8D0810627DE
:103F9000744C1CE0288804280DD160206A49087000
:103FA0006A4908704FF4906069490880DFF8AC8175
:103FB0000C276D4C0BE010206349087063490870B2
:103FC000202063490880DFF894810227674CB1E024
:103FD00099F80000CDF89804DDF8980480281BDAE1
:103FE0005B48008802905A480088019000EBD0702E
:103FF0004310DDF8980400FB0381029800EBD070B9
:10400000421005A8FCF7DDFB5049087800EBD071A1
:104010004910574A11703CE009F1010081460078CF
:10402000CDF89404DDF8940400B988E04FF0000A5C
:1040300029E047480088801C0AFB00F60AF10100CD
:104040001FFA80FAA15DDDF8980481420DD1701C41
:10405000215CDDF89404814207D1B61CA1193C48CB
:10406000028805A8FCF7ADFB0EE0A05DFF280AD191
:10407000701C205CFF2806D1FF223548018805A866
:10408000FCF7BFFB00E0D4E700BF304800783849B8
:104090000870DDF8A00403904FF0000A3AE0DDF864
:1040A0009C0404904FF0000B28E0314800787843DE
:1040B0002649097890FBF1F000FB0AF000EBDB00E9
:1040C00005A9085C0BF0070280211141084028B1C6
:1040D0006A88DDE9031000F0FFFC09E0A88849F6D2
:1040E0009911884204D0AA88DDE9031000F0F4FC9D
:1040F0000498401C80B204900BF1010B1C4800781E
:104100008345D2D30398401C80B203900AF101008A
:104110001FFA80FA0C4800788245C0DBE888144911
:1041200009780144DDF89C04084480B2CDF89C0471
:1041300009F1010999F8000000287FF449AF00BF98
:104140000DF2AC4DBDE8F08F8111002080110020F0
:104150008411002070C8000864DE000864CE0008E6
:10416000F4E800081EEA0008A8EE0008F8E20008DB
:10417000821100202DE9F84305460E461746984661
:10418000089C11480088752807D143463A463146B5
:104190002846009401F0BCFD14E00B48008849F269
:1041A0008841884207D143463A4631462846009422
:1041B000FFF700F806E043463A46314628460094A9
:1041C00002F0FDFCBDE8F883781100202DE9F04FE6
:1041D00005468DB07C48DDF860901A9C00681E464C
:1041E00017464FF0000A78B11B9B199ACDF808903A
:1041F0000593CDE90324DDE91623CDE90023046806
:1042000033463A46284682E0DDE9160201EB06080D
:1042100005EB070C1043A8F10108ACF1010C0128D3
:1042200006D0C9F108000590002002910890C8E06E
:1042300066480268B2F90A30581A002806DD361AB4
:10424000002E65DD1946199B00FB0344B2F90E00F0
:10425000A8EB0000002802DD361A002E58DDB2F966
:104260000C00ACEB0000002800DD3F1AB2F908306A
:104270000020AB4237DD581B3F1A4B46B9F1080FFF
:1042800028D007DC012B0DD0022B13D0B9F1040F7D
:1042900029D117E0102B1FD0182B20D0B9F1200FF7
:1042A00021D11CE020F0070304EBE0041D4400F0E2
:1042B000070018E020F0030304EBA0041D4400F005
:1042C000030010E020F0010304EB60041D4400F043
:1042D000010008E0044404E004EB400401E004EBC6
:1042E000800405440020002F12DD1B9BDDF864C014
:1042F000CDE90403CDE902C4CDE90069527C34481C
:104300003B4650F82200C26854680A462946A04736
:104310000DB0BDE8F08F17990298084409902B4919
:10432000401E00900A68B2F90A30834241DCB2F9BB
:104330000E10029881423CDB4FF0000BD8460395EB
:104340000B9434E0BBF1000F05D10B984FF0080B34
:1043500010F801AB0B900599ABEB090B3AFA01F0A1
:104360000AFA09F101F0FF0A04D118490968097C29
:10437000890716D415490968C96B0A680C921B9AFB
:104380000AB152F82000086016990398009B421861
:10439000521E029900F094FA0C490C980968C96BF6
:1043A00008600399169808F1010808440390B8457D
:1043B000C8DB0898401C089009980290199804449A
:1043C0000898B042A7DBA3E7541200203012002067
:1043D000481200202DE9F8430446207D01285FD1D2
:1043E000102000902389E288A188608800F000FAFC
:1043F0004FF6FF700090B4F808C0ACF1020C1FFA41
:104400008CF3B4F806C0ACF1020C1FFA8CF2B4F8CD
:1044100004C00CF1010C1FFA8CF1B4F802C00CF1CD
:10442000010C1FFA8CF000F0E3F949F2B240009061
:10443000B4F808C0ACF1040C1FFA8CF3B4F806C051
:10444000ACF1040C1FFA8CF2B4F804C00CF1020CAD
:104450001FFA8CF1B4F802C00CF1020C1FFA8CF0B8
:1044600000F0C6F947F6FF700090B4F808C0ACF150
:10447000060C1FFA8CF3B4F806C0ACF1060C1FFA58
:104480008CF2B4F804C00CF1030C1FFA8CF1B4F8F0
:1044900002C00CF1030C1FFA8CF000F03DFA5EE054
:1044A000102000902389E288A188608800F0A0F99C
:1044B0004FF6FF700090B4F808C0ACF1020C1FFA80
:1044C0008CF3B4F806C0ACF1020C1FFA8CF2B4F80D
:1044D00004C00CF1010C1FFA8CF1B4F802C00CF10D
:1044E000010C1FFA8CF000F083F949F2B240009001
:1044F000B4F808C0ACF1040C1FFA8CF3B4F806C091
:10450000ACF1040C1FFA8CF2B4F804C00CF1020CEC
:104510001FFA8CF1B4F802C00CF1020C1FFA8CF0F7
:1045200000F066F94CF659600090B4F808C0ACF1A0
:10453000060C1FFA8CF3B4F806C0ACF1060C1FFA97
:104540008CF2B4F804C00CF1030C1FFA8CF1B4F82F
:1045500002C00CF1030C1FFA8CF000F0DDF92069A9
:10456000FCF761F986B2E068008808B9082512E016
:10457000E0680088012801D106250CE0E068008889
:10458000022801D10C2506E0E0680088032801D14B
:10459000182500E00825218901EBD172638803EB1F
:1045A000620306FB05F000EBD072A3EB620297B248
:1045B000E08800EBD071A28802EB6101491B1FFA71
:1045C00081F841463846D4E90332FFF7ABFCBDE839
:1045D000F88300002DE9F04104460D4616461F46BB
:1045E0000F480088752806D13B46324629462046AA
:1045F00001F0B8FB12E00A48008849F2884188427D
:1046000006D13B46324629462046FEF7F4FD05E03A
:104610003B4632462946204602F0F2FABDE8F081D8
:10462000781100202DE9F74F88B004468946E568E7
:104630003635E088401E0FFA80F899E000278FE0B9
:1046400015F8010B049015F8010B059015F8010BF6
:10465000069015F8016B002E1FD0FF2E1ED1069874
:10466000C010C1020598801041EA4011049841EA47
:10467000E00007900A98012806D10A224FF6E0715F
:104680000798FFF753FB0790A288424491B26288D3
:104690003A4490B2079A00F01FFA5FE0A2884244C1
:1046A00091B262883A4490B200F072F98246F821E1
:1046B00001EA2A200390FC2101EAEA000290F82195
:1046C00001EACA00019006987043FF2190FBF1F2C5
:1046D000C6F1FF0103984143FF2091FBF0F0104425
:1046E000C0B2069005987043FF2190FBF1F2C6F12D
:1046F000FF0102984143FF2091FBF0F01044C0B24B
:10470000059004987043FF2190FBF1F2C6F1FF0180
:1047100001984143FF2091FBF0F01044C0B2049097
:104720000698C010C1020598801041EA4011049813
:1047300041EAE00007900A98012806D10A224FF6C4
:10474000E0710798FFF7F2FA0790A288424491B20D
:1047500062883A4490B2079A00F0BEF9781C07B21A
:104760002089B8423FF76CAFA8F101000FFA80F83A
:10477000B8F1000FBFF662AF04F11000FCF753F878
:1047800080B20090009810B90BB0BDE8F08FB9F876
:104790000000012809D1B9F806100098084400EB80
:1047A000400040044FEA104B06E0B9F806100098AC
:1047B0000844C0044FEA104B208900EBD072638894
:1047C00003EB620259460BEBD173A2EB630217B203
:1047D000A088E1880844801C0FFA80F81FFA88F14D
:1047E000B8B24B4604F11002FFF79CFB00BFCBE7C9
:1047F0002DE9F84306460F4615469846089C114891
:104800000088752807D143462A4639463046009429
:1048100001F0E6FA14E00B48008849F2884188422A
:1048200007D143462A46394630460094FEF7AAFD92
:1048300006E0EAB2434639463046009402F0CEFA2A
:10484000BDE8F8837811002000B59FB004200890DF
:104850000020099006200A9001200B9000200C9067
:104860000D900E90042001900020029008200390EB
:1048700001200490002005900690079006200F90DC
:1048800000201090119010201290002013901A9088
:104890001490159016904FF48050179000201890A7
:1048A00019901B9001A81D9008A81E900FA8FDF755
:1048B00091FB01210620FDF773FB1FB000BD000036
:1048C00038B5134C2468B4F90850854200DD2846F9
:1048D000B4F90C50954200DA2A46824217DBB4F94B
:1048E0000A508D4200DD2946B4F90E509D4200DA8F
:1048F0002B468B420BDB0093647C064B53F8244021
:10490000E3681D6913460A4601462046A84738BD9C
:1049100030120020481200202DE9F84306460F46C9
:1049200090469946089C16480088752807D14B4642
:10493000424639463046009401F0A6FA1DE0104880
:10494000008849F28841884207D14B4642463946A1
:1049500030460094FEF750FD0FE000250AE006EB1C
:104960000900401E82B2781981B22346304602F017
:104970009FF96D1C4545F2D300BFBDE8F8830000E8
:104980007811002001480088704700007A1100204B
:1049900070B505460E460E480088752805D131468B
:1049A000284601F0C9FA044610E00948008849F297
:1049B0008841884205D131462846FEF73DFD044630
:1049C00004E03146284602F043FA0446204670BD12
:1049D00078110020F8B515460E460124FDF762FF58
:1049E000009058B1C0680421426A684690470300AD
:1049F00004D02A4631460098984700242046F8BD46
:104A000001480088704700007C110020012105F05A
:104A100089B9022105F086B9AFF300802DE9F04194
:104A2000002809D0876837B10D4E716819B1046844
:104A3000B4F5807F02DD0020BDE8F081306884425B
:104A400000DD0446002507E057F82500FFF7A0F930
:104A5000716841F825006D1CA542F5DB7068EBE735
:104A60009812002010B5FFF7A1F9FFF7EDFE142012
:104A700006F0F6F8FEF75AFD04461548844206D1C2
:104A800049F2884013490880FEF7F8FC16E002F06E
:104A900087FA044645F22040844207D04BF2095081
:104AA000844203D045F22050844202D102F0ECF956
:104AB00004E075200749088001F08EFA002000F01C
:104AC00089F80020FFF74AF9FF2000F049F810BDEF
:104AD000668054007811002070B504460D461646D5
:104AE0000D480088752805D132462946204601F038
:104AF000E9FB10E00848008849F28841884205D166
:104B0000324629462046FEF7F1FC04E032462946AB
:104B1000204602F025FA70BD7811002010B50E4C29
:104B20000E492068407C51F8200050B1C1680968E6
:104B3000042903D000680028F8D102E008B1FDF78D
:104B4000AFFE20680021016600F108014161BDE867
:104B5000104000F025B8000030120020481200205C
:104B600010B504460648047006480088752803D12D
:104B7000204601F0BFFC02E0204600F05BF810BDCB
:104B80007E11002078110020044909680A7C520730
:104B900001D5C96B00E0896B0860704730120020B6
:104BA0000448016804484A7C083150F82200C26871
:104BB000126B104730120020481200200449096887
:104BC0000A7C520701D5896B00E0C96B0860704709
:104BD0003012002010B504460648047006480088CC
:104BE000752803D1204601F0C9FC02E02046FEF7FB
:104BF000E5FC10BD7F1100207811002001490968F3
:104C00008968084794120020F8B515460E4601241D
:104C1000FDF748FE009058B1C0680321426A68461B
:104C20009047030004D02A46314600989847002454
:104C30002046F8BD7CB5044642F210706043FF2167
:104C400090FBF1F564200123034A4021CDE90005E2
:104C5000024806F027FD7CBD0044014000140240DC
:104C600010B5074C2068006BFFF792F8FFF7A6FF1E
:104C70002068406BFFF78CF8BDE81040FFF784BF59
:104C80003012002070B586B00546142101A8FBF74C
:104C9000BFFDBDBB322005F0E3FF00242CE04FF444
:104CA0007A7005F0DDFF0120FCF7AEF901A921F8CB
:104CB000140001A830F814001C3000EE100AB8EE01
:104CC000C00AF0EE080A60EE200A9FED0F1A80EE8F
:104CD000810AF7EE000A30EE600AB1EE001AC0EE6B
:104CE000010A9FED0A0A20EE800ABCEEC00A10EE0F
:104CF000100A86B2601CC4B20A2CD0DB322005F048
:104D0000AFFF00BF06B070BD0000804500007A44D0
:104D100010B58AB00446012C7ED1002050490860AD
:104D200002208DF8040000208DF80600200200907B
:104D300001208DF8070003208DF8050069464948D9
:104D4000FDF7DCF9012208214648FDF71FFA002093
:104D5000ADF82400ADF81E00ADF81C008DF826005B
:104D600041480068089007A9404802F097FE0022D9
:104D700080213F48FDF73AFA012240213C48FDF7E7
:104D800035FA002221023B48FDF730FA00220121CA
:104D9000364802F02EFD6020ADF808000120ADF885
:104DA0000A000420ADF80C0040F2FF5004900020EF
:104DB000ADF814000220ADF81600C001ADF81800DF
:104DC0000020ADF81A0002A9284802F01BFD264871
:104DD000006840002549C8620B20088440F6B300F3
:104DE00048620021214802F04BFD01211F4802F0DA
:104DF000B9FC01211D4802F0D3FC01211B4802F03F
:104E0000C3FC0121194802F0B9FC0021174802F047
:104E1000A9FC0122114600E009E0144802F0E9FC77
:104E20000121124802F0B0FC012013490870ACB90E
:104E300000210E4802F0B4FC002280210C48FDF74E
:104E4000D5F9002240210A48FDF7D0F901221102CC
:104E50000848FDF7CBF90020074908700AB010BDDB
:104E6000F0100020000002407CC00008000001405B
:104E700000180240001C0240F41000201CB5012064
:104E80008DF8040000208DF806004FF4807000902B
:104E900000208DF8070003208DF8050069460F48B3
:104EA000FDF72CF94FF48070009069460C48FDF72F
:104EB00025F94020009069460A48FDF71FF90022B5
:104EC00040210848FDF792F9322005F0C9FE012281
:104ED00011020348FDF78AF91CBD000000000240E2
:104EE000001C02400018024010B54C220021394835
:104EF00006F036FD37480068B0F5827F69D04FF480
:104F0000827034490860C8200871C02081F82800E8
:104F1000A821304880F82910012180F82A10552155
:104F200080F82B10FF202B4981F82C00FF21294805
:104F300080F82D1080F82E10002180F82F10C0204E
:104F4000244981F83000A821224880F8311001213D
:104F500080F8321080F83310C0201E4981F83400E8
:104F6000A8211C4880F83510012180F83610562100
:104F700080F83710FF20174981F83800FF211548C5
:104F800080F8391080F83A10002180F83B10C020DA
:104F9000104981F83C00A8210E4880F83D100121FD
:104FA00080F83E1080F83F1000200A4981F8400048
:104FB00081F8410081F8420081F843001E2081F809
:104FC0004400012081F845004FF41650886402F037
:104FD000ABF910BD34130020F0B587B0FCF7F0FE3C
:104FE000FCF7ACFEFCF710FE0020ADF81400AC4856
:104FF0000088B0F5F07F06D1AA48AB49098800EBDC
:10500000C100C08805E0A948A749098800EBC10094
:10501000C088ADF8160049F69910ADF818000120C7
:10502000ADF81A00012639E116B10026FCF75AFB4B
:1050300003A904A802F0F6FE0546002DF3D0012DC9
:1050400004D0022D49D0032D7ED1BCE04FF0FF30BB
:1050500097490880974800789749097810FB01F430
:1050600026E0964800EB44100089944901EB441176
:10507000C988924F07EB4417CDE90010BB888F4FCA
:1050800007EB44177A88BDF80C70B9B2BDF8107000
:10509000B8B202F0F7FE48B120B2854908808749CE
:1050A00001EB4410012205A9FFF7BCFA601C84B291
:1050B000804800787F4909787F4A127811FB020006
:1050C000A04201DD062CCCDBBDF810007C49088035
:1050D000BDF80C007B490880DFE07548B0F900009E
:1050E000002838DB75487249B1F9001000EB411017
:1050F000008972496E4AB2F9002001EB4211C98859
:105100006E4FDFF8ACC1CDE90010BCF900C007EB71
:105110004C17BB88694FDFF898C1BCF900C007EB9A
:105120004C177A88BDF80C70B9B2BDF81070B8B2DF
:1051300002F0A8FE78B961495D4AB2F9002001EB9E
:105140004210002205A900E0A6E0FFF76BFA4FF03D
:10515000FF30574908805A480088002832DDBDF9E1
:10516000100057490988401A322810DD524800784B
:10517000002808DD50480078401E4F490870FCF7B1
:1051800043FDFCF7AFFA00204D4908801AE0BDF955
:1051900010004B490988401A10F1320F12DA4A48C0
:1051A0000078401E44490978884208DD424800786A
:1051B000401C41490870FCF727FDFCF793FA0020DA
:1051C0003F49088069E03A48B0F90000002862DBF6
:1051D0003A483749B1F9001000EB411000893749CE
:1051E000334AB2F9002001EB4211C988334FDFF88E
:1051F000C0C0CDE90010BCF900C007EB4C17BB885C
:105200002E4FDFF8ACC0BCF900C007EB4C177A8812
:10521000BDF80C70B9B2BDF81070B8B202F032FE31
:1052200058B326482249B1F9001000EB411000891B
:1052300022491F4AB2F9002001EB4211C988CDE989
:1052400000101E481A49B1F9001000EB4110838884
:105250001A481749B1F9001000EB4110428819486B
:1052600001881748008802F00DFE30B11748104938
:10527000B1F90010405C07B0F0BD10490C4AB2F91A
:10528000002001EB4210002205A9FFF7CBF94FF0F7
:10529000FF300749088000E000BF00BFC4E60000FF
:1052A0007C1100200CC00008E600002044C000086B
:1052B000E0000020DE000020DC0000201C000020B8
:1052C000E2000020E4000020DD00002004C000080F
:1052D0002DE9F0438FB000250026A946FCF770FDAC
:1052E000FCF72CFDFCF790FC0320ADF8340049F6E8
:1052F0009910ADF838000020ADF836000120ADF867
:105300003A0080464FF6FF70884A00901288A2F556
:10531000827291B2864A1288A2F2EE2290B24FF4C3
:10532000FA733C22FFF764FAFFE005F00BFEDDB1F3
:10533000B6F5FA7F18DA15E006F1370086B24FF4B9
:10534000FC607A4A00901288A2F5827291B2784A83
:105350001288A2F2EE2290B233463C22FFF7DCFA2A
:10536000781CC7B20A2FE7DBB8F1000F22D04FF04C
:1053700000080DA808906E480088C83880B2ADF8C3
:1053800016006A480088A0F5827080B2ADF8180057
:105390003C20ADF81A009620ADF81C0000208DF8D6
:1053A000280064A102A8FBF752FA02A8099005A8F8
:1053B000FFF710F80BA90CA802F034FD0446002CEE
:1053C000B2D0012C02D0032C46D146E096203C21DD
:1053D000DFF858C1CDE90010BCF800C0ACF5827C04
:1053E0001FFA8CF3DFF848C1BCF800C0ACF1C80C60
:1053F0001FFA8CF2BDF82CC01FFA8CF1BDF830C03A
:105400001FFA8CF002F03EFD30B30DA8089048481A
:105410000088C83880B2ADF8160044480088A0F56E
:10542000827080B2ADF818003C20ADF81A009620CA
:10543000ADF81C0001208DF8280025B93DA102A877
:10544000FBF705FA03E03DA102A8FBF700FA02A86A
:10545000099005A8FEF7BEFF66E096203C21DFF824
:10546000CCC0CDE90010BCF800C0ACF5827C1FFABE
:105470008CF3DFF8BCC0BCF800C0ACF1C80C1FFA5C
:105480008CF2BDF82CC01FFA8CF1BDF830C01FFAA9
:105490008CF002F0F7FC30B315BB01250DA8089085
:1054A00023480088C83880B2ADF816001F4800882D
:1054B000A0F5827080B2ADF818003C20ADF81A005B
:1054C0009620ADF81C0000208DF828001BA102A832
:1054D000FBF7BDF902A8099005A8FEF77BFF23E0C2
:1054E0000FB0BDE8F0830DA8089011480088C838B7
:1054F00080B2ADF816000D480088A0F5827080B229
:10550000ADF818003C20ADF81A009620ADF81C004C
:1055100000208DF8280007A102A8FBF798F902A83F
:10552000099005A8FEF756FF00BFFEE67A1100209D
:105530007C110020B2E2C1BF00000000CDA3D6B9AB
:105540000000000000BFFEE700B585B0802000909D
:1055500003208DF8050001208DF804008DF8060069
:1055600069462E48FCF7CAFD4FF4D0500090032046
:105570008DF8050001208DF804008DF806006946BD
:105580002648FCF7BBFD4FF48060009003208DF8A7
:10559000050001208DF804008DF8060069461F48BB
:1055A000FCF7ACFD00224FF400611C48FCF71EFE26
:1055B00000224FF400711948FCF718FEC82005F0CE
:1055C0004FFB012280211548FCF710FE00224FF40A
:1055D00080611248FCF70AFE4FF47A7003900920AC
:1055E000ADF808000020ADF81000ADF80A008DF805
:1055F000120002A94FF0804002F050FA0121880702
:1056000002F0BCF800214FF0804002F0ABF800221D
:105610000121880702F0EDF805B000BD001C024032
:1056200000B58DB00320ADF82C004FF6FF70ADF83B
:105630002E0049F69910ADF830000020ADF8320088
:105640000BAB41A264214FF49870FEF76BFC0BABDF
:1056500042A2C8214FF49870FEF764FCFEF75EFB8F
:105660004549087008460078002845D02920642163
:105670005B220023CDE90732CDE909101420032174
:105680001E22CDE90302CDE90510052032211422A6
:10569000CDE9002102901A460901184600F07EF873
:1056A000FEF73CFB344908700846007840B106E03C
:1056B0000BAB32A264214FF49870FEF733FCF7E78E
:1056C000282065215A22C823CDE90732CDE90910E7
:1056D000142003211E22CDE90302CDE90510052087
:1056E000322114220023CDE9002102900122090178
:1056F000184600F053F825E00020274908702820BC
:1057000065215A22C823CDE90732CDE909100020CE
:105710001E22CDE90302059011461422069003468D
:10572000CDE900210290012241F2707100F036F8BB
:105730001948007830B90BAB10A264214FF498706F
:10574000FEF7F0FB0DB000BDC392C387C386C3B79D
:10575000C397C394C2BCC3AC00000000C2B4C3B3BF
:10576000C2B5C3A7C2BBC3BAC2B3C3B5C38AC2BCA6
:10577000C2BBC2AF0000000032110020C2B9C3A2F8
:10578000C2B5C3A7C2BFC2AAC2B9C398C392C3ACB1
:10579000C2B3C2A300000000311100202DE9F05F68
:1057A00005460E4614461F46DDE90AABDDE90C89C5
:1057B00000224FF480614A48FCF718FD129803F06C
:1057C00021FB139803F01EFB149803F01BFB4548C4
:1057D0000570012251024248FCF708FD22464FF4B1
:1057E00080513F48FCF702FD1E2005F039FA0022E7
:1057F00080213B48FCF7FAFC00203B4908804FF62B
:10580000FF7000EA8600394908804FEA4A60000EBE
:10581000374908704FEA4B60000E36490870364829
:1058200080F800803548A0F800900E984006000EE1
:105830003349087033490F9808703349109808802D
:1058400032491198088032480470012C05D1314842
:10585000006840F400502F49086040F66F204FF078
:105860008041C86201221146900701F0C2FF012168
:10587000880701F089FF6FB14FF4967005F0F0F9D9
:10588000FBF752FE00BF08FB09F0C8301649098833
:105890008842F8DA07E0FEF741FA20B11C480078A8
:1058A000012800D108E011480088184909880844F7
:1058B0000D4909888842EEDC00BF002201218807DB
:1058C00001F097FF00214FF0804001F05DFFFF20C5
:1058D0000F490870002004490880BDE8F09F0000CF
:1058E000001C024010110020141100201211002091
:1058F0001611002017110020181100201A11002085
:105900001C1100201D1100201E110020201100205C
:1059100023110020003C0140704708B54FF4A060FF
:1059200000F086F824208DF8000001208DF8010099
:1059300000208DF8020001208DF80300684600F079
:105940003BF828208DF8000005208DF8010000208C
:105950008DF8020001208DF80300684600F02CF855
:1059600019208DF8000004208DF8010001208DF829
:1059700002008DF80300684600F01EF81C208DF828
:10598000000003208DF8010001208DF802008DF841
:105990000300684600F010F81D208DF80000032079
:1059A0008DF8010002208DF8020001208DF803001F
:1059B000684600F001F808BD70B5002100230F22F1
:1059C000C4781CB3174C246804F4E064C4F5E064A4
:1059D000C4F30721C1F10404E3B20A4144789C40B6
:1059E000E1B28478144021430C07210E0E4C057857
:1059F0006155047804F01F050124AC4005786D1151
:105A0000AD0005F1E025C5F8004109E0047804F097
:105A10001F050124AC40054D0678761145F8264057
:105A200070BD00000CED00E000E400E080E100E06B
:105A300002490143024A1160704700000000FA0564
:105A40000CED00E070B52DED0A8B0920FBF750FF3F
:105A5000174804680A2005F003F90820FBF748FFFF
:105A6000134805682846FBF794F841EC1B0B2046C9
:105A7000FBF78FF841EC1C0B53EC1B2BFBF709F8E1
:105A800041EC1A0B9FED0B0B53EC102BFAF78FFF29
:105A900041EC190B9FED090B53EC102BFAF781FF2A
:105AA00041EC180BFBF78EF806B2BDEC0A8B70BD0B
:105AB000281100200000000000409F40000000006E
:105AC00000408F4010B58CB00120FCF703F8AB20EC
:105AD00003F098F9B52003F095F900243AE000208E
