:020000040800F2
:10000000E89A0020C1010008E12F0008751A0008D5
:10001000052F0008C50800080F5100080000000067
:10002000000000000000000000000000D3010008F4
:100030001D09000800000000D70100089D410008CC
:10004000DB010008DB010008DB010008DB01000820
:10005000DB010008DB010008DB010008DB01000810
:10006000DB010008DB010008DB010008DB01000800
:10007000DB010008DB010008DB010008DB010008F0
:10008000DB010008DB010008DB010008DB010008E0
:10009000DB010008DB010008DB010008DB010008D0
:1000A000DB010008DB010008DB010008DB010008C0
:1000B000A942000871440008DB010008DB010008C8
:1000C000DB010008DB010008DB010008DB010008A0
:1000D000653D0008DB010008DB010008DB010008CA
:1000E00021090008DB010008DB010008DB01000832
:1000F000DB010008DB010008DB010008DB01000870
:10010000DB010008E13A000811450008DB010008A6
:10011000DB010008DB010008DB010008DB0100084F
:10012000DB010008DB010008DB010008DF08000834
:10013000DB010008DB010008DB010008DB0100082F
:10014000DB010008DB010008DB010008DB0100081F
:10015000DB010008DB010008DB010008DB0100080F
:10016000DB010008DB010008DB010008DB010008FF
:10017000DB010008DB010008DB010008DB010008EF
:10018000DB010008DB010008DB010008DB010008DF
:10019000DB010008DB010008DB010008DB010008CF
:1001A0000000000000000000DB010008DFF80CD0B8
:1001B00000F096F800480047D97B0008E89A002034
:1001C0000648804706480047FEE7FEE7FEE7FEE7F1
:1001D000FEE7FEE7FEE7FEE7FEE7FEE74142000836
:1001E000AD01000810B5431A934209D2831888184C
:1001F00003E010F8011D03F8011D521EF9D210BDD5
:1002000040EA01039B0703D009E008C9121F08C098
:10021000042AFAD203E011F8013B00F8013B521E18
:10022000F9D210BD30B504460020034600E05B1C47
:10023000934203D2E05CCD5C401BF8D030BD2DE989
:10024000F05F0546002092469B468846064681465A
:1002500040241BE0284641464746224600F02FF83E
:1002600053465A46C01A914110D3114618462246A9
:1002700000F016F82D1A67EB01084F4622460120C0
:10028000002100F00DF817EB00094E41201EA4F1EB
:100290000104DFDC484631462A464346BDE8F09F6C
:1002A000202A04DB203A00FA02F100207047914036
:1002B000C2F1200320FA03F3194390407047202A2B
:1002C00004DB203A21FA02F00021704721FA02F300
:1002D000D040C2F120029140084319467047000007
:1002E000064C074D06E0E06840F0010394E8070083
:1002F00098471034AC42F6D3FFF75CFF948C0008AB
:10030000B48C000870B58D1810F8014B14F003027E
:1003100001D110F8012B231106D110F8013B03E0A5
:1003200010F8016B01F8016B521EF9D1B3B110F84E
:10033000012B04F00C048A1A0C2C04D0A2EB8412BA
:1003400003F1020308E010F8014BA2EB0422F7E7E7
:1003500012F8014B01F8014B5B1EF9D5A942D3D32A
:10036000002070BD21B1826842F00102826003E08A
:10037000826822F0010282607047000000210A4A70
:1003800011680A4A01EA0201D0E9002342EA0302A5
:10039000836842EA0302C36842EA030242EA0101B7
:1003A000034AC2F80413704704230140E030FCFF05
:1003B0000020014000B58DB00121454803F0F2FA5C
:1003C0000121080203F02EFB0220019003208DF88A
:1003D000080000208DF80B0001A93E4800F008FC41
:1003E0000120019003208DF8080000208DF80B00FB
:1003F00001A9394800F0FCFB0220019003208DF890
:10040000080000208DF80B0001A9334800F0F0FB34
:100410001020019003208DF8080000208DF80B00BB
:1004200001A92E4800F0E4FB2020019003208DF864
:10043000080000208DF80B0001A9284800F0D8FB27
:1004400000F050F80020039004900590069003A857
:10045000FFF794FF0020079001208DF820008DF811
:100460002100002009900B9001208DF8300007A991
:100470001B4800F053F8012240F20521184800F013
:100480003CF8072305220121154800F071F80723E5
:1004900001220821124800F06BF8072302220921EB
:1004A0000F4800F065F8072303220E210C4800F0E6
:1004B0005FF8072304220F21094800F059F80121B1
:1004C0000748FFF74FFF064800F0AEF80DB000BD3B
:1004D0000600400000000240000402400008024004
:1004E0000020014010B50121080203F0ABFA002101
:1004F0004FF4807003F0A6FA10BD10B50B46002132
:10050000D9B2012404FA01F11AB144680C434460E1
:1005100002E044688C43446010BD000030B50246E0
:10052000002000235068104C20400D790C6844EAEC
:1005300005242043506090680C4C2040D1E90354BE
:100540002C438D682C434D7944EA45042043906048
:10055000D06A20F470000C7D641EE4B2234340EAAC
:100560000350D06230BD0000FFFEFFFCFDF7FFC06E
:10057000F0B504460D4600200021092D11DDE0688C
:10058000A5F10A0606EB4607072606FA07F1884397
:10059000A5F10A0606EB460603FA06F10843E060F9
:1005A0000CE0206905EB4507072606FA07F18843AA
:1005B00005EB450603FA06F108432061072A0FDA26
:1005C000606B561E06EB86071F2606FA07F1884366
:1005D000561E06EB860605FA06F10843606322E024
:1005E0000D2A0FDA206BD61F06EB86071F2606FAA8
:1005F00007F18843D61F06EB860605FA06F1084385
:10060000206310E0E06AA2F10D0606EB86071F26C4
:1006100006FA07F18843A2F10D0606EB860605FAF5
:1006200006F10843E062F0BD816841F080418160DD
:100630007047000000B587B00121880303F0D2F9AC
:1006400002208DF818008DF8190000208DF81A008E
:100650008DF81B004FF43040059005A9664800F066
:10066000C7FA4020059005A9644800F0C1FA0522A8
:100670000C21614800F004FB05220D215E4800F0CA
:10068000FFFA05220F215C4800F0FAFA0522062144
:100690005A4800F0F5FA4FF48040059001208DF89B
:1006A000180000208DF81A008DF81B0002208DF82C
:1006B000190005A9504800F09BFA4FF480400590BE
:1006C00001208DF8180000208DF81A008DF81B000D
:1006D00002208DF8190005A9494800F089FA4FF465
:1006E0008070059001208DF8180000208DF81A0008
:1006F0008DF81B0002208DF8190005A9414800F073
:1007000077FA002003F0CEF9012003F0D1F900BF01
:100710003B2003F0A7F90028FAD00121880303F059
:1007200061F9394803F09EFB4FF44070ADF80400C6
:100730000020ADF806000520ADF808004FF4007069
:10074000ADF80A004FF4965003900020ADF8100069
:1007500001A92D4801F0C4F901212B4801F0B4F999
:100760004FF40051244800F0B7FA4FF4805122486A
:1007700000F0B2FA4FF48041214800F0AFFA4FF494
:100780008071204800F0AAFA4FF480411A4800F026
:10079000A3FA8021194800F09FFA4FF4005118483D
:1007A00000F09AFA052006F01DFA4FF48041124835
:1007B00000F094FA4FF480510F4800F08FFA0122B4
:1007C0006021114803F0C9FB00BF10480068B0F574
:1007D000E15FFAD30E480068B0F5E15FF5D3002081
:1007E0000A4908600A49086000226021064803F0AF
:1007F000B4FB07B000BD0000000402400008024046
:10080000001C024000180240003800402410002064
:100810002810002010B504462146512003F0B0F8FE
:1008200010BD2DE9F04105460C4616461F46DDF881
:100830001880E9B2582003F0A3F82912592003F0D8
:100840009FF8E1B25A2003F09BF8B8F1000F04D1F1
:1008500021125B2003F094F805E0802040EA242177
:100860005B2003F08DF8F9B25C2003F089F83912AF
:100870005D2003F085F8F1B25E2003F081F83112BB
:100880005F2003F07DF8BDE8F081000010B5012085
:1008900004490870502003F005F8802003F03CF86C
:1008A00010BD00004011002010B500BF02F098FEFE
:1008B00000F040004028F9D000200149087010BD28
:1008C0004011002000BFFEE770B50446049D581A91
:1008D0002E1B7043161B90FBF6F0084470BD10B53C
:1008E00003F012F910BD00000246094B9A4201D2F2
:1008F000084801E00648103811F0005F03D0064BAD
:100900000B40C36002E0044B0B4083607047000063
:1009100010640240006002407D0F7D0F70470000B0
:1009200010B5802000F062F810B31248007801285A
:100930001BD11148008811490988084400F5FA7054
:100940000F49088000220121880703F058FE00218A
:100950004FF0804003F01EFE0A48006820F400506B
:1009600008490860012008490870802000F00EF84E
:1009700010BD00003D1000202C1000203A10002077
:100980002E100020003C014040100020014908606A
:1009900070470000143C01401FB50121880303F09B
:1009A00041F88020029000208DF80C008DF80E0098
:1009B0008DF80F0002208DF80D0002A90A4800F002
:1009C00017F90C21052003F017FB80200090002070
:1009D0008DF8040008208DF8050001208DF8060030
:1009E000684600F00FF81FBD000C024001460020D1
:1009F000034A12680A4201D0012000E0002070473B
:100A0000143C0140002123498279002A3AD00A4649
:100A1000126803689A430B461A600A1D126803683D
:100A20009A430B1D1A60027911440A6803681A433D
:100A30000A60184A0832126803689A43154B083353
:100A40001A601A1D126803689A43124B0C331A601D
:100A50004279102A0ED11A1F126803681A430D4BEF
:100A600008331A601A1D126803681A43094B0C33C5
:100A70001A600DE00749427911440A6803681A4375
:100A80000A6005E0027911440A6803689A430A6023
:100A900070470000003C014051B14FF0204252F835
:100AA000202042F001024FF0204343F8202009E0CB
:100AB0004FF0204252F82020034B1A404FF02043C1
:100AC00043F8202070470000FEFF0F0010B5002102
:100AD000D0E901231A43C3681A4303691A434369DF
:100AE0001A4383691A43C3691A43036A1A43436A60
:100AF0001A43836A1A43C36A1A43036B1A43436B4C
:100B00001A434FF02044036844F823208268082ADF
:100B100008D12346026853F8222042F040020368BD
:100B200044F82320426BB2F5801F19D10268BAB194
:100B30004FF02042526822F470014FF020421268B8
:100B4000436B1A434FF020431A601A46126842F46E
:100B500080721A60826B128A521E41EA02525A60F7
:100B6000826B1268836B5B6842EA0312836B9B683B
:100B700042EA0322836B9B8942EA0342836B1B8A0E
:100B800042EA0352836B1B7D42EA0362836B9B69DB
:100B90001A4303685B1C4FF0204444F82320826A08
:100BA000B2F5804F1AD1C26B1268C36B5B6842EA20
:100BB0000312C36B9B6842EA0322C36B1B8A42EA9F
:100BC0000352C36B1B7D42EA0362C36B9B691A43EA
:100BD000036804EB8303C3F8042108E06FF070425C
:100BE0004FF02044036804EB8303C3F8042110BDD5
:100BF000F0B50A4600210023002400BF3DE0012596
:100C000005FA01F3156805EA03049C4234D105682E
:100C10004F000326BE40B543056015794E00B54030
:100C20000668354305601579012D02D01579022D2E
:100C300016D185684F000326BE40B54385605579BF
:100C40004E00B540866835438560456801268E4074
:100C5000B5434560456896798E40B6B235434560E8
:100C6000C5684F000326BE40B543C560D5794E0028
:100C7000B540C6683543C560491C1029BFD3F0BDD7
:100C8000F0B5002300244D07ED0E02FA05F3CE1057
:100C900000F1200555F826504E07F70E0F26BE40EE
:100CA000B543CF1000F1200646F82750CE1000F1D2
:100CB000200555F8265045EA0304CE1000F1200522
:100CC00045F82640F0BD0246002013690B4201D0D2
:100CD000012000E000207047418370470183704786
:100CE0000AB1018300E041837047000010B5002085
:100CF0000949487000F052F80446214607A005F063
:100D00007FFC6A220B4940F2A26000F05FF90120EB
:100D10000149087010BD00008C9400204754383100
:100D2000312056657273696F6E203A202530345831
:100D30000D0A0000C81000202DE9F04105460E46BE
:100D4000174606F001FFBA2006F0D6FE06F026FF91
:100D5000281206F0D1FE06F021FFE8B206F0CCFE24
:100D600006F01CFF06F0F0FEBB2006F0C5FE06F004
:100D700015FF002406E006F09DFE305506F04AFE01
:100D8000601CC4B2781EA042F5DC06F093FE30551C
:100D900006F07CFE06F0F0FEBDE8F08108B5022208
:100DA000694640F21770FFF7C7FF9DF801009DF8F4
:100DB000001000EB012080B208BD000070B58CB0BF
:100DC0007348007808B90CB070BD71484078142899
:100DD00000DAF8E700206E4948700122694640F2C7
:100DE0002170FFF7A9FF9DF8000010F0010F0ED150
:100DF00068480078012809D10020664908706648D3
:100E0000028866480188032003F09EFEDBE721226A
:100E10000DF1010140F22270FFF78EFF9DF80000F6
:100E20005B4988709DF80100C8709DF803009DF82B
:100E3000021000EB0120564988809DF805009DF8BE
:100E4000041000EB01205249C8809DF8060008728A
:100E50009DF808009DF8071000EB01204C494881DF
:100E60009DF80A009DF8091000EB0120484988818F
:100E70009DF80B0088739DF80D009DF80C1000EB99
:100E80000120434908829DF80F009DF80E1000EBE9
:100E900001203F4948829DF8100008759DF8180010
:100EA0009DF8111000EB01203949C8829DF81A0005
:100EB0009DF8191000EB0120354908839DF81B00AF
:100EC00088769DF81D009DF81C1000EB012030492C
:100ED00088839DF81F009DF81E1000EB01202C490F
:100EE000C8839DF8200081F820000846C5888088C6
:100EF00040F2DF11081A86B22648007838B901207E
:100F0000244908703246294603F01EFE04E03246AA
:100F10002946022003F018FE204805801E4806805E
:100F2000002406E01DF804101DA005F069FB601CFC
:100F3000C4B2222CF6DB1CA005F062FB1448037A35
:100F4000C288818819A005F05BFB1148837B8289E8
:100F5000418916A005F054FB0D48037D428A018AA1
:100F600012A005F04DFB0A48837E028BC18A0FA0B8
:100F700005F046FB064890F82030324629460BA083
:100F800005F03EFB08A005F03BFB00BF1BE700009F
:100F90008C940020321100203611002034110020E2
:100FA00025303258200000000D0A00002825356445
:100FB0002C2535642C253364292000000248407814
:100FC000401C0149487070478C9400202DE9F04185
:100FD00004460E46174606F0B7FDBA2006F08CFD13
:100FE00006F0DCFD201206F087FD06F0D7FDE0B22A
:100FF00006F082FD06F0D2FD002506E0705D06F0E9
:101000007BFD06F0CBFD681CC5B2BD42F6DB06F0E9
:10101000B3FDBDE8F08100002DE9F04FDFF828B105
:1010200091B04FF0FF35DBF80030B3F92210069194
:10103000DE69B3F92490F469A189814206D8E28976
:10104000824203D3471AD4F8008012E0D4E9018128
:1010500000296FD00A8882426CD84D88854269D3B6
:10106000801A82B2486800EB8200B0F90070B0F9D3
:101070000250781C5ED0307EA17C10FB01FA217CEE
:10108000CDE90801B3F92A60304601F0A7FDC0B2EE
:101090000E90DBF8000007FB0A81A37C826B01271E
:1010A000CDE90412CDE90273C069DDE90832C17EE1
:1010B000807ECDE900014946069801F037FB681CA7
:1010C00018D046F0020001F089FDDBF80000A37C97
:1010D00005FB0A81826BCDE90273CDE90412C06978
:1010E000DDE90832C17E807ECDE9000149460698DF
:1010F00001F01CFBDBF800005D46C069417E007E0C
:10110000814214D9022E12D086F0040001F066FD4F
:101110002868C069027EC37E12FB0391437E857EF0
:10112000099A06984B4402FB050201F03FFC0E9819
:1011300001F054FDDBF80000627C418C11444184D5
:1011400011B0BDE8F08F000068110020044800686D
:10115000C069C06909B1027C0A60407C7047000028
:1011600068110020022008807047C06982898A4285
:1011700002D8C2898A4210D2806880B102888A422D
:101180000DD843888B420AD3406800EB8100A0EB66
:101190008200B0F90000002801DB01207047002028
:1011A0007047002801D004F049BC704710B50028F2
:1011B00014D004460A48006B10F8341000290DD0F2
:1011C00002290BD2042101EBC4014158486804F004
:1011D000F9FB2046BDE8104004F0A2BE10BD00009F
:1011E000B0940020002805D0034A916B016001B142
:1011F0004860906370470000B094002010B5002450
:1012000004F0C2FD0C490F2001EBC002126C1AB1B0
:1012100001EBC000006C08E0401EF5D508E0416815
:10122000A14200D90C46806810B180680028F6D130
:10123000A4F10C0010BD0000B094002005498A699B
:10124000521C8A61096B01EBC0010A78521C0A70BA
:1012500000F01AB8B09400200A4902680B6B52F8EB
:10126000082C03EBC2021378022B03D38B690BB15A
:101270005B1E8B611178491E1170002101600846C8
:1012800070470000B0940020002806D003490422D3
:1012900002EBC000096B085808307047B09400207A
:1012A00070B506460D461446104600F0D7F8030008
:1012B000164804EB84010AD050F821004168806888
:1012C000711A2A1ABDE87040184600F0B1B900EB57
:1012D0008104A268B24201D0012200E00022E3684A
:1012E000AB4201D0012300E000231A430CD0236954
:1012F00043B150F82100816840686A1A311A1846D3
:1013000000F088F9C4E9026570BD0000A8960020CD
:10131000FFF768BF70B590B38269022A30DA1C4CBF
:1013200054F8221019B944F822002FE019464B68EE
:10133000002BFBD106E0CB68C5681B682D68AB426B
:1013400003DD09680029F6D11AE0C1B1CB68C6688F
:101350001B683668B3420CD1838A012B05D008E0A4
:101360001946DB681B68AB4203DB0B68002BF7D127
:1013700029B14B6833B118604A68426004E0FFE766
:10138000012070BD44F8220048600160002070BD5B
:101390008011002005F014B9022801DB00207047FD
:1013A000054951F8200004E0C16809680029F6D019
:1013B00000680028F8D170478011002008B50B465E
:1013C000002805D0009281888268C08800F001F86A
:1013D00008BD10B50828029C30D008DC04FB01F4DD
:1013E00001280AD0022813D0042804D11CE01028B8
:1013F00028D020282CD0002010BD04EBD30003F00F
:101400000701105CC1F10701C84000F0010010BDE8
:1014100004EB93000621105C01EA4301C1F10601CF
:10142000C84000F0030010BD04EB5300D907105C66
:1014300002D000F00F0010BD000910BD04FB013008
:10144000105C10BD481004FB003032F8100010BDD5
:10145000881004FB003052F8200010BD0021022843
:1014600002D2024951F82010084670474412002069
:1014700070B514460D4601F0C5FA002802D00020D0
:101480002860206070BD000038B5040018D00D48F9
:101490000068006EA04201D100F0C1F82046FFF7BD
:1014A000CDFE0090406908B100F0C8F900980068CE
:1014B000FFF72EFF6846FFF7CFFE2046FFF776FEC8
:1014C00038BD000068110020F8B5134E05003068E3
:1014D000046E0CD00CB100F0A2F803F023FE2846F5
:1014E000FFF7ACFE009031680A6E1AB106E000F01A
:1014F00096F80EE0D1E90223C1E919230D660068D0
:10150000FFF708FF6846FFF7A7FE01F099FB01F01F
:1015100037FB2046F8BD00006811002010B50028F8
:1015200021D009B30AB3B1F90040B2F900309C42AE
:1015300000DA23460380B1F90240B2F902309C423E
:1015400000DA23464380B1F90440B2F904309C42EA
:1015500000DD23468380B1F90610B2F906209142DE
:1015600000DC1146C18010BD11460A68026049685E
:10157000416010BD00280BD003880B440380838892
:1015800019448180418811444180C1881144C1803F
:101590007047000070B5104D0446D5E9000188423F
:1015A0000ED10E49884203D1D0E90F12406C03E0FE
:1015B0000C38D0E9001280682160C4E9012006E0FF
:1015C00090E80E0084E80E0004F0D4FB2860207A36
:1015D000002800D0012070BD3C1200201896002089
:1015E0000448D0E90010814201D101207047002059
:1015F000704700003C120020054A10B503491160F5
:1016000004F024FFBDE8104000F014B8B151000808
:1016100088110020002801D004F09CBD704710B54F
:1016200001F06CFA01F00CFBBDE8104003F072BD54
:1016300001F0DABA02480068002800D0004770477D
:101640004C1200202DE9F047524D534E0024E8691A
:1016500078B96868346000F00501746010F0060F16
:1016600001D000F00500B460F46004F059FD0120E1
:10167000E8612878C8B100F0D3F8A846286100F0E6
:10168000CDF82969286A81420BDBD8F8242040462E
:10169000914206DC836A42699A4202DBC36A9A423B
:1016A0000DDD4FF0FF3001466FE000F0C1F86861DA
:1016B00000F0B5F82878401C2870BDE8F087326843
:1016C00098F81800354F8D1A400700283868407C7C
:1016D00002DB01F0ADF901E001F0ADF9401E454338
:1016E000D6E90020B146801A95FBF0F6D8F8142010
:1016F000D9F8081098F81800551A400700283868DB
:10170000407C02DB01F097F901E001F091F9401E05
:101710004543D9E90201081A95FBF0F598F818003D
:10172000400700283868407C18DB01F081F98146C9
:101730003868407C01F07FF9D8F818200146D007BE
:1017400004D0A9EB0600A0F1010000E030469207AA
:1017500002D5491B491E18E0294616E001F06BF935
:1017600081463868407C01F063F9D8F81820D10729
:1017700004D0A9EB0601A1F1010100E03146920776
:1017800002D5401B401E00E0284604F08BFE88F87E
:10179000004092E794110020F0950020681100208D
:1017A000074A002806DB002904DB01231372C2E983
:1017B000000101E000201072014800F003B80000B1
:1017C0000096002010B504460C220749FEF72AFDBA
:1017D000002808D0044894E80E000EC02046BDE85A
:1017E0001040FFF709BF10BD0C96002030B40A4C22
:1017F0002268831A01D5C3F1000362688A1A00D5F2
:1018000052421A44022A04DDC4E9000130BCFFF749
:10181000C7BF30BC70470000C4110020704770473C
:1018200010B503F0A7FA0148808C10BD3C9400204D
:101830000148C08C704700003C94002038B5054634
:10184000FFF7FCFC00908189491E0CB28481684638
:10185000FFF702FD002C02D12846FFF7A7FC38BD98
:10186000704710B5082A0EDC0346012A1AD0022A56
:1018700058D0042A78D010F8042B03F8012B491E05
:10188000F9D1012010BD102A0ADC0222022AF8D167
:10189000024630F8043B22F8023B491EF9D1F0E73A
:1018A000002010BD10F8042BD207120E491E34D0B0
:1018B00010F8044B491E04F0010442EA84122CD0B3
:1018C00010F8044B491E04F0010442EA441224D0EB
:1018D00010F8044B491E04F0010442EA04121CD023
:1018E00010F8044B491E04F0010442EAC40214D06B
:1018F00010F8044B491E04F0010442EA84020CD0A3
:1019000010F8044B491E04F0010442EA440204D0DA
:1019100010F8044B04F00104224303F8012B0029C2
:10192000C0D1AEE710F8042B9207120E491E15D055
:1019300010F8044B491E04F0030442EA04120DD0CF
:1019400010F8044B491E04F0030442EA840205D057
:1019500010F8044B04F003042243491E03F8012B42
:101960000029DFD18DE7FFE710F8042B1207120ED4
:10197000491E05D010F8044B04F00F042243491E01
:1019800003F8012B0029EFD17BE7B0F90030B1F962
:101990000020934200DA0280B0F90230B1F902204F
:1019A000934200DA4280B0F90430B1F90420934246
:1019B00000DD8280B0F90620B1F906108A4200DD10
:1019C000C180704770B5B1F90040B2F900309C4257
:1019D00000DD23460380B1F90250B2F90240A5426E
:1019E00000DD2C464480B1F90460B2F90450AE42E7
:1019F00000DA35468580B1F90610B2F90620914229
:101A000000DB1146C1809D4201DBA14201DA0020CA
:101A100070BD012070BD000002494A694260486102
:101A2000704700005C11002010B502E000F8011BB7
:101A3000521E0AB18307F9D1930818D001EB014473
:101A400002F0030204EB042405E0046044608460B7
:101A5000C46010301B1F042BF7DA01E010C05B1EBE
:101A6000002BFBD103E000BF00F8011B521E002A2F
:101A7000FAD110BD08A100200AE00A5C114B9A803F
:101A800000BF104A128812F0400FFAD0421CD0B2A8
:101A90002A28F2D300BFFEE70D0A456E7465722056
:101AA000486172644661756C745F48616E646C6510
:101AB000722C2053797374656D2048616C742E0DFF
:101AC0000A0000000010014021B1828B42F48062C4
:101AD000828304E0828B4FF6FF331A408283704783
:101AE0002DE9F04F002502230024012700220026C3
:101AF000944690469146B0F81CA04FF2400B0AEA7B
:101B00000B0AA0F81CA04FF0020AA0F820A0858BB9
:101B1000D1F808A0BAF1020F01D100BF6AE0B1F814
:101B200004A0BAF1000F01D1012700E00227DFF87D
:101B30000CA1DAF800A01AF4000F09D0DFF8FCA01D
:101B4000DAF800A02AF4000ADFF8F0B0CBF800A021
:101B5000DFF8E8A00AF17C0ADAF800A0CAF38818D6
:101B6000DFF8D8A00AF17C0ADAF800A0CAF30279FB
:101B7000DFF8C8A0AAF1040ADAF800A00AF03F0CC6
:101B8000DFF8BCA0BAFBFCFA0AFB08FABAFBF9F6CC
:101B9000B1F806A0BAF5007F0ED14FEA162A0AEB7B
:101BA0008A0A4FEA4A0AD1F808B0BAFBFBFA0AF1EE
:101BB000050A1FFA8AF20FE04FEA471AB6FBFAFA53
:101BC0000AEB8A0A4FEA4A0AD1F808B0BAFBFBFAD4
:101BD0000AF1050A1FFA8AF24FF00A0AB2FBFAF27A
:101BE00002F00104A2EB040ACAF34F034FF6FF7A96
:101BF0000AEA0424022B01DBFF2B01DD022300246F
:101C0000B1F806A04AEA040A4AEA030AA0F820A0AA
:101C1000B1F804A0B1F80CB04AEA0B0AB1F802B06E
:101C20004AEA0B0AB1F800B04AEA0B0A4AF4006A21
:101C30004AEA05058583BDE8F08F000008380240B8
:101C400040787D0170B50446124803881248028826
:101C50000021084600F016F92C204FF0D8410880EA
:101C60000D4909880B4A128801FB02F0C11700EBED
:101C70005171CE10002509E00848048004800480DA
:101C8000048004800480048004806D1CB542F3D37A
:101C900070BD0000B4100020B21000200000086CDD
:101CA0002DE9F04104460D460026B046002729469E
:101CB000204600F085F82E204FF0D84108800848D3
:101CC000068806880788B0F80080F012C0024FEA44
:101CD000A82140EA411040EAE720BDE8F081000079
:101CE0000000086C10B500F045F80446A4F5A90002
:101CF000663828D100F05EFB0020134908701222DC
:101D00000121084600F024F801210846FFF7C8FF2A
:101D10000E49088034220121084600F019F80121FB
:101D20000846FFF7BDFF09490880562201210846F1
:101D300000F00EF801210846FFF7B2FF03490880C2
:101D400049F28840088010BD39110020B0100020F1
:101D500070B505460E4614463146284600F030F868
:101D60002C204FF0D84108800148048070BD00004D
:101D70000000086C08B504204FF0D84108800F48D7
:101D80000088C0B28DF800000C480088C0B28DF801
:101D900001000A480088C0B28DF802000748008898
:101DA000C0B28DF803009DF8010000049DF80210F8
:101DB00000EB01209DF80310084408BD0000086CEA
:101DC00070B504460D462A2000F08CF8201200F071
:101DD0008DF8E0B200F08AF8201200F087F8E0B247
:101DE00000F084F82B2000F07DF8281200F07EF837
:101DF000E8B200F07BF8281200F078F8E8B200F0C2
:101E000075F870BD10B50446362000F06BF85CB96B
:101E1000A82000F06BF84FF4A070184908804FF428
:101E2000F0701749088028E0012C0BD1682000F0E1
:101E30005DF84FF4A070114908804FF4F07010491C
:101E400008801AE0022C0BD1C82000F04FF84FF4A4
:101E5000F0700A4908804FF4A070094908800CE02E
:101E6000032C0AD1082000F041F84FF4F070034928
:101E700008804FF4A0700249088010BDB210002005
:101E8000B41000202DE9F04104460D4616461F46C9
:101E90002A2000F027F8201200F028F8E0B200F025
:101EA00025F8E119491EC1F3072000F01FF8E119D8
:101EB000491EC8B200F01AF82B2000F013F82812BF
:101EC00000F014F8E8B200F011F8A919491EC1F3A6
:101ED000072000F00BF8A919491EC8B200F006F857
:101EE000BDE8F0814FF0D841088070470149088073
:101EF000704700000000086C10B50021084601F092
:101F000025FF4FF48071012001F020FF4FF4807114
:101F1000022001F01BFF41F21801032001F016FF1F
:101F200040F60801082001F011FF0121092001F00D
:101F30000DFF10210B2001F009FF00210C2001F002
:101F400005FF00210F2001F001FF0121072001F012
:101F5000FDFE1321102001F0F9FE40F20151112085
:101F600001F0F4FE4FF44071122001F0EFFE40F258
:101F70001E21202001F0EAFE40F20221212001F082
:101F8000E5FE4FF40041902001F0E0FE41F2B07117
:101F90004FF4807001F0DAFE40F2471140F2011078
:101FA00001F0D4FE40F235114FF4817001F0CEFE05
:101FB0004FF4E06140F2031001F0C8FE002140F24E
:101FC000071001F0C3FE01214FF4887001F0BEFE3E
:101FD00000214FF4047001F0B9FEEF2140F211200E
:101FE00001F0B4FE002140F2122001F0AFFE40F2F9
:101FF0008F1140F2132001F0A9FE00214FF4207050
:1020000001F0A4FE042140F2812001F09FFE002196
:1020100040F2822001F09AFE40F201114FF440702C
:1020200001F094FE40F62C3140F2013001F08EFEBA
:1020300041F2300140F2023001F088FE43F210011B
:1020400040F2033001F082FE42F60B414FF4417042
:1020500001F07CFE40F2011140F2053001F076FE05
:1020600040F6070140F2063001F070FE4FF4E161E6
:1020700040F2073001F06AFE40F207114FF442705F
:1020800001F064FE40F2051140F2093001F05EFEFD
:1020900040F6047140F20A3001F058FE4FF47061CE
:1020A00040F20B3001F052FE0F214FF4437001F06B
:1020B0004DFE40F20F4140F20D3001F047FE4FF46B
:1020C000407140F20E3001F041FE40F2017140F2E9
:1020D0000F3001F03BFE4FF454514FF4806001F09B
:1020E00035FE012140F2014001F030FE002140F2B6
:1020F000044001F02BFE00214FF4A06001F026FE09
:10210000002140F2015001F021FE002140F2025076
:1021100001F01CFE002140F2035001F017FE0021E7
:1021200040F2045001F012FE002140F2055001F08F
:102130000DFE00214FF4C06001F008FE002140F2C6
:10214000066001F003FE00214FF4DE6001F0FEFDA9
:1021500045F220414FF4FE6001F0F8FD002140F20D
:10216000DE7001F0F3FDDF2140F2F27001F0EEFDD0
:102170004FF4016140F2F37001F0E8FD772140F285
:10218000F47001F0E3FD212140F2F57001F0DEFD75
:1021900000214FF4FE6001F0D9FD40F273110720D9
:1021A00001F0D4FD00214FF4047001F0CFFDEF21C8
:1021B00040F2112001F0CAFD002140F2122001F08E
:1021C000C5FD40F28F1140F2132001F0BFFD10BD9C
:1021D00010B50021084601F0B9FD0021084601F0C4
:1021E000B5FD0021084601F0B1FD0021084601F0CF
:1021F000ADFD01F011FD40F60801082001F0A6FD3B
:102200001021084601F0A2FD4FF4C4414FF4806054
:1022100001F09CFD40F606414FF4407001F096FD40
:1022200049F60F5140F2013001F090FD40F60531C2
:1022300040F2023001F08AFD41F2172140F20330F2
:1022400001F084FD43F233314FF4417001F07EFD23
:1022500041F2127140F2053001F078FD49F20B5164
:1022600040F2063001F072FD40F60D7140F2073089
:1022700001F06CFD40F20C614FF4427001F066FD1C
:10228000002140F2093001F061FD40F202211120ED
:1022900001F05CFD40F20111122001F057FD012117
:1022A000132001F053FD0121072001F04FFD4FF4F1
:1022B000E6614FF4807001F049FD40F2372140F2B1
:1022C000011001F043FD4FF42C5140F2031001F0D6
:1022D0003DFD4FF480414FF4207001F037FD48F28E
:1022E000B0114FF4817001F031FD01F095FC4FF415
:1022F0008071012001F02AFD4FF48071022001F06D
:1023000025FD41F21801032001F020FD01210920E3
:1023100001F01CFD00210C2001F018FD4FF40041DC
:10232000902001F013FD00210F2001F00FFD00218E
:102330004FF4047001F00AFDEF2140F2112001F08A
:1023400005FD002140F2122001F000FD40F28F1146
:1023500040F2132001F0FAFC00214FF4A06001F0DC
:10236000F5FC002140F2015001F0F0FC5F2140F249
:10237000025001F0EBFC012140F2014001F0E6FCCB
:10238000002140F2044001F0E1FC01F045FC4FF473
:102390008071072001F0DAFC01F03EFC00214FF4CF
:1023A000007001F0D3FC002140F2012001F0CEFCCE
:1023B00010BD000010B5F720FFF794FDA920FFF72E
:1023C00095FD5120FFF792FD2C20FFF78FFD822015
:1023D000FFF78CFDC020FFF785FD1120FFF786FD7C
:1023E0000920FFF783FDC120FFF77CFD4120FFF7A7
:1023F0007DFDC520FFF776FD0020FFF777FD0A2061
:10240000FFF774FD8020FFF771FDB120FFF76AFD33
:10241000B020FFF76BFD1120FFF768FDB420FFF738
:1024200061FD0220FFF762FDB620FFF75BFD022091
:10243000FFF75CFD2220FFF759FDB720FFF752FDA3
:10244000C620FFF753FDBE20FFF74CFD0020FFF72D
:102450004DFD0420FFF74AFDE920FFF743FD002072
:10246000FFF744FD0020FFF7CDFC3A20FFF73AFDCF
:102470005520FFF73BFDE020FFF734FD0020FFF77C
:1024800035FD0720FFF732FD1020FFF72FFD092053
:10249000FFF72CFD1720FFF729FD0B20FFF726FD86
:1024A0004120FFF723FD8920FFF720FD4B20FFF798
:1024B0001DFD0A20FFF71AFD0C20FFF717FD0E2067
:1024C000FFF714FD1820FFF711FD1B20FFF70EFD8D
:1024D0000F20FFF70BFDE120FFF704FD0020FFF7C1
:1024E00005FD1720FFF702FD1A20FFF7FFFC04206F
:1024F000FFF7FCFC0E20FFF7F9FC0620FFF7F6FCC7
:102500002F20FFF7F3FC4520FFF7F0FC4320FFF7F7
:10251000EDFC0220FFF7EAFC0A20FFF7E7FC0920A8
:10252000FFF7E4FC3220FFF7E1FC3620FFF7DEFC8A
:102530000F20FFF7DBFC1120FFF7D4FC782004F01C
:1025400051FB2920FFF7CEFC044803880448028889
:1025500000210846FFF796FC10BD0000B4100020D3
:10256000B210002010B504460A480088752803D12F
:10257000204600F0CBFD0CE006480088A0F5144191
:10258000883903D12046FFF75DFB02E0204601F0C9
:1025900025FB10BDB01000200449054A0968497C9C
:1025A00052F82110096909680847000068110020E5
:1025B000801100201CB50121084601F003FA012119
:1025C000D82001F0EFF90C2200215348FEF758FB08
:1025D0000C2201215048FEF753FB0C2204214E48E7
:1025E000FEF74EFB0C2205214B48FEF749FB0C225F
:1025F00008214948FEF744FB0C2209214648FEF712
:102600003FFB0C220A214448FEF73AFB0C220E2124
:102610004148FEF735FB0C220F213F48FEF730FB07
:102620004FF6FC70009001208DF8040003208DF817
:10263000050000208DF806008DF807006946374830
:10264000FEF7D6FA0C2204213548FEF719FB0C22BE
:1026500005213348FEF714FB0C2207213048FEF712
:102660000FFB0C2208212E48FEF70AFB0C22092141
:102670002B48FEF705FB0C220A212948FEF700FB38
:102680000C220B212648FEF7FBFA0C2211462448A7
:10269000FEF7F6FA0C220D212148FEF7F1FA0C2282
:1026A0000E211F48FEF7ECFA0C220F211C48FEF702
:1026B000E7FA4FF43D70009069461748FEF798FA24
:1026C0000420009069461748FEF792FA61200090B6
:1026D00069461348FEF78CFAE020009069461248DC
:1026E000FEF786FA0C220D210B48FEF7C9FA4FF4CB
:1026F0000050009069460848FEF77AFA0C2211460D
:102700000848FEF7BDFA4FF480500090694605482E
:10271000FEF76EFA1CBD0000000C0240001C0240D7
:102720000010024000180240000002402DE9F04F66
:1027300005468DB07C48DDF860901A9C00681E4606
:1027400017464FF0000A78B11B9B199ACDF80890F4
:102750000593CDE90324DDE91623CDE900230468C0
:1027600033463A46284682E0DDE9160201EB0608C8
:1027700005EB070C1043A8F10108ACF1010C01288E
:1027800006D0C9F108000590002002910890C8E029
:1027900066480268B2F90A30581A002806DD361A6F
:1027A000002E65DD1946199B00FB0344B2F90E00AB
:1027B000A8EB0000002802DD361A002E58DDB2F921
:1027C0000C00ACEB0000002800DD3F1AB2F9083025
:1027D0000020AB4237DD581B3F1A4B46B9F1080FBA
:1027E00028D007DC012B0DD0022B13D0B9F1040F38
:1027F00029D117E0102B1FD0182B20D0B9F1200FB2
:1028000021D11CE020F0070304EBE0041D4400F09C
:10281000070018E020F0030304EBA0041D4400F0BF
:10282000030010E020F0010304EB60041D4400F0FD
:10283000010008E0044404E004EB400401E004EB80
:10284000800405440020002F12DD1B9BDDF864C0CE
:10285000CDE90403CDE902C4CDE90069527C3448D6
:102860003B4650F82200C26854680A462946A047F1
:102870000DB0BDE8F08F17990298084409902B49D4
:10288000401E00900A68B2F90A30834241DCB2F976
:102890000E10029881423CDB4FF0000BD8460395A6
:1028A0000B9434E0BBF1000F05D10B984FF0080BEF
:1028B00010F801AB0B900599ABEB090B3AFA01F05C
:1028C0000AFA09F101F0FF0A04D118490968097CE4
:1028D000890716D415490968C96B0A680C921B9AB6
:1028E0000AB152F82000086016990398009B42181C
:1028F000521E029900F05AF80C490C980968C96BED
:1029000008600399169808F1010808440390B84537
:10291000C8DB0898401C0890099802901998044454
:102920000898B042A7DBA3E78C11002068110020B3
:102930008011002000B59FB004200890002009906D
:1029400006200A9001200B9000200C900D900E9014
:1029500004200190002002900820039001200490A0
:10296000002005900690079006200F900020109000
:10297000119010201290002013901A90149015902E
:1029800016904FF4805017900020189019901B90CB
:1029900001A81D9008A81E900FA8FEF797F8012126
:1029A0000620FEF779F81FB000BD000038B5134CC3
:1029B0002468B4F90850854200DD2846B4F90C506B
:1029C000954200DA2A46824217DBB4F90A508D425A
:1029D00000DD2946B4F90E509D4200DA2B468B42A9
:1029E0000BDB0093647C064B53F82440E3681D69BD
:1029F00013460A4601462046A84738BD6811002004
:102A000080110020F8B515460E460124FEF7C4FCDF
:102A1000009058B1C0680421426A6846904703009C
:102A200004D02A4631460098984700242046F8BD35
:102A3000012103F081B9022103F07EB9AFF30080D8
:102A40002DE9F041002809D0876837B10D4E716833
:102A500019B10468B4F5807F02DD0020BDE8F08183
:102A60003068844200DD0446002507E057F8250061
:102A7000FFF792FD716841F825006D1CA542F5DB5A
:102A80007068EBE7D011002010B5FFF793FDFFF75A
:102A900051FF142004F0A6F8FFF76CF90446A4F5E2
:102AA000A900663806D149F2884013490880FFF72B
:102AB00019F916E001F026F90446A4F5A8402038DB
:102AC00007D0A4F53540093803D0A4F5AA40203832
:102AD00002D101F0ABF804E075200749088000F04E
:102AE000B1FB002000F066F80020FFF73BFDFF205F
:102AF00000F026F810BD0000B010002010B50E4CFC
:102B00000E492068407C51F8200050B1C168096826
:102B1000042903D000680028F8D102E008B1FEF7CC
:102B200039FC20680021016600F108014161BDE81F
:102B3000104000F025B8000068110020801100202E
:102B400010B504460648047006480088752803D16D
:102B5000204600F069FD02E0204600F05BF810BD61
:102B6000B6100020B0100020044909680A7C520702
:102B700001D5C96B00E0896B0860704768110020BF
:102B80000448016804484A7C083150F82200C268B1
:102B9000126B104768110020801100200449096859
:102BA0000A7C520701D5896B00E0C96B0860704749
:102BB0006811002010B504460648047006480088D5
:102BC000752803D1204600F073FD02E02046FFF790
:102BD00019F910BDB7100020B01000200149096894
:102BE00089680847CC110020F8B515460E46012427
:102BF000FEF7D2FB009058B1C0680321426A6846D4
:102C00009047030004D02A46314600989847002494
:102C10002046F8BD7CB5044642F210706043FF21A7
:102C200090FBF1F564200123034A4021CDE9000522
:102C3000024804F0F9FC7CBD00440140001402404D
:102C400010B5074C2068006BFFF7A6FCFFF7A6FF46
:102C50002068406BFFF7A0FCBDE81040FFF784BF81
:102C60006811002010B58AB00446012C76D10020EE
:102C70004749086002208DF8040000208DF8060006
:102C8000012000908DF8070003208DF805006946AB
:102C90004048FDF7ADFF022200213E48FDF7F0FF5E
:102CA0000020ADF82400ADF81E00ADF81C008DF832
:102CB000260039480068089007A9384801F0F4FD5B
:102CC000002201213348FEF70BF80122402134484D
:102CD000FEF706F8002221023248FEF701F8002232
:102CE00001212E4801F08BFC6020ADF80800012086
:102CF000ADF80A0040F6C90004900220ADF81400B7
:102D000002A9264801F084FC2348006840002349BA
:102D10002C3108600021214801F0B8FC01211F4836
:102D200001F026FC01211D4801F040FC01211B4857
:102D300001F030FC0121194801F026FC0021174860
:102D400001F016FC01221146144801F058FC012143
:102D5000124801F01FFC012013490870ACB9002192
:102D60000E4801F023FC002201210A48FDF7B8FFBC
:102D7000002240210A48FDF7B3FF01221102094851
:102D8000FDF7AEFF0020084908700AB010BD000032
:102D900018100020000002407C7D0008000C00405C
:102DA00000180240001C0240541000201CB50120F5
:102DB0008DF8040000208DF806000120009000200E
:102DC0008DF8070003208DF8050069460E48FDF7D1
:102DD0000FFF4FF48070009069460C48FDF708FF24
:102DE0004020009069460A48FDF702FF002240217A
:102DF0000748FDF775FF322003F0F4FE01221102AF
:102E00000248FDF76DFF1CBD00000240001C02409F
:102E10000018024010B54C220021394804F062FD30
:102E200037480068B0F5827F69D04FF4827034492A
:102E30000860C8200871C02081F82800A821304807
:102E400080F82910012180F82A10552180F82B10D4
:102E5000FF202B4981F82C00FF21294880F82D10F4
:102E600080F82E10002180F82F10C020244981F80E
:102E70003000A821224880F83110012180F832105A
:102E800080F83310C0201E4981F83400A8211C4866
:102E900080F83510012180F83610562180F837105F
:102EA000FF20174981F83800FF21154880F83910B4
:102EB00080F83A10002180F83B10C020104981F8BA
:102EC0003C00A8210E4880F83D10012180F83E10FA
:102ED00080F83F1000200A4981F8400081F8410045
:102EE00081F8420081F843001E2081F8440001204F
:102EF00081F845004FF41650886401F09DF810BD2C
:102F00006812002000BFFEE700B585B08020009069
:102F100003208DF8050001208DF804008DF80600CF
:102F200069462E48FDF764FE4FF4D0500090032010
:102F30008DF8050001208DF804008DF80600694623
:102F40002648FDF755FE4FF48060009003208DF871
:102F5000050001208DF804008DF8060069461F4821
:102F6000FDF746FE00224FF400611C48FDF7B8FE55
:102F700000224FF400711948FDF7B2FEC82003F09B
:102F800031FE012280211548FDF7AAFE00224FF4F0
:102F900080611248FDF7A4FE4FF47A700390092077
:102FA000ADF808000020ADF81000ADF80A008DF86B
:102FB000120002A94FF0804001F076FC0121880741
:102FC00001F0E2FA00214FF0804001F0D1FA002236
:102FD0000121880701F013FB05B000BD001C024071
:102FE000704708B54FF4A06000F086F824208DF8F3
:102FF000000001208DF8010000208DF80200012062
:103000008DF80300684600F03BF828208DF800009A
:1030100005208DF8010000208DF8020001208DF8B8
:103020000300684600F02CF82C208DF800000420E6
:103030008DF8010001208DF802008DF8030068462C
:1030400000F01EF81C208DF8000003208DF8010010
:1030500001208DF802008DF80300684600F010F89A
:1030600032208DF8000003208DF8010002208DF839
:10307000020001208DF80300684600F001F808BD49
:1030800070B5002100230F22C47824B3174C2468A4
:1030900004F4E064C4F5E064C4F30721C1F104045E
:1030A000E3B20A4144789C40E1B284781440214361
:1030B0000C07210E0E4C05786155047804F01F05AD
:1030C0000124AC4005786D114FF0E02606EB850534
:1030D000C5F8004109E0047804F01F040125A5406B
:1030E000044C0678761144F8265070BD0CED00E0D3
:1030F00000E400E080E100E002490143024A11607F
:10310000704700000000FA050CED00E038B50446F9
:10311000002000900A4803880A4802880A4801886B
:103120000A480088FDF77DFB0C20FDF773FB204665
:1031300000F050FBFDF7AAFBFDF7B6FB38BD000021
:1031400048110020461100204411002042110020A7
:103150001CB518480078012800D11CBD0120154974
:1031600008700320144908701A21602000F008FC40
:10317000602000F013FA04461A2C04D000F058F92D
:1031800002200D4908700121082000F00BFC4020AE
:10319000009000208DF8040003208DF80500002029
:1031A0008DF806008DF8070069460448FDF720FDFC
:1031B00000BFD2E7C7100020C6100020000C02405C
:1031C000002001E0411C88B241F288318842F9DBDD
:1031D0007047002001E0411CC8B20A28FBDB7047A1
:1031E00000B585B00121080300F01CFC0020ADF8FB
:1031F00000004FF48270ADF802000020ADF804002A
:103200000220ADF806000120ADF808004002ADF83C
:103210000A001820ADF80C000020ADF80E000720C1
:10322000ADF810006946064800F0ACFE00210448E5
:1032300000F002FE0121024800F0FEFD05B000BDD5
:103240000030014010B5FFF783FFC72000F0A6F95A
:103250000446012C61D1882000F024FBFFF7B9FF60
:103260000A2000F059FBFFF7ABFF892000F01AFBA2
:10327000FFF7AFFF022000F04FFBFFF7A1FFFFF7C2
:103280009FFF68480078032804D10A21102000F02D
:1032900077FB03E00821102000F072FB822104205C
:1032A00000F06EFBFFF78CFF3B21142000F068FB61
:1032B0000021152000F064FB0121162000F060FBC6
:1032C0000021172000F05CFB0521182000F058FBBE
:1032D0000F21192000F054FB01211A2000F050FBAF
:1032E00002211B2000F04CFB00211C2000F048FBB9
:1032F00007211D2000F044FB00211E2000F040FBB0
:1033000009211F2000F03CFB4FF4887046490880DB
:103310004FF4F070454908805EE04FF4F070424988
:1033200008804FF4487041490880882000F0BAFABC
:10333000FFF74FFF0C2000F0EFFAFFF741FF892065
:1033400000F0B0FAFFF745FF022000F0E5FAFFF7C2
:1033500037FF34480078032804D10A21102000F0F8
:103360000FFB03E00821102000F00AFB812104205C
:1033700000F006FBFFF724FF6321142000F000FBA0
:103380000021152000F0FCFA0321162000F0F8FAC5
:103390000321172000F0F4FA0B21182000F0F0FAB6
:1033A000DF21192000F0ECFA01211A2000F0E8FAE0
:1033B0001F211B2000F0E4FA00211C2000F0E0FA9D
:1033C00016211D2000F0DCFA00211E2000F0D8FAA2
:1033D00001211F2000F0D4FA0121C72000F0D0FA0B
:1033E0008021012000F0CCFA002000F061F90021DA
:1033F000412000F0C5FA0D4803880B4802880021DF
:10340000084600F0A3F907480078022803D00548D1
:103410000078012802D1FFF7E3FE01E004F05AF83A
:1034200010BD0000C6100020B2100020B410002013
:103430001CB501214FF4817000F0B4FA0522114649
:103440001B48FDF71DFC052206211948FDF718FC55
:10345000052207211648FDF713FC02208DF8040011
:1034600001208DF8050000208DF806008DF807007A
:10347000E020009069460E48FDF7BAFB4FF48060EB
:103480000C49088301208DF8040000208DF8060007
:1034900002208DF8050000208DF807000815009027
:1034A00069460448FDF7A4FB00F010F81CBD0000BD
:1034B00000000240002002400348007808B90020C4
:1034C00070470120FCE700004011002000B585B0E6
:1034D0000121080300F0A6FA0020ADF800004FF427
:1034E0008270ADF802000020ADF804000220ADF8B3
:1034F00006000120ADF808004002ADF80A002820BF
:10350000ADF80C000020ADF80E000720ADF810005B
:103510006946064800F036FD0021044800F08CFCA6
:103520000121024800F088FC05B000BD00300140D8
:1035300010B51648007802280ED14002144948837D
:10354000402000F03DFD002000F03AFD04464FF41D
:1035500080600F49088316E00C480078032812D1D8
:10356000002201210B48FDF7BBFB012210210A4874
:10357000FDF7B6FB002220210748FDF7B1FB4FF015
:10358000D8400088C4B2204610BD0000C6100020FC
:103590000020024000100240000C024070B50446BA
:1035A000012006490870204600F07CF9FFF7C0FFB3
:1035B0000546002001490870284670BD40110020D2
:1035C00010B50446012005490870204600F06AF94C
:1035D000002002490870FFF7ABFF10BD401100202A
:1035E00010B50E48007802280ED140020C494883DD
:1035F000C02000F0E5FC002000F0E2FC04464FF49F
:1036000080600749088306E004480078032802D157
:1036100004480088C4B2204610BD0000C610002037
:10362000002002400000086C10B5044624B90021B7
:103630008A2000F0A5F90EE0FF2C04D140218A2059
:1036400000F09EF907E083218A2000F099F92146D5
:103650008B2000F095F910BD70B504460D46134857
:103660000078012810DDE9B2462000F089F929121E
:10367000472000F085F9E1B2482000F081F92112DD
:10368000492000F07DF90FE0E1B2462000F078F922
:103690002112472000F074F9E9B2482000F070F9D7
:1036A0002912492000F06CF970BD0000B71000200D
:1036B00070B5044600250120214908700CB9087036
:1036C00013E0012C04D105201D4908700C250CE0E5
:1036D000022C04D109201A490870042505E0032CA6
:1036E00003D10920164908700825154801784020A3
:1036F00000F046F92946202000F042F9012C0EDDA9
:1037000010490988104A1288914207DA0D49088841
:103710000D4909880B4A11800B4908800EE00949C0
:103720000988094A1288914207DD06490888064936
:103730000988044A11800449088000BF70BD000058
:103740004E110020B2100020B41000202DE9F041ED
:1037500004460D4617469846E1B2302000F010F9B5
:103760002112312000F00CF9E9B2322000F008F902
:103770002912332000F004F908EB0400401E86B241
:10378000F1B2342000F0FCF83112352000F0F8F8E6
:103790007819401E86B2F1B2362000F0F1F83112ED
:1037A000372000F0EDF829462046FFF755FF054881
:1037B000048005480580054807800548A0F800807A
:1037C000BDE8F08142110020441100204611002084
:1037D0004811002010B50446E10A632000F0D0F83B
:1037E000C4F34511642000F0CBF804F01F016520FC
:1037F00000F0C6F810BD10B50421F02000F0C0F8AC
:103800000421712000F0BCF8B221702000F0B8F85B
:1038100010BD000070B5F120FFF7D2FE064616F08D
:10382000040F1ED07420FFF7CBFE05467220FFF771
:10383000C7FE04464FF6FF7000EA840405F003005B
:103840000444124804807320FFF7BAFE04464FF682
:10385000FF7000EA8404C5F3810004440C4804802E
:1038600004E000200949088009490880012009492D
:103870000870F12000F016F8042000F04DF8002048
:10388000044908700148008870BD00004A110020FA
:103890004C110020401100200148008870470000B2
:1038A0004C11002010B504461648007802280DD1AE
:1038B000400215494883802000F082FB204600F03A
:1038C0007FFB4FF480601049088319E00D480078B1
:1038D000032815D1012211460C48FDF701FA0022F8
:1038E00010210B48FDF7FCF9012220210848FDF7C3
:1038F000F7F908480480002201210448FDF7F0F997
:1039000010BD0000C6100020002002400010024040
:10391000000C02400000086C10B504461448007802
:1039200002280DD1400213494883002000F048FBD3
:10393000204600F045FB4FF480600E49088315E0F7
:103940000B480078032811D1002201210A48FDF715
:10395000C7F9002210210948FDF7C2F901222021F0
:103960000648FDF7BDF94FF0D840048010BD0000B7
:10397000C61000200020024000100240000C02404F
:1039800070B505460C460120054908702846FFF72A
:1039900089FF2046FFF7C0FF00200149087070BD75
:1039A0004011002029B1064A12680243044B1A60F4
:1039B00004E0034A12688243014B1A60704700001A
:1039C0003038024029B1064A12680243044B1A609B
:1039D00004E0034A12688243014B1A6070470000FA
:1039E0003838024029B1064A12680243044B1A6073
:1039F00004E0034A12688243014B1A6070470000DA
:103A00004038024029B1064A12680243044B1A604A
:103A100004E0034A12688243014B1A6070470000B9
:103A20002038024029B1064A12680243044B1A604A
:103A300004E0034A12688243014B1A607047000099
:103A40004438024029B1064A12680243044B1A6006
:103A500004E0034A12688243014B1A607047000079
:103A60002438024010B501460022002300204A11EC
:103A7000012A02D10A4C236808E0022A03D1084C2B
:103A80007034236802E0064C7434236801F01F028E
:103A9000012494401C4201D0012000E0002010BD10
:103AA0000038024001490860704700005C0147424D
:103AB00001498866704700000000474201490860DC
:103AC00070470000382C014001460020034A12686C
:103AD0000A4201D0012000E000207047342C014050
:103AE00010B500F025F810BD29B1064A126802434E
:103AF000044B1A6004E0034A12688243014B1A60C7
:103B0000704700003C2C014010B50748006810F0D9
:103B1000C05F08D00120054908604FF0C25102483B
:103B20005830FCF7E1FE10BD006402408C1000200C
:103B300010B54FF48070FFF7C7FF50B10020254942
:103B400008704FF48070FFF7B9FF01202249086028
:103B500037E00220FFF7B8FF30B10220FFF7AEFFD9
:103B600002201C4908702CE00820FFF7ADFF30B19F
:103B70000820FFF7A3FF04201649087021E0202049
:103B8000FFF7A2FF30B12020FFF798FF0620114970
:103B9000087016E01020FFF797FF30B11020FFF7F4
:103BA0008DFF05200B4908700BE04FF40070FFF704
:103BB0008BFF30B14FF40070FFF780FF07200549FD
:103BC000087000214CF23A30FFF78EFF0148007870
:103BD00010BD0000841000208810002070B504463D
:103BE0000021084600F0A0F840F202204FF0C0414A
:103BF0000880002502E0054804806D1C0448008808
:103C0000044909884843A842F5D870BD00000860FF
:103C1000B2100020B4100020002001E0411C88B246
:103C20004CF250318842F9DB7047000070B500203B
:103C300000F06EF80446A4F5A840203802D0B0F594
:103C400080703FD1FEF758F900214FF4007000F06A
:103C50007DF8002140F2012000F078F840F20220C7
:103C60004FF0C041088041F23420214908800021F2
:103C70004FF4007000F06AF8002140F2012000F0DB
:103C800065F840F202204FF0C041088018480588CE
:103C9000A5F59050343806D11649087045F22040F9
:103CA0001549088006E001201249087044F201001D
:103CB00011490880F020114908804FF4C87010495C
:103CC000088013E0A4F5354009380FD1FEF780FADB
:103CD0000120084908704BF2095007490880F0207C
:103CE000064908804FF4C8700549088070BD00007F
:103CF0000000086041110020B0100020B210002028
:103D0000B410002010B5002000F002F810BD000033
:103D100001B5BDF800004FF0C0410880014800889F
:103D200008BD00000000086070B504460D46294635
:103D30004FF4007000F00AF840F28F10001B81B2BF
:103D400040F2012000F002F870BD000003B5BDF89C
:103D500000004FF0C0421080014801800CBD0000FF
:103D60000000086010B560212D4800F0DCF8012843
:103D700053D12B4800F001F904466021284800F097
:103D800067F8284800680A2805DA26480068401CB9
:103D90002449086010BD2449096869B923490968A4
:103DA00051B9E11704EB11610912B4EB012103D100
:103DB0000B201C49086030E01A4800680B282CD101
:103DC0000421174800F0A6F850B9194816490968A7
:103DD00020F8114014480068401C1349086009E0AD
:103DE00014481249096820F8114010480068401C26
:103DF0000E4908600D480068B0F5E15F0DD30A4830
:103E00000068B0F5E15F08D300226021044800F0AB
:103E1000A4F84FF0FF300349086000BFBAE7000084
:103E200000380040701000202410002028100020CE
:103E300000130020404B002021B1028842F04002D4
:103E4000028004E002884FF6BF731A400280704778
:103E500010B5002201F00F040123A3409AB2D3430E
:103E6000038110BD10B504462448844208D10121C5
:103E70008014FFF7E7FD0021A014FFF7E3FD3CE00D
:103E80001F48844208D101210014FFF7BBFD002127
:103E90002014FFF7B7FD30E01A48844208D1012111
:103EA000C013FFF7AFFD0021E013FFF7ABFD24E0E7
:103EB0001548844208D101214014FFF7C3FD0021B9
:103EC0006014FFF7BFFD18E01048844209D10121BA
:103ED0000805FFF7B7FD00214FF48010FFF7B2FD92
:103EE0000BE00B48844208D101214805FFF7AAFDE9
:103EF00000214FF40010FFF7A5FD10BD0030014078
:103F000000380040003C00400034014000500140B7
:103F1000005401400246002013890B4201D00120C9
:103F200000E000207047F0B5024600200024002386
:103F3000002501F00F070126BE40B4B20B11012687
:103F40009E40B3B2968806EA03051689264202D03F
:103F50000DB1012000E00020F0BD30B500240023A9
:103F60000C110125A540ABB21AB185881D4385808F
:103F700002E085889D43858030BD01468889704771
:103F80008181704710B50022028802F441520B88EB
:103F90004C8823438C882343CC8823430C892343B8
:103FA0004C8923438C892343CC8923431A430280C1
:103FB000838B4FF2FF74234083830B8A038210BDEF
:103FC00070B5044600BF02210A48FFF7A3FF00288E
:103FD000F9D021460748FFF7D3FF00BF012105486C
:103FE000FFF798FF0028F9D00248FFF7C6FFC5B2D7
:103FF000284670BD0030014030B500228B071C0FF1
:104000000F2303FA04F20B4B8C1053F82430934324
:10401000084C8D1044F8253023468C1053F824307A
:104020008C07240F00FA04F42343024C8D1044F84B
:10403000253030BD0838014010B54C22002102481F
:1040400003F08FFC10BD0000681200200CB50020AA
:10405000019000904048006840F480303E4908607C
:1040600000BF3D48006800F4003000900198401CFB
:104070000190009818B90198B0F5A04FF1D13648D9
:10408000006810F4003F02D00120009001E0002001
:104090000090009801285DD12F484030006840F022
:1040A00080502D49403108602C48006840F4404061
:1040B0002A49086028480830006827490831086004
:1040C0000846006840F4004008600846006840F474
:1040D000A05008602248091F0860081F006840F0CF
:1040E0008070091F086000BF1B48006810F0007F47
:1040F000FAD01A48006840F480301849086000BFC0
:104100001648406810F4803FFAD01448006840F424
:1041100000301249086000BF1048406810F4003FAA
:10412000FAD040F205700F4908600B48083000686B
:1041300020F003000849083108600846006840F094
:104140000200086000BF04480830006800F00C005E
:104150000828F8D10CBD0000003802400070004073
:10416000195A4007003C02401CB54FF48060009093
:1041700003208DF8050001208DF8040000208DF843
:10418000060069460448FCF733FD00224FF48061C5
:104190000148FCF7A5FD1CBD0018024010B500F059
:1041A00001F810BD10B52048006840B11E480068F5
:1041B000401E1D49086002D101201C4908700024DE
:1041C00008E004EB44011A4A02EB810003F0FEFA16
:1041D000601CC4B2042CF4DB16480068401C15496E
:1041E0000860084600686FF00041884202D1002054
:1041F0001049086003F006FA0F480078401CC0B26E
:104200000D4908700A2803DB0020087003F0E8F964
:104210000A480088401C80B208490880B0F57A7FBF
:1042200001DB03F0F5F910BD901000209410002080
:10423000E4930020981000209C1000209E10002085
:1042400010B51548006840F4700013490860134821
:10425000006840F001001149086000200F49083152
:1042600008600E4800680E4908400C4908600D4877
:10427000091D0860081F006820F48020091F0860DD
:10428000002006490C310860FFF7E0FE4FF00060A7
:1042900001498039086010BD88ED00E00038024017
:1042A000FFFFF6FE1030002410B50121880700F052
:1042B0008CF9002875D0644802784FF40061634897
:1042C000FCF70EFD60480078C0435F490870604805
:1042D00000886049098808445F490988884209DCE8
:1042E00000220121880700F08AF900214FF0804068
:1042F00000F050F959480078E8B357480088B0F505
:10430000937F0CDD52480088A0F5937052490988CC
:10431000884204DB40F285408107C86289E04E484C
:104320000088B0F5937F0BDA4B49088800EBD07119
:1043300049104B4A52F821104FF08042D16278E088
:104340004348008844490988401AB0F5937F17DA3A
:104350003F48008840490988401A002810DD3C4940
:1043600009883D4A1288881A00EBD07149103C4AEE
:1043700052F8211000E009E04FF08042D16258E08D
:10438000374800684FF08041C86252E035480078F5
:1043900035490978884205D140F285408107C862D5
:1043A00047E04FE02C480088B0F5A27F0DDD28489B
:1043B0000088A0F5A27028490988884205DB4FF4DF
:1043C0000B704FF08041C86233E023480088B0F59D
:1043D000A27F0BDA2049088800EBD0714910234AEC
:1043E00052F821104FF08042D16222E01848008834
:1043F00019490988401AB0F5A27F15DA14480088D7
:1044000015490988401A00280EDD11490988124A09
:104410001288881A00EBD0714910144A52F8211002
:104420004FF08042D16204E0104800684FF08041B4
:10443000C86209480088401C074908800121880794
:1044400000F0A5F810BD000074100020001C024010
:104450002C1000203A1000202E10002061100020A7
:104460002483000830100020311000209C800008B8
:1044700010B50221214800F0B1F858B102211F48BF
:1044800000F085F8002202211C4800F0B8F81C4812
:10449000006880470421194800F0A0F858B10421B1
:1044A000164800F074F800220421144800F0A7F820
:1044B0001448006880470821104800F08FF858B170
:1044C00008210E4800F063F8002208210B4800F094
:1044D00096F80D48006880471021084800F07EF8E3
:1044E00058B11021054800F052F80022102103486D
:1044F00000F085F805480068804710BD00040040C2
:10450000A0100020A4100020A8100020AC10002053
:1045100010B51448006842F21071884216D2012189
:10452000114800F034F80F490868411C0D4A116029
:104530003221B0FBF1F1C9B20C4A52F8211001222C
:10454000C2EB4101084A2C32116009E0002201212E
:10455000054800F054F841F2931003492C310860EB
:1045600010BD000018100020000C00407C7D0008E9
:1045700021B1028842F08002028004E002884FF6F6
:104580007F731A4002807047CA4302827047CA4351
:104590000282704721B1028842F00102028004E0E9
:1045A00002884FF6FE731A400280704731B1B0F8AE
:1045B000442042F40042A0F8442005E0B0F8442032
:1045C000C2F30E02A0F84420704702460020138A6E
:1045D0000B4201D0012000E00020704730B50246B8
:1045E000002000230024158A05EA0103958905EAC5
:1045F000010413B10CB1012000E0002030BD1AB15C
:1046000083890B43838102E083898B4383817047D5
:1046100070B5002400220023058C4FF6FE7635404D
:104620000584028C8388048B4FF68F752C40B51E51
:104630002C400D882C43751E2A408D892A434D88B5
:104640002A43104DA84202D00F4DA84213D14FF675
:10465000F7752A40CD892A434FF6FB752A408D888D
:104660002A434FF6FF652B404FF6FF552B400D8A2E
:104670002B434D8A2B43838004838D6845630284DA
:1046800070BD000000000140000401400A46002106
:10469000018B4FF6F77319401143018370470000F7
:1046A00070B5002400220023058C4FF6EF763540CC
:1046B0000584028C8388048B48F6FF752C404FF6E6
:1046C000FF452C400D884FF6FF7606EA05252C4362
:1046D0004FF6DF752A408D8906EA05152A434D8875
:1046E00006EA05152A43154DA84202D0144DA842EA
:1046F0001DD14FF67F752A40CD894FF6FF7606EA29
:1047000005152A434FF6BF752A408D8806EA051520
:104710002A434FF6FF352B404FF2FF752B400D8A91
:1047200006EA85052B434D8A06EA85052B438380DF
:1047300004838D688563028470BD00000000014021
:10474000000401400A460021018B4FF2FF7319401B
:104750004FF6FF7303EA02231943018370470000F9
:1047600070B5002400220023058C4FF6FF6635400B
:104770000584028C8388848B4FF68F752C404FF60E
:10478000FC752C400D882C434FF6FF552A408D892F
:104790004FF6FF7606EA05252A434D8806EA0525E9
:1047A0002A43154DA84202D0144DA8421DD14FF204
:1047B000FF752A40CD894FF6FF7606EA05252A4384
:1047C0004FF6FF352A408D8806EA05252A434EF626
:1047D000FF752B404DF6FF752B400D8A06EA051537
:1047E0002B434D8A06EA05152B43838084838D680D
:1047F000C563028470BD0000000001400004014058
:104800000A460021818B4FF6F773194011438183CB
:104810007047000070B5002200230024058C4EF67E
:10482000FF7635400584038C8488828B48F6FF75BB
:104830002A404FF6FF452A400D884FF6FF7606EADC
:1048400005252A434DF6FF752B408D8906EA05356F
:104850002B434D8806EA05352B430A4DA84202D06A
:10486000094DA84208D14BF6FF752C400D8A4FF632
:10487000FF7606EA85152C43848082838D68056463
:10488000038470BD00000140000401400A4600217D
:10489000818B4FF2FF7319404FF6FF7303EA022337
:1048A000194381837047000000220288184B984208
:1048B0000ED0184B98420BD0B0F1804F08D0164B59
:1048C000984205D0154B984202D0154B984204D11E
:1048D0004FF68F731A404B881A43124B984207D0F9
:1048E000114B984204D04FF6FF431A400B891A43EC
:1048F00002804B68C3620B880385054B984202D047
:10490000044B984201D18B7A03860123838270473E
:104910000000014000040140000400400008004085
:10492000000C004000100040001400400146002927
:1049300001DB084670474842FCE7F0B502460B46EB
:1049400000BF0025002112E032F811704E1C32F831
:104950001660B74209DD4E1C32F8160032F81170AD
:1049600022F8167022F8110001254E1CF1B25E1ECD
:104970008E42E9DC002DE4D10024002108E003266A
:1049800093FBF6F60E4432F8166034444E1CF1B236
:10499000032693FBF6F68E42F1DC032693FBF6F634
:1049A000B4FBF6F6B0B2F0BD10B50020184981F89E
:1049B000280000240BE0BA2003F044F810B9FCF7FB
:1049C00095F906E00A2002F00DF9601C84B2052C6E
:1049D000F1DB00BF0F480088752806D1FEF70BFFFA
:1049E00040F2FF300A49488405E000F00BFB40F636
:1049F000FF700749488400F00FF80020044981F84F
:104A0000380081F83900012081F8280010BD00002D
:104A10003C940020B010002010B5FEF7FBF92B48A5
:104A200000892B4908802948408948802748808987
:104A300088802648C089C8802448008A0881234885
:104A4000408A48812148808A88812048C08AC8815C
:104A50001E48008B08821D48408B48821B48808B73
:104A600088821A48C08BC8821848008C088317486F
:104A7000408C48831548808C88831448C08CC88338
:104A800012488079088440F2BB3008804FF45E7091
:104A90004880442088805820C880002008814881B0
:104AA0008881C8811420088248824FF4437088822C
:104AB0004FF4E670C882142008834FF4E6704883F0
:104AC000142088834FF4E670C88310BD681200205C
:104AD0003C940020F0B504460D46A01AFFF726FFCF
:104AE00006B2E81AFFF722FF07B2192E06DA192FCD
:104AF00004DA0020084908700120F0BD064800785B
:104B0000401CC0B204490870032803DB0020087071
:104B10000120F2E70020F0E7BE1000200246022A42
:104B20000BDD022909DD0748408C801E904204DD20
:104B30000448408C801E884201DC00207047012020
:104B4000FCE700003C9400202DE9F04780460E462B
:104B500017464FF00009CA46804890F839102930AE
:104B600000F801807E480078012802D134463D4695
:104B700009E03946304600F0B9F984B2394630468A
:104B800000F0E4F985B27748407930B1012833D09C
:104B9000022860D0032875D18DE07348007810B9E1
:104BA000A146AA4627E07048007801280CD16F483A
:104BB0000088001B401E1FFA80F96D480088401BCA
:104BC000401E1FFA80FA16E067480078022807D1D5
:104BD000A24666480088401B401E1FFA80F90AE082
:104BE00061480078032806D161480088001B401EF8
:104BF0001FFA80FAA94691E05B48007860B95B48EB
:104C00000088001B401E1FFA80F959480088401B8D
:104C1000401E1FFA80FA1DE053480078012802D197
:104C2000A146AA4616E050480078022807D150480D
:104C30000088001B401E1FFA80FAA9460AE04A4875
:104C40000078032806D1A24648480088401B401E31
:104C50001FFA80F962E04448007838B9A246434818
:104C60000088401B401E1FFA80F923E03E48007870
:104C7000012808D13E480088001B401E1FFA80FA18
:104C8000A94617E046E038480078022802D1A1463C
:104C9000AA460FE03448007803280BD13348008837
:104CA000001B401E1FFA80F931480088401B401E3F
:104CB0001FFA80FA32E02C48007838B9A2462B4817
:104CC0000088401B401E1FFA80F922E02648007829
:104CD000012807D126480088001B401E1FFA80FAD1
:104CE000A94616E02048007802280CD11F48008809
:104CF000001B401E1FFA80F91D480088401B401E03
:104D00001FFA80FA05E018480078032801D1A1466F
:104D1000AA4603E000201349487100BF00BF0FFA04
:104D200089F10E4890F839202C3020F812100FFA33
:104D30008AF12C3890F83920323020F812103238AD
:104D400090F83900401CC0B2044981F839000328AA
:104D500002DB002081F83900BDE8F0873C94002098
:104D60008C94002068120020B7100020B41000209E
:104D7000B210002070B5544890F8280000B970BDFA
:104D80005248008875280AD1FEF796FB00B1F6E775
:104D9000FEF740FD0546FEF77FFD044611E000F0FA
:104DA00065F960B102F020FD00B1E8E7012000F0F4
:104DB00069F90546052000F065F9044601E0002583
:104DC000002421462846FFF7A9FE00285BD0404872
:104DD00000781E2851DB3F483F49097820F81150E0
:104DE0003E483D49097820F811403B480078401C76
:104DF000C0B2394908700A2863DB002008700A2114
:104E00003448FFF79AFD304988840A213348FFF778
:104E100094FD2D49C8843248007888B90120304972
:104E200008702948C28C818C0120FFF78DFE26482E
:104E3000808C2C4908802448C08C2B49088040E095
:104E40002148C38C828C2848018826480088FFF7B7
:104E500041FE70B11C48C28C818C0220FFF774FEA9
:104E60001948808C1F4908801748C08C1E4908804B
:104E700027E000201449888423E015480078401C6E
:104E8000134908701DE012480078002816DD10480C
:104E90000078401E10F0FF000D4908700ED1124836
:104EA0000288104801880320FFF74EFE00200649C3
:104EB0008884C8840649087009490870002006499A
:104EC000087000BF5BE700003C940020B010002099
:104ED000C010002014940020BF100020289400204F
:104EE000C1100020C2100020C4100020F8B50646F2
:104EF0000F461548008C90B934460CB9002520E0C7
:104F0000DFF844C00094BCF81430BCF80420BCF8AE
:104F10001010BCF80000FBF7D7FC054611E03C463A
:104F20000CB900250DE0DFF820C00094BCF8143067
:104F3000BCF80620BCF81010BCF80200FBF7C4FC5B
:104F4000054628B2F8BD00003C940020F8B506469E
:104F50000F461648008C98B93C460CB9002522E053
:104F6000A0B2DFF848C00090BCF81630BCF80620AC
:104F7000BCF81210BCF80200FBF7A6FC054612E0D4
:104F800034460CB900250EE0A0B2DFF820C0009036
:104F9000BCF81630BCF80420BCF81210BCF80000B5
:104FA000FBF792FC054628B2F8BD00003C940020B7
:104FB00000B585B00020ADF800004FF48270ADF868
:104FC00002000020ADF80400ADF80600ADF80800BE
:104FD0004FF40070ADF80A002820ADF80C00002056
:104FE000ADF80E000720ADF8100069460448FEF742
:104FF000C9FF01210248FEF71FFF05B000BD0000F8
:10500000003001401CB501214FF48470FEF7CAFC4A
:1050100001208DF8040000208DF806008DF80700AF
:1050200001208DF805008002009069460D48FBF7CD
:10503000DFFD00208DF804008DF806008DF80700D4
:1050400002208DF805000820009069460648FBF70D
:10505000CFFD0820009069460248FBF7C9FDFFF725
:10506000A7FF1CBD00200240000C024010B5082123
:105070000348FBF728FE08B9012010BD0020FCE71B
:105080000020024070B50546002000F017F880218E
:1050900041EA0511C8B202F0F1FB02F0B7FB044689
:1050A0004FF6FF7000EA042402F0B0FB204484B203
:1050B000E410012000F002F8204670BD10B504464F
:1050C00054B902F097FB4FF48060074948834FF4CE
:1050D0004B7002F09FFA05E04FF4806002490883AC
:1050E00002F08EFB10BD00000020024002460020AE
:1050F000B1F5007F00D100BF13880B4201D0012021
:1051000000E000207047C1F308028280704700BFB2
:10511000FEE7000002490120096881F85400704749
:105120006811002003490020096881F85400FDF748
:1051300027BD00006811002010B50446C168D4E9FD
:105140000020172A0DD004DC0E2A0CD0142A07D117
:1051500004E0222A0CD0282A02D10CE000F0A5FAA3
:105160000020E06010BD2146BDE8104000F057BAB5
:105170006FF07040F5E7BDE8104000F006BA00009F
:105180000021022802D2024951F820100846704737
:105190001812002010B5002802D0FCF775F8C0697D
:1051A00010BD10B5002802D0FCF76EF8806910BD64
:1051B0002DE9F04F9BB04FF0000B5E46CDF820B0CC
:1051C000CDF824B0CDF828B0FCF70AFA18B10020C9
:1051D0001BB0BDE8F08F6846FCF7DCF90098C64DBF
:1051E000C64C401C11D0009800281DDB01980028F7
:1051F0001ADBC3490098B1F900100844C149009076
:105200000198B1F9001008441DE00198401C1BD121
:1052100020689DF8081000EB400005EB8000007A44
:10522000884207D15846D3E70098401C0CD101981A
:10523000401C09D1206800EB400055F8201005EB18
:10524000800000914068019005A800F0F7F99DF8F2
:105250000900022800D2206007AA12A92068FCF7E2
:1052600007F912990098401A009007990198009A3E
:10527000401A0190206800EB400055F82010914240
:105280000AD105EB8000019A4168914204D1007A6D
:105290009DF8081088427CD0DDE900019DF80920C6
:1052A000FBF7FEFF984F396809B168468847974871
:1052B000216850F8210018B9DDE9000100F0AAF9D1
:1052C00006907A6812B10699684690478A4F20681E
:1052D000383707EBC0014868069A824201D00122A4
:1052E00000E000220DF12009F0B1EAB1486800F0B9
:1052F00079FAC8B1206807EBC000406800F067FA8F
:1053000090B19DE8070008AB07C31220CDF8449088
:105310000E90206807EBC00040680EA900F037FB34
:10532000206807EBC0004660069800F05BFA002892
:105330007ED00699206807EBC002516000EB400068
:1053400005EB80009DF80810007ADFF8ACA18842D8
:105350000AF1280A5DD00698C0B30698FBF76EFFE5
:105360009DF8081013908DF83410216801EB41016D
:1053700005EB8101097A8DF83510B0F9002000990C
:10538000891A0B91B0F902000199081A0C9013A820
:1053900000E0ACE0FBF760FF0BA8119011200E902D
:1053A000206800EB400105EB810191E88C0004923C
:1053B000CDE914379DF808200A729DF8281031B104
:1053C0000AEBC0014F68069A4A6001E021E000271D
:1053D0000AEBC000D0F8048006980EA900F0AAFAE3
:1053E00021680AEBC1004368434501D0406806903C
:1053F00001EB410005EB8003DDE91412049807C3BB
:105400003FB1384600F0F3F818B121680AEBC1004B
:10541000476020689DF8081000EB400805EB880203
:10542000137A0B434BD00C234FF0010B574600E08F
:1054300052E00AEBC0000E934368DDF818C09C45AB
:1054400015D043689BB109B1119608E055F82810B2
:105450000891516809918DF82860CDF84490406812
:105460000EA900F094FA206807EBC000466020689F
:105470009DF8081000EB400205EB820211720699BC
:1054800051B39DE80E000DF12008A8E80E009DF82C
:10549000281021B1069907EBC000416008E01C48C4
:1054A000007808B100F0B4F8206807EBC00046604F
:1054B0000698CDF844900EA900F069FA0CE0069821
:1054C00050B1069800F083F930B19DE8070008ABB1
:1054D00007C310200E90EBE721689DE81C0001EB4C
:1054E000410005EB80001CC0684600F083F805A869
:1054F00000F0ECF996E6000060960020E81100202C
:1055000090110020921100205C120020281200202F
:105510003812002070B586B00D4606002CD0FBF77F
:105520008DFE0090846AA10723D5D0E90010CDE953
:105530000110E00302D5304600F0D6F85DB12868CE
:1055400003906868049003A9009800F07FF803A90D
:1055500001A8FCF71AFA314601A800F07FF840B123
:1055600040F601000440012C08D001A9304600F0AB
:10557000B8F86846FBF770FE06B070BD0098026A86
:10558000816901A800F00EF9F3E70021FFF7C2BF1F
:10559000FEB515460E4604001CD0FBF74FFE024632
:1055A000009090F82800800711D5314601A8FCF73B
:1055B00009FA60B16846FBF74FFE2A4601A920466A
:1055C00000F034FC2046FFF7E5FD04460CE0684699
:1055D000FBF742FEFEBD2A4601A92046FFF7D8FF91
:1055E0002046FBF751FE046A002CF4D1FEBD00F00A
:1055F00035B90000054A01EB410102EB8101D0E918
:10560000002380680A60C1E901307047D09600200D
:1056100000F046B90A460146002000F039BD70B5D9
:105620000C00054609D0FFF7BCFD002805D0214637
:10563000A560BDE8704000F05FB970BD02490A681E
:105640000260086070470000F01100200B46B0F9BE
:105650000220B0F900101846FBF78CBF38B50C4695
:1056600005462046FBF7EAFD0146009090F8280029
:10567000800703D46846FBF7EFFD12E02846FCF7ED
:1056800084F90098806920B104466846FBF7E4FD80
:10569000E7E76846FBF7E0FD204600F083FA0028C4
:1056A00001DA002038BD012038BD38B50C4600288D
:1056B0000AD0002C08D0FBF7C1FD2146009000F075
:1056C00004F86846FBF7C8FD38BD00224A800A800E
:1056D00082880388D21A8A80C2884088101AC880BB
:1056E0007047202200F0A2BB38B504001ED0FBF7A3
:1056F000A5FD009090F82810890714D5406A20B1C4
:10570000FBF7C2FE0099002048622046FFF742FDE9
:10571000044606E02046FFF7E7FF2046FBF7B4FD0E
:10572000046A002CF6D16846FBF796FD38BD2DE9DA
:10573000FF419846164607460D0031D00846FBF754
:105740007DFD0090846A0246A00726D5394601A84F
:10575000FCF738F908B340F601000440012C07D0EB
:10576000424601A9284600F061FB0098C46912E096
:1057700000984346026A816901A8FFF7D8FFF4E761
:10578000B4420AD0424601A92046FFF701FF204655
:10579000FBF77AFD046A002CF2D16846FBF75CFD4A
:1057A000BDE8FF812023FFF7C2BF000070B50C46A3
:1057B000002550B14CB100BFFBF766FD8069A042E7
:1057C00001D1012501E00028F6D1284670BD10B5B1
:1057D0000124FBF759FD90F82800C00600D50024ED
:1057E000204610BD70B5104D06460E4C286804EBDF
:1057F000C00041683046FFF7D9FF296804EBC102B9
:10580000516829B100215268B24203D1012202E05D
:105810000121F8E700220143114301D0012070BDAE
:10582000002070BD78960020E811002090F8283004
:105830009B0711D5B0F900308B420DDCB0F9043074
:105840008B4209DBB0F90210914205DCB0F9060089
:10585000904201DB012070470020704710B50446DC
:105860000648C06806E0A04201D1012010BDFBF748
:105870000BFD40690028F6D110BD0000E0110020AA
:10588000B0F90010B0F90420914205DCB0F9021023
:10589000B0F90600814201DD002070470120704709
:1058A0007FB5094D074C286854F82000002808D01F
:1058B00018210091694600F01FF82968002044F87B
:1058C00021007FBD28120020E8110020094B196833
:1058D000002905D00022814206D108680AB1106073
:1058E00070470028186070470A4609680029F2D1FD
:1058F00070470000F011002070B50D4C06460D46B3
:10590000206814280DDA3046FBF7BEFC01696E6092
:1059100041B12068401C2060284688472068401E0E
:10592000206070BD2846BDE87040FFF705BC000050
:105930005812002070B50C460546FFF748FF0028B6
:1059400005D021462846BDE87040FFF7D5BF70BDA1
:105950007FB505460E464868C9680391CDE9010543
:105960000D202C46009008E02046FFF71AFC0400AA
:1059700003D069460396FFF7DDFF2046FFF737FEA9
:105980000028F1D131462846FFF7D4FF7FBDF8B596
:10599000CC680D46064684B1FBF750FC0090B0F988
:1059A00000002168081A206000996068B1F90210AF
:1059B000401A60606846FBF74FFC29463046FFF707
:1059C000C7FFF8BD2DE9F0411B4D0C460646A968FE
:1059D000686B0144491EA019884205D8016819B9AD
:1059E00041680E4400F0BCFA686BA0420AD254F839
:1059F000040C271A386828B978680644384600F03D
:105A0000AFFA3C46304600F0A7F905EBC007324636
:105A1000002120463B6C00F0EBFD57F8400F0834A6
:105A200000B144602060002060603C602868304421
:105A300028603046BDE8F081B09400202DE9F041A7
:105A4000054600F0A1F92B48C46BAC4202D8ED1C0E
:105A500025F00304804600680C34A04202D20020E6
:105A6000BDE8F08100F03CFA0600F9D0204600F0D5
:105A700073F9424611E000BF02EBC001096C59B155
:105A80008D686B68A3420BD2A96829B18D686B68D9
:105A9000A34205D2002DF7D1401C1028ECD31FE003
:105AA000F5B1D8F83C00191B0C301F46814200D2DA
:105AB0003C46284600F054FA0421D8F8300001EBA7
:105AC000C6010023455022463146284600F090FD8D
:105AD000A74203DD2919381BFFF774FF3046BFE7E3
